{
  "contractName": "Freight",
  "abi": [
    {
      "inputs": [],
      "stateMutability": "nonpayable",
      "type": "constructor"
    },
    {
      "anonymous": false,
      "inputs": [
        {
          "indexed": true,
          "internalType": "address",
          "name": "sender",
          "type": "address"
        },
        {
          "indexed": false,
          "internalType": "string",
          "name": "message",
          "type": "string"
        }
      ],
      "name": "Log",
      "type": "event"
    },
    {
      "inputs": [
        {
          "internalType": "address",
          "name": "owner_",
          "type": "address"
        }
      ],
      "name": "setOwner",
      "outputs": [],
      "stateMutability": "nonpayable",
      "type": "function"
    },
    {
      "inputs": [
        {
          "internalType": "string",
          "name": "country_",
          "type": "string"
        },
        {
          "internalType": "string",
          "name": "state_",
          "type": "string"
        },
        {
          "internalType": "string",
          "name": "city_",
          "type": "string"
        },
        {
          "internalType": "string",
          "name": "street_",
          "type": "string"
        },
        {
          "internalType": "string",
          "name": "district_",
          "type": "string"
        },
        {
          "internalType": "string",
          "name": "zipcode_",
          "type": "string"
        },
        {
          "internalType": "string",
          "name": "number_",
          "type": "string"
        },
        {
          "internalType": "address",
          "name": "sender",
          "type": "address"
        }
      ],
      "name": "setOrigin",
      "outputs": [],
      "stateMutability": "nonpayable",
      "type": "function"
    },
    {
      "inputs": [
        {
          "internalType": "string",
          "name": "country_",
          "type": "string"
        },
        {
          "internalType": "string",
          "name": "state_",
          "type": "string"
        },
        {
          "internalType": "string",
          "name": "city_",
          "type": "string"
        },
        {
          "internalType": "string",
          "name": "street_",
          "type": "string"
        },
        {
          "internalType": "string",
          "name": "district_",
          "type": "string"
        },
        {
          "internalType": "string",
          "name": "zipcode_",
          "type": "string"
        },
        {
          "internalType": "string",
          "name": "number_",
          "type": "string"
        },
        {
          "internalType": "address",
          "name": "sender",
          "type": "address"
        }
      ],
      "name": "setDestination",
      "outputs": [],
      "stateMutability": "nonpayable",
      "type": "function"
    },
    {
      "inputs": [
        {
          "internalType": "uint256",
          "name": "date_limit_get_load_",
          "type": "uint256"
        },
        {
          "internalType": "uint256",
          "name": "date_limit_delivery_",
          "type": "uint256"
        },
        {
          "internalType": "address",
          "name": "sender",
          "type": "address"
        }
      ],
      "name": "setDates",
      "outputs": [],
      "stateMutability": "nonpayable",
      "type": "function"
    },
    {
      "inputs": [
        {
          "internalType": "uint256",
          "name": "estipulated_value_",
          "type": "uint256"
        },
        {
          "internalType": "uint256",
          "name": "fine_delivery_late_",
          "type": "uint256"
        },
        {
          "internalType": "uint256",
          "name": "guarantee_value_",
          "type": "uint256"
        },
        {
          "internalType": "address",
          "name": "sender",
          "type": "address"
        }
      ],
      "name": "setValues",
      "outputs": [],
      "stateMutability": "nonpayable",
      "type": "function"
    },
    {
      "inputs": [
        {
          "internalType": "uint256",
          "name": "i",
          "type": "uint256"
        },
        {
          "internalType": "address",
          "name": "sender",
          "type": "address"
        }
      ],
      "name": "setWinningOffer",
      "outputs": [],
      "stateMutability": "nonpayable",
      "type": "function"
    },
    {
      "inputs": [
        {
          "internalType": "uint256",
          "name": "value_",
          "type": "uint256"
        },
        {
          "internalType": "uint256",
          "name": "advance_money_",
          "type": "uint256"
        },
        {
          "internalType": "address",
          "name": "sender",
          "type": "address"
        }
      ],
      "name": "createOffer",
      "outputs": [],
      "stateMutability": "nonpayable",
      "type": "function"
    },
    {
      "inputs": [
        {
          "internalType": "address",
          "name": "sender",
          "type": "address"
        }
      ],
      "name": "acceptOffer",
      "outputs": [],
      "stateMutability": "payable",
      "type": "function"
    },
    {
      "inputs": [
        {
          "internalType": "address",
          "name": "sender",
          "type": "address"
        }
      ],
      "name": "pickUpLoad",
      "outputs": [],
      "stateMutability": "payable",
      "type": "function"
    },
    {
      "inputs": [
        {
          "internalType": "address",
          "name": "sender",
          "type": "address"
        }
      ],
      "name": "withdrawAdvanceMoney",
      "outputs": [],
      "stateMutability": "nonpayable",
      "type": "function"
    },
    {
      "inputs": [
        {
          "internalType": "address",
          "name": "sender",
          "type": "address"
        }
      ],
      "name": "stopCarriage",
      "outputs": [],
      "stateMutability": "nonpayable",
      "type": "function"
    },
    {
      "inputs": [
        {
          "internalType": "address",
          "name": "sender",
          "type": "address"
        }
      ],
      "name": "onCarriage",
      "outputs": [],
      "stateMutability": "nonpayable",
      "type": "function"
    },
    {
      "inputs": [
        {
          "internalType": "address",
          "name": "sender",
          "type": "address"
        }
      ],
      "name": "deliver",
      "outputs": [],
      "stateMutability": "nonpayable",
      "type": "function"
    },
    {
      "inputs": [
        {
          "internalType": "address",
          "name": "sender",
          "type": "address"
        }
      ],
      "name": "withdrawWholeMoney",
      "outputs": [],
      "stateMutability": "nonpayable",
      "type": "function"
    },
    {
      "inputs": [
        {
          "internalType": "address",
          "name": "sender",
          "type": "address"
        }
      ],
      "name": "cancelFreight",
      "outputs": [],
      "stateMutability": "nonpayable",
      "type": "function"
    },
    {
      "inputs": [
        {
          "internalType": "address",
          "name": "sender",
          "type": "address"
        }
      ],
      "name": "getDeliveryLateFine",
      "outputs": [],
      "stateMutability": "nonpayable",
      "type": "function"
    },
    {
      "inputs": [],
      "name": "getOrigin",
      "outputs": [
        {
          "internalType": "string",
          "name": "",
          "type": "string"
        },
        {
          "internalType": "string",
          "name": "",
          "type": "string"
        },
        {
          "internalType": "string",
          "name": "",
          "type": "string"
        },
        {
          "internalType": "string",
          "name": "",
          "type": "string"
        },
        {
          "internalType": "string",
          "name": "",
          "type": "string"
        },
        {
          "internalType": "string",
          "name": "",
          "type": "string"
        },
        {
          "internalType": "string",
          "name": "",
          "type": "string"
        }
      ],
      "stateMutability": "view",
      "type": "function"
    },
    {
      "inputs": [],
      "name": "getDestination",
      "outputs": [
        {
          "internalType": "string",
          "name": "",
          "type": "string"
        },
        {
          "internalType": "string",
          "name": "",
          "type": "string"
        },
        {
          "internalType": "string",
          "name": "",
          "type": "string"
        },
        {
          "internalType": "string",
          "name": "",
          "type": "string"
        },
        {
          "internalType": "string",
          "name": "",
          "type": "string"
        },
        {
          "internalType": "string",
          "name": "",
          "type": "string"
        },
        {
          "internalType": "string",
          "name": "",
          "type": "string"
        }
      ],
      "stateMutability": "view",
      "type": "function"
    },
    {
      "inputs": [],
      "name": "getFreightSituation",
      "outputs": [
        {
          "internalType": "enum FreightSituation",
          "name": "",
          "type": "uint8"
        }
      ],
      "stateMutability": "view",
      "type": "function"
    },
    {
      "inputs": [],
      "name": "getOffers",
      "outputs": [
        {
          "components": [
            {
              "internalType": "address payable",
              "name": "address_offer",
              "type": "address"
            },
            {
              "internalType": "uint256",
              "name": "value",
              "type": "uint256"
            },
            {
              "internalType": "uint256",
              "name": "advance_money",
              "type": "uint256"
            }
          ],
          "internalType": "struct Offer[]",
          "name": "",
          "type": "tuple[]"
        }
      ],
      "stateMutability": "view",
      "type": "function"
    },
    {
      "inputs": [],
      "name": "getBalance",
      "outputs": [
        {
          "internalType": "uint256",
          "name": "",
          "type": "uint256"
        }
      ],
      "stateMutability": "view",
      "type": "function"
    },
    {
      "inputs": [],
      "name": "getValues",
      "outputs": [
        {
          "internalType": "uint256",
          "name": "",
          "type": "uint256"
        },
        {
          "internalType": "uint256",
          "name": "",
          "type": "uint256"
        },
        {
          "internalType": "uint256",
          "name": "",
          "type": "uint256"
        }
      ],
      "stateMutability": "view",
      "type": "function"
    },
    {
      "inputs": [],
      "name": "getContractAddress",
      "outputs": [
        {
          "internalType": "address",
          "name": "",
          "type": "address"
        }
      ],
      "stateMutability": "view",
      "type": "function"
    }
  ],
  "bytecode": "0x60806040523480156200001157600080fd5b506000601860006101000a81548160ff021916908360088111156200003b576200003a62000097565b5b02179055506000601860016101000a81548160ff0219169083151502179055506000601860026101000a81548160ff0219169083151502179055506000601860036101000a81548160ff021916908315150217905550620000c6565b7f4e487b7100000000000000000000000000000000000000000000000000000000600052602160045260246000fd5b613d5880620000d66000396000f3fe6080604052600436106101405760003560e01c80633ee992ee116100b6578063c46acdc01161006f578063c46acdc0146103f8578063d44c118514610421578063df1f29ee1461044a578063e5021a0d1461047b578063e515cd38146104a4578063f6b43704146104cd57610140565b80633ee992ee1461031a57806366b6aff61461034557806374ca26ab1461036e5780637c259d3d1461038a578063ab337c0d146103b3578063b6261d0a146103dc57610140565b806316ad95421161010857806316ad95421461021457806319eb4a90146102455780631d1cc96c1461027257806322eddc471461029b57806324f2c945146102c657806332a2c5d0146102ef57610140565b80630a9d8cc3146101455780630fba15c31461016e5780630fc1502a1461019757806312065fe0146101c057806313af4035146101eb575b600080fd5b34801561015157600080fd5b5061016c60048036038101906101679190612d8d565b6104f6565b005b34801561017a57600080fd5b5061019560048036038101906101909190612de0565b6105bb565b005b3480156101a357600080fd5b506101be60048036038101906101b99190612f53565b610864565b005b3480156101cc57600080fd5b506101d56109e5565b6040516101e291906130dc565b60405180910390f35b3480156101f757600080fd5b50610212600480360381019061020d9190612de0565b6109ed565b005b34801561022057600080fd5b50610229610a89565b60405161023c979695949392919061317f565b60405180910390f35b34801561025157600080fd5b5061025a610eb7565b6040516102699392919061321f565b60405180910390f35b34801561027e57600080fd5b5061029960048036038101906102949190613256565b610ed9565b005b3480156102a757600080fd5b506102b0610fa9565b6040516102bd9190613334565b60405180910390f35b3480156102d257600080fd5b506102ed60048036038101906102e89190612de0565b610fc0565b005b3480156102fb57600080fd5b506103046111d8565b604051610311919061335e565b60405180910390f35b34801561032657600080fd5b5061032f6111e0565b60405161033c919061349a565b60405180910390f35b34801561035157600080fd5b5061036c60048036038101906103679190612d8d565b6112a9565b005b61038860048036038101906103839190612de0565b6114a4565b005b34801561039657600080fd5b506103b160048036038101906103ac9190612de0565b6116dc565b005b3480156103bf57600080fd5b506103da60048036038101906103d59190612de0565b6118d9565b005b6103f660048036038101906103f19190612de0565b611ab5565b005b34801561040457600080fd5b5061041f600480360381019061041a9190612de0565b611cf2565b005b34801561042d57600080fd5b5061044860048036038101906104439190612f53565b612027565b005b34801561045657600080fd5b5061045f6121a8565b604051610472979695949392919061317f565b60405180910390f35b34801561048757600080fd5b506104a2600480360381019061049d9190612de0565b6125d6565b005b3480156104b057600080fd5b506104cb60048036038101906104c69190612de0565b6127d3565b005b3480156104d957600080fd5b506104f460048036038101906104ef91906134bc565b6129c7565b005b8060008054906101000a900473ffffffffffffffffffffffffffffffffffffffff1673ffffffffffffffffffffffffffffffffffffffff168173ffffffffffffffffffffffffffffffffffffffff1614604051806060016040528060368152602001613c7d60369139906105a0576040517f08c379a000000000000000000000000000000000000000000000000000000000815260040161059791906134fc565b60405180910390fd5b50836001600e0181905550826001600f018190555050505050565b8060008054906101000a900473ffffffffffffffffffffffffffffffffffffffff1673ffffffffffffffffffffffffffffffffffffffff168173ffffffffffffffffffffffffffffffffffffffff1614604051806060016040528060368152602001613c7d6036913990610665576040517f08c379a000000000000000000000000000000000000000000000000000000000815260040161065c91906134fc565b60405180910390fd5b506003600881111561067a576106796132bd565b5b601860009054906101000a900460ff16600881111561069c5761069b6132bd565b5b14806106db5750600460088111156106b7576106b66132bd565b5b601860009054906101000a900460ff1660088111156106d9576106d86132bd565b5b145b6040518060600160405280603d8152602001613ce6603d913990610735576040517f08c379a000000000000000000000000000000000000000000000000000000000815260040161072c91906134fc565b60405180910390fd5b506001600f0154421161074757600080fd5b601860029054906101000a900460ff1615604051806060016040528060328152602001613c1260329139906107b2576040517f08c379a00000000000000000000000000000000000000000000000000000000081526004016107a991906134fc565b60405180910390fd5b506007601860006101000a81548160ff021916908360088111156107d9576107d86132bd565b5b021790555060008054906101000a900473ffffffffffffffffffffffffffffffffffffffff1673ffffffffffffffffffffffffffffffffffffffff166108fc479081150290604051600060405180830381858888f19350505050158015610844573d6000803e3d6000fd5b506001601860026101000a81548160ff0219169083151502179055505050565b8060008054906101000a900473ffffffffffffffffffffffffffffffffffffffff1673ffffffffffffffffffffffffffffffffffffffff168173ffffffffffffffffffffffffffffffffffffffff1614604051806060016040528060368152602001613c7d603691399061090e576040517f08c379a000000000000000000000000000000000000000000000000000000000815260040161090591906134fc565b60405180910390fd5b50886001600701600001908051906020019061092b929190612c42565b508760016007016001019080519060200190610948929190612c42565b508660016007016002019080519060200190610965929190612c42565b508560016007016003019080519060200190610982929190612c42565b50846001600701600401908051906020019061099f929190612c42565b5083600160070160050190805190602001906109bc929190612c42565b5082600160070160060190805190602001906109d9929190612c42565b50505050505050505050565b600047905090565b600073ffffffffffffffffffffffffffffffffffffffff1660008054906101000a900473ffffffffffffffffffffffffffffffffffffffff1673ffffffffffffffffffffffffffffffffffffffff1614610a4657600080fd5b806000806101000a81548173ffffffffffffffffffffffffffffffffffffffff021916908373ffffffffffffffffffffffffffffffffffffffff16021790555050565b60608060608060608060606001600701600001600160070160010160016007016002016001600701600301600160070160040160016007016005016001600701600601868054610ad89061354d565b80601f0160208091040260200160405190810160405280929190818152602001828054610b049061354d565b8015610b515780601f10610b2657610100808354040283529160200191610b51565b820191906000526020600020905b815481529060010190602001808311610b3457829003601f168201915b50505050509650858054610b649061354d565b80601f0160208091040260200160405190810160405280929190818152602001828054610b909061354d565b8015610bdd5780601f10610bb257610100808354040283529160200191610bdd565b820191906000526020600020905b815481529060010190602001808311610bc057829003601f168201915b50505050509550848054610bf09061354d565b80601f0160208091040260200160405190810160405280929190818152602001828054610c1c9061354d565b8015610c695780601f10610c3e57610100808354040283529160200191610c69565b820191906000526020600020905b815481529060010190602001808311610c4c57829003601f168201915b50505050509450838054610c7c9061354d565b80601f0160208091040260200160405190810160405280929190818152602001828054610ca89061354d565b8015610cf55780601f10610cca57610100808354040283529160200191610cf5565b820191906000526020600020905b815481529060010190602001808311610cd857829003601f168201915b50505050509350828054610d089061354d565b80601f0160208091040260200160405190810160405280929190818152602001828054610d349061354d565b8015610d815780601f10610d5657610100808354040283529160200191610d81565b820191906000526020600020905b815481529060010190602001808311610d6457829003601f168201915b50505050509250818054610d949061354d565b80601f0160208091040260200160405190810160405280929190818152602001828054610dc09061354d565b8015610e0d5780601f10610de257610100808354040283529160200191610e0d565b820191906000526020600020905b815481529060010190602001808311610df057829003601f168201915b50505050509150808054610e209061354d565b80601f0160208091040260200160405190810160405280929190818152602001828054610e4c9061354d565b8015610e995780601f10610e6e57610100808354040283529160200191610e99565b820191906000526020600020905b815481529060010190602001808311610e7c57829003601f168201915b50505050509050965096509650965096509650965090919293949596565b6000806000600160100154600160110154600160120154925092509250909192565b8060008054906101000a900473ffffffffffffffffffffffffffffffffffffffff1673ffffffffffffffffffffffffffffffffffffffff168173ffffffffffffffffffffffffffffffffffffffff1614604051806060016040528060368152602001613c7d6036913990610f83576040517f08c379a0000000000000000000000000000000000000000000000000000000008152600401610f7a91906134fc565b60405180910390fd5b508460016010018190555083600160110181905550826001601201819055505050505050565b6000601860009054906101000a900460ff16905090565b8060008054906101000a900473ffffffffffffffffffffffffffffffffffffffff1673ffffffffffffffffffffffffffffffffffffffff168173ffffffffffffffffffffffffffffffffffffffff1614604051806060016040528060368152602001613c7d603691399061106a576040517f08c379a000000000000000000000000000000000000000000000000000000000815260040161106191906134fc565b60405180910390fd5b506006600881111561107f5761107e6132bd565b5b601860009054906101000a900460ff1660088111156110a1576110a06132bd565b5b146040518060600160405280603d8152602001613ce6603d9139906110fc576040517f08c379a00000000000000000000000000000000000000000000000000000000081526004016110f391906134fc565b60405180910390fd5b50601860039054906101000a900460ff161561114d576040517f08c379a0000000000000000000000000000000000000000000000000000000008152600401611144906135f1565b60405180910390fd5b60008054906101000a900473ffffffffffffffffffffffffffffffffffffffff1673ffffffffffffffffffffffffffffffffffffffff166108fc6001601101549081150290604051600060405180830381858888f193505050501580156111b8573d6000803e3d6000fd5b506001601860036101000a81548160ff0219169083151502179055505050565b600030905090565b60606017805480602002602001604051908101604052809291908181526020016000905b828210156112a057838290600052602060002090600302016040518060600160405290816000820160009054906101000a900473ffffffffffffffffffffffffffffffffffffffff1673ffffffffffffffffffffffffffffffffffffffff1673ffffffffffffffffffffffffffffffffffffffff1681526020016001820154815260200160028201548152505081526020019060010190611204565b50505050905090565b600060088111156112bd576112bc6132bd565b5b601860009054906101000a900460ff1660088111156112df576112de6132bd565b5b146040518060600160405280603d8152602001613ce6603d91399061133a576040517f08c379a000000000000000000000000000000000000000000000000000000000815260040161133191906134fc565b60405180910390fd5b5060008054906101000a900473ffffffffffffffffffffffffffffffffffffffff1673ffffffffffffffffffffffffffffffffffffffff168173ffffffffffffffffffffffffffffffffffffffff161415604051806060016040528060338152602001613cb360339139906113e5576040517f08c379a00000000000000000000000000000000000000000000000000000000081526004016113dc91906134fc565b60405180910390fd5b50601760405180606001604052808373ffffffffffffffffffffffffffffffffffffffff16815260200185815260200184815250908060018154018082558091505060019003906000526020600020906003020160009091909190915060008201518160000160006101000a81548173ffffffffffffffffffffffffffffffffffffffff021916908373ffffffffffffffffffffffffffffffffffffffff16021790555060208201518160010155604082015181600201555050505050565b8060008054906101000a900473ffffffffffffffffffffffffffffffffffffffff1673ffffffffffffffffffffffffffffffffffffffff168173ffffffffffffffffffffffffffffffffffffffff1614604051806060016040528060368152602001613c7d603691399061154e576040517f08c379a000000000000000000000000000000000000000000000000000000000815260040161154591906134fc565b60405180910390fd5b5060026008811115611563576115626132bd565b5b601860009054906101000a900460ff166008811115611585576115846132bd565b5b146040518060600160405280603d8152602001613ce6603d9139906115e0576040517f08c379a00000000000000000000000000000000000000000000000000000000081526004016115d791906134fc565b60405180910390fd5b5060146001015434146040518060400160405280601881526020017f5468652076616c7565732061726520646966666572656e74000000000000000081525090611660576040517f08c379a000000000000000000000000000000000000000000000000000000000815260040161165791906134fc565b60405180910390fd5b506003601860006101000a81548160ff02191690836008811115611687576116866132bd565b5b02179055503373ffffffffffffffffffffffffffffffffffffffff167f0738f4da267a110d810e6e89fc59e46be6de0c37b1d5cd559b267dc3688e74e06040516116d0906136a9565b60405180910390a25050565b80601460000160009054906101000a900473ffffffffffffffffffffffffffffffffffffffff1673ffffffffffffffffffffffffffffffffffffffff168173ffffffffffffffffffffffffffffffffffffffff1614604051806060016040528060398152602001613c44603991399061178b576040517f08c379a000000000000000000000000000000000000000000000000000000000815260040161178291906134fc565b60405180910390fd5b50600360088111156117a05761179f6132bd565b5b601860009054906101000a900460ff1660088111156117c2576117c16132bd565b5b101580156118035750600560088111156117df576117de6132bd565b5b601860009054906101000a900460ff166008811115611801576118006132bd565b5b105b6040518060600160405280603d8152602001613ce6603d91399061185d576040517f08c379a000000000000000000000000000000000000000000000000000000000815260040161185491906134fc565b60405180910390fd5b506004601860006101000a81548160ff02191690836008811115611884576118836132bd565b5b02179055503373ffffffffffffffffffffffffffffffffffffffff167f0738f4da267a110d810e6e89fc59e46be6de0c37b1d5cd559b267dc3688e74e06040516118cd9061373b565b60405180910390a25050565b80601460000160009054906101000a900473ffffffffffffffffffffffffffffffffffffffff1673ffffffffffffffffffffffffffffffffffffffff168173ffffffffffffffffffffffffffffffffffffffff1614604051806060016040528060398152602001613c446039913990611988576040517f08c379a000000000000000000000000000000000000000000000000000000000815260040161197f91906134fc565b60405180910390fd5b50601860019054906101000a900460ff16156119d9576040517f08c379a00000000000000000000000000000000000000000000000000000000081526004016119d0906137cd565b60405180910390fd5b601460000160009054906101000a900473ffffffffffffffffffffffffffffffffffffffff1673ffffffffffffffffffffffffffffffffffffffff166108fc6014600201549081150290604051600060405180830381858888f19350505050158015611a49573d6000803e3d6000fd5b506001601860016101000a81548160ff0219169083151502179055503373ffffffffffffffffffffffffffffffffffffffff167f0738f4da267a110d810e6e89fc59e46be6de0c37b1d5cd559b267dc3688e74e0604051611aa99061385f565b60405180910390a25050565b80601460000160009054906101000a900473ffffffffffffffffffffffffffffffffffffffff1673ffffffffffffffffffffffffffffffffffffffff168173ffffffffffffffffffffffffffffffffffffffff1614604051806060016040528060398152602001613c446039913990611b64576040517f08c379a0000000000000000000000000000000000000000000000000000000008152600401611b5b91906134fc565b60405180910390fd5b5060016012015434146040518060400160405280601881526020017f5468652076616c7565732061726520646966666572656e74000000000000000081525090611be4576040517f08c379a0000000000000000000000000000000000000000000000000000000008152600401611bdb91906134fc565b60405180910390fd5b5060016008811115611bf957611bf86132bd565b5b601860009054906101000a900460ff166008811115611c1b57611c1a6132bd565b5b146040518060600160405280603d8152602001613ce6603d913990611c76576040517f08c379a0000000000000000000000000000000000000000000000000000000008152600401611c6d91906134fc565b60405180910390fd5b506002601860006101000a81548160ff02191690836008811115611c9d57611c9c6132bd565b5b02179055503373ffffffffffffffffffffffffffffffffffffffff167f0738f4da267a110d810e6e89fc59e46be6de0c37b1d5cd559b267dc3688e74e0604051611ce690613917565b60405180910390a25050565b80601460000160009054906101000a900473ffffffffffffffffffffffffffffffffffffffff1673ffffffffffffffffffffffffffffffffffffffff168173ffffffffffffffffffffffffffffffffffffffff1614604051806060016040528060398152602001613c446039913990611da1576040517f08c379a0000000000000000000000000000000000000000000000000000000008152600401611d9891906134fc565b60405180910390fd5b5060056008811115611db657611db56132bd565b5b601860009054906101000a900460ff166008811115611dd857611dd76132bd565b5b1480611e17575060066008811115611df357611df26132bd565b5b601860009054906101000a900460ff166008811115611e1557611e146132bd565b5b145b6040518060600160405280603d8152602001613ce6603d913990611e71576040517f08c379a0000000000000000000000000000000000000000000000000000000008152600401611e6891906134fc565b60405180910390fd5b50601860029054906101000a900460ff1615604051806060016040528060328152602001613c126032913990611edd576040517f08c379a0000000000000000000000000000000000000000000000000000000008152600401611ed491906134fc565b60405180910390fd5b5060056008811115611ef257611ef16132bd565b5b601860009054906101000a900460ff166008811115611f1457611f136132bd565b5b1415611f8b57601460000160009054906101000a900473ffffffffffffffffffffffffffffffffffffffff1673ffffffffffffffffffffffffffffffffffffffff166108fc479081150290604051600060405180830381858888f19350505050158015611f85573d6000803e3d6000fd5b50612008565b601460000160009054906101000a900473ffffffffffffffffffffffffffffffffffffffff1673ffffffffffffffffffffffffffffffffffffffff166108fc60016011015447611fdb9190613966565b9081150290604051600060405180830381858888f19350505050158015612006573d6000803e3d6000fd5b505b6001601860026101000a81548160ff0219169083151502179055505050565b8060008054906101000a900473ffffffffffffffffffffffffffffffffffffffff1673ffffffffffffffffffffffffffffffffffffffff168173ffffffffffffffffffffffffffffffffffffffff1614604051806060016040528060368152602001613c7d60369139906120d1576040517f08c379a00000000000000000000000000000000000000000000000000000000081526004016120c891906134fc565b60405180910390fd5b5088600160000160000190805190602001906120ee929190612c42565b50876001600001600101908051906020019061210b929190612c42565b508660016000016002019080519060200190612128929190612c42565b508560016000016003019080519060200190612145929190612c42565b508460016000016004019080519060200190612162929190612c42565b50836001600001600501908051906020019061217f929190612c42565b50826001600001600601908051906020019061219c929190612c42565b50505050505050505050565b606080606080606080606060016000016000016001600001600101600160000160020160016000016003016001600001600401600160000160050160016000016006018680546121f79061354d565b80601f01602080910402602001604051908101604052809291908181526020018280546122239061354d565b80156122705780601f1061224557610100808354040283529160200191612270565b820191906000526020600020905b81548152906001019060200180831161225357829003601f168201915b505050505096508580546122839061354d565b80601f01602080910402602001604051908101604052809291908181526020018280546122af9061354d565b80156122fc5780601f106122d1576101008083540402835291602001916122fc565b820191906000526020600020905b8154815290600101906020018083116122df57829003601f168201915b5050505050955084805461230f9061354d565b80601f016020809104026020016040519081016040528092919081815260200182805461233b9061354d565b80156123885780601f1061235d57610100808354040283529160200191612388565b820191906000526020600020905b81548152906001019060200180831161236b57829003601f168201915b5050505050945083805461239b9061354d565b80601f01602080910402602001604051908101604052809291908181526020018280546123c79061354d565b80156124145780601f106123e957610100808354040283529160200191612414565b820191906000526020600020905b8154815290600101906020018083116123f757829003601f168201915b505050505093508280546124279061354d565b80601f01602080910402602001604051908101604052809291908181526020018280546124539061354d565b80156124a05780601f10612475576101008083540402835291602001916124a0565b820191906000526020600020905b81548152906001019060200180831161248357829003601f168201915b505050505092508180546124b39061354d565b80601f01602080910402602001604051908101604052809291908181526020018280546124df9061354d565b801561252c5780601f106125015761010080835404028352916020019161252c565b820191906000526020600020905b81548152906001019060200180831161250f57829003601f168201915b5050505050915080805461253f9061354d565b80601f016020809104026020016040519081016040528092919081815260200182805461256b9061354d565b80156125b85780601f1061258d576101008083540402835291602001916125b8565b820191906000526020600020905b81548152906001019060200180831161259b57829003601f168201915b50505050509050965096509650965096509650965090919293949596565b80601460000160009054906101000a900473ffffffffffffffffffffffffffffffffffffffff1673ffffffffffffffffffffffffffffffffffffffff168173ffffffffffffffffffffffffffffffffffffffff1614604051806060016040528060398152602001613c446039913990612685576040517f08c379a000000000000000000000000000000000000000000000000000000000815260040161267c91906134fc565b60405180910390fd5b506003600881111561269a576126996132bd565b5b601860009054906101000a900460ff1660088111156126bc576126bb6132bd565b5b101580156126fd5750600560088111156126d9576126d86132bd565b5b601860009054906101000a900460ff1660088111156126fb576126fa6132bd565b5b105b6040518060600160405280603d8152602001613ce6603d913990612757576040517f08c379a000000000000000000000000000000000000000000000000000000000815260040161274e91906134fc565b60405180910390fd5b506003601860006101000a81548160ff0219169083600881111561277e5761277d6132bd565b5b02179055503373ffffffffffffffffffffffffffffffffffffffff167f0738f4da267a110d810e6e89fc59e46be6de0c37b1d5cd559b267dc3688e74e06040516127c790613a0c565b60405180910390a25050565b80601460000160009054906101000a900473ffffffffffffffffffffffffffffffffffffffff1673ffffffffffffffffffffffffffffffffffffffff168173ffffffffffffffffffffffffffffffffffffffff1614604051806060016040528060398152602001613c446039913990612882576040517f08c379a000000000000000000000000000000000000000000000000000000000815260040161287991906134fc565b60405180910390fd5b5060036008811115612897576128966132bd565b5b601860009054906101000a900460ff1660088111156128b9576128b86132bd565b5b146128c357600080fd5b6001600f0154421161294b576005601860006101000a81548160ff021916908360088111156128f5576128f46132bd565b5b02179055503373ffffffffffffffffffffffffffffffffffffffff167f0738f4da267a110d810e6e89fc59e46be6de0c37b1d5cd559b267dc3688e74e060405161293e90613a9e565b60405180910390a26129c3565b6006601860006101000a81548160ff02191690836008811115612971576129706132bd565b5b02179055503373ffffffffffffffffffffffffffffffffffffffff167f0738f4da267a110d810e6e89fc59e46be6de0c37b1d5cd559b267dc3688e74e06040516129ba90613b30565b60405180910390a25b5050565b8060008054906101000a900473ffffffffffffffffffffffffffffffffffffffff1673ffffffffffffffffffffffffffffffffffffffff168173ffffffffffffffffffffffffffffffffffffffff1614604051806060016040528060368152602001613c7d6036913990612a71576040517f08c379a0000000000000000000000000000000000000000000000000000000008152600401612a6891906134fc565b60405180910390fd5b5060006008811115612a8657612a856132bd565b5b601860009054906101000a900460ff166008811115612aa857612aa76132bd565b5b146040518060600160405280603d8152602001613ce6603d913990612b03576040517f08c379a0000000000000000000000000000000000000000000000000000000008152600401612afa91906134fc565b60405180910390fd5b5060178381548110612b1857612b17613b50565b5b906000526020600020906003020160146000820160009054906101000a900473ffffffffffffffffffffffffffffffffffffffff168160000160006101000a81548173ffffffffffffffffffffffffffffffffffffffff021916908373ffffffffffffffffffffffffffffffffffffffff16021790555060018201548160010155600282015481600201559050506001601860006101000a81548160ff02191690836008811115612bcc57612bcb6132bd565b5b021790555060008054906101000a900473ffffffffffffffffffffffffffffffffffffffff1673ffffffffffffffffffffffffffffffffffffffff167f0738f4da267a110d810e6e89fc59e46be6de0c37b1d5cd559b267dc3688e74e0604051612c3590613bf1565b60405180910390a2505050565b828054612c4e9061354d565b90600052602060002090601f016020900481019282612c705760008555612cb7565b82601f10612c8957805160ff1916838001178555612cb7565b82800160010185558215612cb7579182015b82811115612cb6578251825591602001919060010190612c9b565b5b509050612cc49190612cc8565b5090565b5b80821115612ce1576000816000905550600101612cc9565b5090565b6000604051905090565b600080fd5b600080fd5b6000819050919050565b612d0c81612cf9565b8114612d1757600080fd5b50565b600081359050612d2981612d03565b92915050565b600073ffffffffffffffffffffffffffffffffffffffff82169050919050565b6000612d5a82612d2f565b9050919050565b612d6a81612d4f565b8114612d7557600080fd5b50565b600081359050612d8781612d61565b92915050565b600080600060608486031215612da657612da5612cef565b5b6000612db486828701612d1a565b9350506020612dc586828701612d1a565b9250506040612dd686828701612d78565b9150509250925092565b600060208284031215612df657612df5612cef565b5b6000612e0484828501612d78565b91505092915050565b600080fd5b600080fd5b6000601f19601f8301169050919050565b7f4e487b7100000000000000000000000000000000000000000000000000000000600052604160045260246000fd5b612e6082612e17565b810181811067ffffffffffffffff82111715612e7f57612e7e612e28565b5b80604052505050565b6000612e92612ce5565b9050612e9e8282612e57565b919050565b600067ffffffffffffffff821115612ebe57612ebd612e28565b5b612ec782612e17565b9050602081019050919050565b82818337600083830152505050565b6000612ef6612ef184612ea3565b612e88565b905082815260208101848484011115612f1257612f11612e12565b5b612f1d848285612ed4565b509392505050565b600082601f830112612f3a57612f39612e0d565b5b8135612f4a848260208601612ee3565b91505092915050565b600080600080600080600080610100898b031215612f7457612f73612cef565b5b600089013567ffffffffffffffff811115612f9257612f91612cf4565b5b612f9e8b828c01612f25565b985050602089013567ffffffffffffffff811115612fbf57612fbe612cf4565b5b612fcb8b828c01612f25565b975050604089013567ffffffffffffffff811115612fec57612feb612cf4565b5b612ff88b828c01612f25565b965050606089013567ffffffffffffffff81111561301957613018612cf4565b5b6130258b828c01612f25565b955050608089013567ffffffffffffffff81111561304657613045612cf4565b5b6130528b828c01612f25565b94505060a089013567ffffffffffffffff81111561307357613072612cf4565b5b61307f8b828c01612f25565b93505060c089013567ffffffffffffffff8111156130a05761309f612cf4565b5b6130ac8b828c01612f25565b92505060e06130bd8b828c01612d78565b9150509295985092959890939650565b6130d681612cf9565b82525050565b60006020820190506130f160008301846130cd565b92915050565b600081519050919050565b600082825260208201905092915050565b60005b83811015613131578082015181840152602081019050613116565b83811115613140576000848401525b50505050565b6000613151826130f7565b61315b8185613102565b935061316b818560208601613113565b61317481612e17565b840191505092915050565b600060e0820190508181036000830152613199818a613146565b905081810360208301526131ad8189613146565b905081810360408301526131c18188613146565b905081810360608301526131d58187613146565b905081810360808301526131e98186613146565b905081810360a08301526131fd8185613146565b905081810360c08301526132118184613146565b905098975050505050505050565b600060608201905061323460008301866130cd565b61324160208301856130cd565b61324e60408301846130cd565b949350505050565b600080600080608085870312156132705761326f612cef565b5b600061327e87828801612d1a565b945050602061328f87828801612d1a565b93505060406132a087828801612d1a565b92505060606132b187828801612d78565b91505092959194509250565b7f4e487b7100000000000000000000000000000000000000000000000000000000600052602160045260246000fd5b600981106132fd576132fc6132bd565b5b50565b600081905061330e826132ec565b919050565b600061331e82613300565b9050919050565b61332e81613313565b82525050565b60006020820190506133496000830184613325565b92915050565b61335881612d4f565b82525050565b6000602082019050613373600083018461334f565b92915050565b600081519050919050565b600082825260208201905092915050565b6000819050602082019050919050565b60006133b082612d2f565b9050919050565b6133c0816133a5565b82525050565b6133cf81612cf9565b82525050565b6060820160008201516133eb60008501826133b7565b5060208201516133fe60208501826133c6565b50604082015161341160408501826133c6565b50505050565b600061342383836133d5565b60608301905092915050565b6000602082019050919050565b600061344782613379565b6134518185613384565b935061345c83613395565b8060005b8381101561348d5781516134748882613417565b975061347f8361342f565b925050600181019050613460565b5085935050505092915050565b600060208201905081810360008301526134b4818461343c565b905092915050565b600080604083850312156134d3576134d2612cef565b5b60006134e185828601612d1a565b92505060206134f285828601612d78565b9150509250929050565b600060208201905081810360008301526135168184613146565b905092915050565b7f4e487b7100000000000000000000000000000000000000000000000000000000600052602260045260246000fd5b6000600282049050600182168061356557607f821691505b602082108114156135795761357861351e565b5b50919050565b7f5468652064656c6976657279206c6174652066696e652068616420616c72616460008201527f79206265656e2074616b656e0000000000000000000000000000000000000000602082015250565b60006135db602c83613102565b91506135e68261357f565b604082019050919050565b6000602082019050818103600083015261360a816135ce565b9050919050565b7f4f776e657220636f6e6669726d65643a207472616e73706f727465722070696360008201527f6b656420757020746865206c6f61642120546f74616c206d6f6e65792068616460208201527f206265656e2061706f7274656420746f2074686520636f6e7472616374000000604082015250565b6000613693605d83613102565b915061369e82613611565b606082019050919050565b600060208201905081810360008301526136c281613686565b9050919050565b7f546865207472616e73706f72746572206861642073746f70706564207468652060008201527f6361727269616765000000000000000000000000000000000000000000000000602082015250565b6000613725602883613102565b9150613730826136c9565b604082019050919050565b6000602082019050818103600083015261375481613718565b9050919050565b7f546865206163636f756e742068616420616c726561647920776974686472617760008201527f6e2074686520616476616e6365206d6f6e657900000000000000000000000000602082015250565b60006137b7603383613102565b91506137c28261375b565b604082019050919050565b600060208201905081810360008301526137e6816137aa565b9050919050565b7f546865207472616e73706f72746572206861642077697468647261776e20746860008201527f6520616476616e6365206d6f6e65790000000000000000000000000000000000602082015250565b6000613849602f83613102565b9150613854826137ed565b604082019050919050565b600060208201905081810360008301526138788161383c565b9050919050565b7f57696e6e6572206f666665722068616420616363657074656420616e6420707560008201527f74207468652067756172616e7465652076616c75652061742074686520636f6e60208201527f7472616374000000000000000000000000000000000000000000000000000000604082015250565b6000613901604583613102565b915061390c8261387f565b606082019050919050565b60006020820190508181036000830152613930816138f4565b9050919050565b7f4e487b7100000000000000000000000000000000000000000000000000000000600052601160045260246000fd5b600061397182612cf9565b915061397c83612cf9565b92508282101561398f5761398e613937565b5b828203905092915050565b7f546865207472616e73706f72746572206973206f6e207468652063617272696160008201527f676520616761696e000000000000000000000000000000000000000000000000602082015250565b60006139f6602883613102565b9150613a018261399a565b604082019050919050565b60006020820190508181036000830152613a25816139e9565b9050919050565b7f546865207472616e73706f72746572206861642064656c69766572656420746860008201527f65206c6f616420696e2074696d65000000000000000000000000000000000000602082015250565b6000613a88602e83613102565b9150613a9382613a2c565b604082019050919050565b60006020820190508181036000830152613ab781613a7b565b9050919050565b7f546865207472616e73706f72746572206861642064656c69766572656420746860008201527f65206c6f61642c206c6174650000000000000000000000000000000000000000602082015250565b6000613b1a602c83613102565b9150613b2582613abe565b604082019050919050565b60006020820190508181036000830152613b4981613b0d565b9050919050565b7f4e487b7100000000000000000000000000000000000000000000000000000000600052603260045260246000fd5b7f546865206f776e6572206861642073657420612077696e6e696e67206f66666560008201527f7200000000000000000000000000000000000000000000000000000000000000602082015250565b6000613bdb602183613102565b9150613be682613b7f565b604082019050919050565b60006020820190508181036000830152613c0a81613bce565b905091905056fe546865206163636f756e742068616420616c72656164792077697468647261776e207468652077686f6c65206d6f6e6579214f6e6c79207468652077696e6e6572206f66666572207472616e73706f727465722063616e20706572666f726d207468697320616374696f6e4f6e6c7920746865206f776e6572206f662074686520636f6e74726163742063616e20706572666f726d207468697320616374696f6e546865206f776e6572206f662074686520636f6e74726163742063616e277420706572666f726d207468697320616374696f6e546865206672656967687420736974756174696f6e20697320646966666572656e74206f6620776861742077617320737570706f73656420746f206265a264697066735822122044d9225059a1355dd6ec77df0bf793899adde0d0a03094a70a74e1aca352007864736f6c634300080b0033",
  "immutableReferences": {},
  "source": "// SPDX-License-Identifier: UNLICENSED\npragma solidity ^0.8.11;\n\n/* ------------------------- STRUCTS AND ENUMS ------------------------- */\n\nenum FreightSituation {\n    Auction,\n    WaitingConfirmationTransporter,\n    WaitingPickUpLoad,\n    OnCarriage,\n    Stopped,\n    Delivered,\n    DeliveredLate,\n    NotDelivered,\n    Returned\n}\n\nstruct Address {\n    string country;\n    string state;\n    string city;\n    string street;\n    string district; // neighborhood\n    string zipcode;\n    string number;\n}\n\nstruct Offer {\n    address payable address_offer;\n    uint value;\n    uint advance_money;\n}\n\nstruct FreightDetails {\n    Address origin;\n    Address destination;\n\n    uint256 date_limit_get_load;\n    uint256 date_limit_delivery;\n\n    uint estipulated_value;\n    uint fine_delivery_late;\n    uint guarantee_value; // guarantee value from the transporter, so it does not steal the load or something like that\n}\n\nstruct WholeFreight {\n    FreightDetails freight_details;\n    Offer[] offers;\n    FreightSituation situation;\n}\n\ncontract Freight {\n    /* ------------------------- INITIALIZERS ------------------------- */\n\n    // global variables\n    address payable owner;\n    FreightDetails freight_details;\n    Offer winning_offer;\n    Offer[] offers;\n    FreightSituation freight_situation;\n\n    // flags\n    bool is_advance_taken;\n    bool is_whole_money_taken;\n    bool is_delivery_late_taken;\n\n    // constants\n    string constant ONLY_OWNER = \"Only the owner of the contract can perform this action\";\n    string constant ONLY_WINNER_OFFER = \"Only the winner offer transporter can perform this action\";\n    string constant OWNER_CANT = \"The owner of the contract can't perform this action\";\n    string constant FREIGHT_SITUATION_DIFFERENT = \"The freight situation is different of what was supposed to be\";\n    string constant VALUES_DIFFER = \"The values are different\";\n    string constant WHOLE_MONEY_TAKEN = \"The account had already withdrawn the whole money!\";\n\n    // events\n    event Log(address indexed sender, string message);\n\n    constructor() {\n        freight_situation = FreightSituation.Auction;\n        \n        is_advance_taken = false;\n        is_whole_money_taken = false;\n        is_delivery_late_taken = false;\n    }\n\n    // modifier for owner-only\n    modifier onlyowner(address sender) {\n        require (sender == owner, ONLY_OWNER);\n        _;\n    }\n\n    // modifier for winning-only\n    modifier onlywinner(address sender) {\n        require (sender == winning_offer.address_offer, ONLY_WINNER_OFFER);\n        _;\n    }\n\n    function setOwner(address owner_) public {\n        require(owner == address(0));\n        owner = payable(owner_);\n    }\n\n    /* ------------------------- ONLY OWNER FUNCTIONS ------------------------- */\n\n    function setOrigin(\n        string memory country_, string memory state_, string memory city_,\n        string memory street_, string memory district_, string memory zipcode_,\n        string memory number_, address sender\n    ) public onlyowner(sender) {\n        freight_details.origin.country = country_;\n        freight_details.origin.state = state_;\n        freight_details.origin.city = city_;\n\n        freight_details.origin.street = street_;\n        freight_details.origin.district = district_;\n        freight_details.origin.zipcode = zipcode_;\n\n        freight_details.origin.number = number_;\n    }\n\n    function setDestination(\n        string memory country_, string memory state_, string memory city_,\n        string memory street_, string memory district_, string memory zipcode_,\n        string memory number_, address sender\n    ) public onlyowner(sender) {\n        freight_details.destination.country = country_;\n        freight_details.destination.state = state_;\n        freight_details.destination.city = city_;\n\n        freight_details.destination.street = street_;\n        freight_details.destination.district = district_;\n        freight_details.destination.zipcode = zipcode_;\n\n        freight_details.destination.number = number_;\n    }\n\n    function setDates(\n        uint256 date_limit_get_load_, uint256 date_limit_delivery_, address sender\n    ) public onlyowner(sender) {\n        freight_details.date_limit_get_load = date_limit_get_load_;\n        freight_details.date_limit_delivery = date_limit_delivery_;\n    }\n\n    function setValues(\n        uint estipulated_value_, uint fine_delivery_late_, uint guarantee_value_, address sender\n    ) public onlyowner(sender) {\n        freight_details.estipulated_value = estipulated_value_;\n        freight_details.fine_delivery_late = fine_delivery_late_;\n        freight_details.guarantee_value = guarantee_value_;\n    }\n\n    function setWinningOffer(uint i, address sender) public onlyowner(sender) {\n        require(freight_situation == FreightSituation.Auction, FREIGHT_SITUATION_DIFFERENT);\n        \n        // selecting the winner offer\n        winning_offer = offers[i];\n\n        // change the status of the freight\n        freight_situation = FreightSituation.WaitingConfirmationTransporter;\n\n        emit Log(owner, \"The owner had set a winning offer\");\n    }\n\n    /* ------------------------- OFFERS ------------------------- */\n\n    function createOffer(\n        uint value_, uint advance_money_, address sender\n    ) public {\n        require(freight_situation == FreightSituation.Auction, FREIGHT_SITUATION_DIFFERENT); // the situation must be as Auction\n        require(sender != owner, OWNER_CANT); // owner can't put a offer\n\n        offers.push(Offer({\n            address_offer: payable(sender),\n            value: value_,\n            advance_money: advance_money_\n        }));\n    }\n\n    /* ------------------------- INTERACTIONS ON THE CARRIAGE ------------------------- */\n\n    // winning offer transporter must accept the offer\n    function acceptOffer(address sender) public payable onlywinner(sender) {\n        require(msg.value == freight_details.guarantee_value, VALUES_DIFFER); // check if its the exact amount\n        require(freight_situation == FreightSituation.WaitingConfirmationTransporter, FREIGHT_SITUATION_DIFFERENT);\n\n        freight_situation = FreightSituation.WaitingPickUpLoad;\n\n        emit Log(msg.sender, \"Winner offer had accepted and put the guarantee value at the contract\");\n    }\n\n    // the owner confirms the transporter have arrived to pick up the load\n    function pickUpLoad(address sender) public onlyowner(sender) payable {\n        require(freight_situation == FreightSituation.WaitingPickUpLoad, FREIGHT_SITUATION_DIFFERENT);\n        require(msg.value == winning_offer.value, VALUES_DIFFER); // owner must put its money into the contract\n\n        freight_situation = FreightSituation.OnCarriage;\n\n        emit Log(msg.sender, \"Owner confirmed: transporter picked up the load! Total money had been aported to the contract\");\n    }\n\n    // the transporter can withdraw the advance money, put it into the contract by the owner\n    function withdrawAdvanceMoney(address sender) public onlywinner(sender) {\n        require(!is_advance_taken, \"The account had already withdrawn the advance money\");\n\n        // send advance money from the contract to the transporter account\n        winning_offer.address_offer.transfer(winning_offer.advance_money);\n\n        // set flag that the advance money had already been taken\n        is_advance_taken = true;\n\n        emit Log(msg.sender, \"The transporter had withdrawn the advance money\");\n    }\n\n    /* ------------------------- ACTIONS THE TRANSPORTER CAN PERFORM (ON THE CARRIAGE) ------------------------- */\n\n    // set situation to stopped\n    function stopCarriage(address sender) public onlywinner(sender) {\n        require(freight_situation >= FreightSituation.OnCarriage &&\n                freight_situation < FreightSituation.Delivered, FREIGHT_SITUATION_DIFFERENT);\n\n        freight_situation = FreightSituation.Stopped;\n\n        emit Log(msg.sender, \"The transporter had stopped the carriage\");\n    }\n\n    // set situation to on carriage\n    function onCarriage(address sender) public onlywinner(sender) {\n        require(freight_situation >= FreightSituation.OnCarriage &&\n                freight_situation < FreightSituation.Delivered, FREIGHT_SITUATION_DIFFERENT);\n        \n        freight_situation = FreightSituation.OnCarriage;\n\n        emit Log(msg.sender, \"The transporter is on the carriage again\");\n    }\n\n    // the transporter had delivered the load into the destination\n    function deliver(address sender) public onlywinner(sender) {\n        require(freight_situation == FreightSituation.OnCarriage);\n\n        if (block.timestamp <= freight_details.date_limit_delivery) {\n            freight_situation = FreightSituation.Delivered;\n            emit Log(msg.sender, \"The transporter had delivered the load in time\");\n\n        } else {\n            freight_situation = FreightSituation.DeliveredLate;\n            emit Log(msg.sender, \"The transporter had delivered the load, late\");\n        }\n    }\n\n    // the transporter, after delivering the load, can withdraw the whole money of the contract\n    function withdrawWholeMoney(address sender) public onlywinner(sender) {\n        require(freight_situation == FreightSituation.Delivered ||\n                freight_situation == FreightSituation.DeliveredLate, FREIGHT_SITUATION_DIFFERENT);\n        require(!is_whole_money_taken, WHOLE_MONEY_TAKEN);\n\n        // transfer the whole amount of money (including the guarantee fee)\n        if (freight_situation == FreightSituation.Delivered) {\n            winning_offer.address_offer.transfer(address(this).balance);\n        } else {\n            winning_offer.address_offer.transfer(address(this).balance - freight_details.fine_delivery_late);\n        }\n\n        // set the flag\n        is_whole_money_taken = true;\n    }\n\n    // the owner can say the load wasn't delivered (only after the time is higher than the delivery time)\n    // than, change the situation and gets back the whole amount of money of the contract\n    function cancelFreight(address sender) public onlyowner(sender) {\n        require(freight_situation == FreightSituation.OnCarriage ||\n                freight_situation == FreightSituation.Stopped, FREIGHT_SITUATION_DIFFERENT);\n        require(block.timestamp > freight_details.date_limit_delivery);\n        require(!is_whole_money_taken, WHOLE_MONEY_TAKEN);\n\n        // change the situation\n        freight_situation = FreightSituation.NotDelivered;\n\n        // transfer the whole money to the owner of the contract\n        owner.transfer(address(this).balance);\n\n        // set the flag\n        is_whole_money_taken = true;\n    }\n\n    // if the transporter had delivered the load in late time, the owner can get its fine of delivery late\n    function getDeliveryLateFine(address sender) public onlyowner(sender) {\n        require(freight_situation == FreightSituation.DeliveredLate, FREIGHT_SITUATION_DIFFERENT);\n        require(!is_delivery_late_taken, \"The delivery late fine had alrady been taken\");\n\n        // transfer the fine to the owner\n        owner.transfer(freight_details.fine_delivery_late);\n\n        // set the flag\n        is_delivery_late_taken = true;\n    }\n\n    /* ------------------------- GETTERS ------------------------- */\n\n    function getOrigin() public view returns (\n        string memory, string memory, string memory,\n        string memory, string memory, string memory,\n        string memory\n    ) {\n        return (\n            freight_details.origin.country,\n            freight_details.origin.state,\n            freight_details.origin.city,\n\n            freight_details.origin.street,\n            freight_details.origin.district,\n            freight_details.origin.zipcode,\n\n            freight_details.origin.number\n        );\n    }\n\n    function getDestination() public view returns (\n        string memory, string memory, string memory,\n        string memory, string memory, string memory,\n        string memory\n    ) {\n        return (\n            freight_details.destination.country,\n            freight_details.destination.state,\n            freight_details.destination.city,\n\n            freight_details.destination.street,\n            freight_details.destination.district,\n            freight_details.destination.zipcode,\n\n            freight_details.destination.number\n        );\n    }\n\n    function getFreightSituation() public view returns (FreightSituation) {\n        return (freight_situation);\n    }\n\n    function getOffers() public view returns (Offer[] memory) {\n        return (offers);\n    }\n\n    function getBalance() public view returns (uint256) {\n        return address(this).balance;\n    }\n\n    function getValues() public view returns (uint, uint, uint) {\n        return (freight_details.estipulated_value, freight_details.fine_delivery_late, freight_details.guarantee_value);\n    }\n\n    function getContractAddress() public view returns (address) {\n        return address(this);\n    }\n}",
  "sourcePath": "/home/anthony_kamers/Desktop/UFSC/2021.2/blockchain/web3-react1/contracts/Freight.sol",
  "compiler": {
    "name": "solc",
    "version": "0.8.11+commit.d7f03943.Emscripten.clang"
  },
  "schemaVersion": "3.4.4",
  "updatedAt": "2022-02-18T02:23:54.689Z",
  "devdoc": {
    "kind": "dev",
    "methods": {},
    "version": 1
  },
  "userdoc": {
    "kind": "user",
    "methods": {},
    "version": 1
  }
}