{
  "contractName": "Freight",
  "abi": [
    {
      "inputs": [],
      "stateMutability": "nonpayable",
      "type": "constructor"
    },
    {
      "anonymous": false,
      "inputs": [
        {
          "indexed": true,
          "internalType": "address",
          "name": "sender",
          "type": "address"
        },
        {
          "indexed": false,
          "internalType": "string",
          "name": "message",
          "type": "string"
        }
      ],
      "name": "Log",
      "type": "event"
    },
    {
      "inputs": [
        {
          "internalType": "address",
          "name": "owner_",
          "type": "address"
        }
      ],
      "name": "setOwner",
      "outputs": [],
      "stateMutability": "nonpayable",
      "type": "function"
    },
    {
      "inputs": [
        {
          "internalType": "string",
          "name": "country_",
          "type": "string"
        },
        {
          "internalType": "string",
          "name": "state_",
          "type": "string"
        },
        {
          "internalType": "string",
          "name": "city_",
          "type": "string"
        },
        {
          "internalType": "string",
          "name": "street_",
          "type": "string"
        },
        {
          "internalType": "string",
          "name": "district_",
          "type": "string"
        },
        {
          "internalType": "string",
          "name": "zipcode_",
          "type": "string"
        },
        {
          "internalType": "string",
          "name": "number_",
          "type": "string"
        }
      ],
      "name": "setOrigin",
      "outputs": [],
      "stateMutability": "nonpayable",
      "type": "function"
    },
    {
      "inputs": [
        {
          "internalType": "string",
          "name": "country_",
          "type": "string"
        },
        {
          "internalType": "string",
          "name": "state_",
          "type": "string"
        },
        {
          "internalType": "string",
          "name": "city_",
          "type": "string"
        },
        {
          "internalType": "string",
          "name": "street_",
          "type": "string"
        },
        {
          "internalType": "string",
          "name": "district_",
          "type": "string"
        },
        {
          "internalType": "string",
          "name": "zipcode_",
          "type": "string"
        },
        {
          "internalType": "string",
          "name": "number_",
          "type": "string"
        }
      ],
      "name": "setDestination",
      "outputs": [],
      "stateMutability": "nonpayable",
      "type": "function"
    },
    {
      "inputs": [
        {
          "internalType": "uint256",
          "name": "date_limit_get_load_",
          "type": "uint256"
        },
        {
          "internalType": "uint256",
          "name": "date_limit_delivery_",
          "type": "uint256"
        }
      ],
      "name": "setDates",
      "outputs": [],
      "stateMutability": "nonpayable",
      "type": "function"
    },
    {
      "inputs": [
        {
          "internalType": "uint256",
          "name": "estipulated_value_",
          "type": "uint256"
        },
        {
          "internalType": "uint256",
          "name": "fine_delivery_late_",
          "type": "uint256"
        },
        {
          "internalType": "uint256",
          "name": "guarantee_value_",
          "type": "uint256"
        }
      ],
      "name": "setValues",
      "outputs": [],
      "stateMutability": "nonpayable",
      "type": "function"
    },
    {
      "inputs": [
        {
          "internalType": "uint256",
          "name": "i",
          "type": "uint256"
        }
      ],
      "name": "setWinningOffer",
      "outputs": [],
      "stateMutability": "nonpayable",
      "type": "function"
    },
    {
      "inputs": [
        {
          "internalType": "uint256",
          "name": "value_",
          "type": "uint256"
        },
        {
          "internalType": "uint256",
          "name": "advance_money_",
          "type": "uint256"
        },
        {
          "internalType": "address",
          "name": "sender",
          "type": "address"
        }
      ],
      "name": "createOffer",
      "outputs": [],
      "stateMutability": "nonpayable",
      "type": "function"
    },
    {
      "inputs": [],
      "name": "acceptOffer",
      "outputs": [],
      "stateMutability": "payable",
      "type": "function"
    },
    {
      "inputs": [],
      "name": "pickUpLoad",
      "outputs": [],
      "stateMutability": "payable",
      "type": "function"
    },
    {
      "inputs": [],
      "name": "withdrawAdvanceMoney",
      "outputs": [],
      "stateMutability": "nonpayable",
      "type": "function"
    },
    {
      "inputs": [],
      "name": "stopCarriage",
      "outputs": [],
      "stateMutability": "nonpayable",
      "type": "function"
    },
    {
      "inputs": [],
      "name": "onCarriage",
      "outputs": [],
      "stateMutability": "nonpayable",
      "type": "function"
    },
    {
      "inputs": [],
      "name": "deliver",
      "outputs": [],
      "stateMutability": "nonpayable",
      "type": "function"
    },
    {
      "inputs": [],
      "name": "withdrawWholeMoney",
      "outputs": [],
      "stateMutability": "nonpayable",
      "type": "function"
    },
    {
      "inputs": [],
      "name": "cancelFreight",
      "outputs": [],
      "stateMutability": "nonpayable",
      "type": "function"
    },
    {
      "inputs": [],
      "name": "getDeliveryLateFine",
      "outputs": [],
      "stateMutability": "nonpayable",
      "type": "function"
    },
    {
      "inputs": [],
      "name": "getOrigin",
      "outputs": [
        {
          "internalType": "string",
          "name": "",
          "type": "string"
        },
        {
          "internalType": "string",
          "name": "",
          "type": "string"
        },
        {
          "internalType": "string",
          "name": "",
          "type": "string"
        },
        {
          "internalType": "string",
          "name": "",
          "type": "string"
        },
        {
          "internalType": "string",
          "name": "",
          "type": "string"
        },
        {
          "internalType": "string",
          "name": "",
          "type": "string"
        },
        {
          "internalType": "string",
          "name": "",
          "type": "string"
        }
      ],
      "stateMutability": "view",
      "type": "function"
    },
    {
      "inputs": [],
      "name": "getDestination",
      "outputs": [
        {
          "internalType": "string",
          "name": "",
          "type": "string"
        },
        {
          "internalType": "string",
          "name": "",
          "type": "string"
        },
        {
          "internalType": "string",
          "name": "",
          "type": "string"
        },
        {
          "internalType": "string",
          "name": "",
          "type": "string"
        },
        {
          "internalType": "string",
          "name": "",
          "type": "string"
        },
        {
          "internalType": "string",
          "name": "",
          "type": "string"
        },
        {
          "internalType": "string",
          "name": "",
          "type": "string"
        }
      ],
      "stateMutability": "view",
      "type": "function"
    },
    {
      "inputs": [],
      "name": "getFreightSituation",
      "outputs": [
        {
          "internalType": "enum FreightSituation",
          "name": "",
          "type": "uint8"
        }
      ],
      "stateMutability": "view",
      "type": "function"
    },
    {
      "inputs": [],
      "name": "getOffers",
      "outputs": [
        {
          "components": [
            {
              "internalType": "address payable",
              "name": "address_offer",
              "type": "address"
            },
            {
              "internalType": "uint256",
              "name": "value",
              "type": "uint256"
            },
            {
              "internalType": "uint256",
              "name": "advance_money",
              "type": "uint256"
            }
          ],
          "internalType": "struct Offer[]",
          "name": "",
          "type": "tuple[]"
        }
      ],
      "stateMutability": "view",
      "type": "function"
    },
    {
      "inputs": [
        {
          "internalType": "uint256",
          "name": "index",
          "type": "uint256"
        }
      ],
      "name": "getOffer",
      "outputs": [
        {
          "components": [
            {
              "internalType": "address payable",
              "name": "address_offer",
              "type": "address"
            },
            {
              "internalType": "uint256",
              "name": "value",
              "type": "uint256"
            },
            {
              "internalType": "uint256",
              "name": "advance_money",
              "type": "uint256"
            }
          ],
          "internalType": "struct Offer",
          "name": "",
          "type": "tuple"
        }
      ],
      "stateMutability": "view",
      "type": "function"
    },
    {
      "inputs": [],
      "name": "getBalance",
      "outputs": [
        {
          "internalType": "uint256",
          "name": "",
          "type": "uint256"
        }
      ],
      "stateMutability": "view",
      "type": "function"
    },
    {
      "inputs": [],
      "name": "getValues",
      "outputs": [
        {
          "internalType": "uint256",
          "name": "",
          "type": "uint256"
        },
        {
          "internalType": "uint256",
          "name": "",
          "type": "uint256"
        },
        {
          "internalType": "uint256",
          "name": "",
          "type": "uint256"
        }
      ],
      "stateMutability": "view",
      "type": "function"
    },
    {
      "inputs": [],
      "name": "getContractAddress",
      "outputs": [
        {
          "internalType": "address",
          "name": "",
          "type": "address"
        }
      ],
      "stateMutability": "view",
      "type": "function"
    },
    {
      "inputs": [],
      "name": "getFreightDetails",
      "outputs": [
        {
          "components": [
            {
              "components": [
                {
                  "internalType": "string",
                  "name": "country",
                  "type": "string"
                },
                {
                  "internalType": "string",
                  "name": "state",
                  "type": "string"
                },
                {
                  "internalType": "string",
                  "name": "city",
                  "type": "string"
                },
                {
                  "internalType": "string",
                  "name": "street",
                  "type": "string"
                },
                {
                  "internalType": "string",
                  "name": "district",
                  "type": "string"
                },
                {
                  "internalType": "string",
                  "name": "zipcode",
                  "type": "string"
                },
                {
                  "internalType": "string",
                  "name": "number",
                  "type": "string"
                }
              ],
              "internalType": "struct Address",
              "name": "origin",
              "type": "tuple"
            },
            {
              "components": [
                {
                  "internalType": "string",
                  "name": "country",
                  "type": "string"
                },
                {
                  "internalType": "string",
                  "name": "state",
                  "type": "string"
                },
                {
                  "internalType": "string",
                  "name": "city",
                  "type": "string"
                },
                {
                  "internalType": "string",
                  "name": "street",
                  "type": "string"
                },
                {
                  "internalType": "string",
                  "name": "district",
                  "type": "string"
                },
                {
                  "internalType": "string",
                  "name": "zipcode",
                  "type": "string"
                },
                {
                  "internalType": "string",
                  "name": "number",
                  "type": "string"
                }
              ],
              "internalType": "struct Address",
              "name": "destination",
              "type": "tuple"
            },
            {
              "internalType": "uint256",
              "name": "date_limit_get_load",
              "type": "uint256"
            },
            {
              "internalType": "uint256",
              "name": "date_limit_delivery",
              "type": "uint256"
            },
            {
              "internalType": "uint256",
              "name": "estipulated_value",
              "type": "uint256"
            },
            {
              "internalType": "uint256",
              "name": "fine_delivery_late",
              "type": "uint256"
            },
            {
              "internalType": "uint256",
              "name": "guarantee_value",
              "type": "uint256"
            }
          ],
          "internalType": "struct FreightDetails",
          "name": "",
          "type": "tuple"
        }
      ],
      "stateMutability": "view",
      "type": "function"
    },
    {
      "inputs": [],
      "name": "getWinningOffer",
      "outputs": [
        {
          "components": [
            {
              "internalType": "address payable",
              "name": "address_offer",
              "type": "address"
            },
            {
              "internalType": "uint256",
              "name": "value",
              "type": "uint256"
            },
            {
              "internalType": "uint256",
              "name": "advance_money",
              "type": "uint256"
            }
          ],
          "internalType": "struct Offer",
          "name": "",
          "type": "tuple"
        }
      ],
      "stateMutability": "view",
      "type": "function"
    },
    {
      "inputs": [],
      "name": "getFreight",
      "outputs": [
        {
          "internalType": "enum FreightSituation",
          "name": "",
          "type": "uint8"
        },
        {
          "components": [
            {
              "components": [
                {
                  "internalType": "string",
                  "name": "country",
                  "type": "string"
                },
                {
                  "internalType": "string",
                  "name": "state",
                  "type": "string"
                },
                {
                  "internalType": "string",
                  "name": "city",
                  "type": "string"
                },
                {
                  "internalType": "string",
                  "name": "street",
                  "type": "string"
                },
                {
                  "internalType": "string",
                  "name": "district",
                  "type": "string"
                },
                {
                  "internalType": "string",
                  "name": "zipcode",
                  "type": "string"
                },
                {
                  "internalType": "string",
                  "name": "number",
                  "type": "string"
                }
              ],
              "internalType": "struct Address",
              "name": "origin",
              "type": "tuple"
            },
            {
              "components": [
                {
                  "internalType": "string",
                  "name": "country",
                  "type": "string"
                },
                {
                  "internalType": "string",
                  "name": "state",
                  "type": "string"
                },
                {
                  "internalType": "string",
                  "name": "city",
                  "type": "string"
                },
                {
                  "internalType": "string",
                  "name": "street",
                  "type": "string"
                },
                {
                  "internalType": "string",
                  "name": "district",
                  "type": "string"
                },
                {
                  "internalType": "string",
                  "name": "zipcode",
                  "type": "string"
                },
                {
                  "internalType": "string",
                  "name": "number",
                  "type": "string"
                }
              ],
              "internalType": "struct Address",
              "name": "destination",
              "type": "tuple"
            },
            {
              "internalType": "uint256",
              "name": "date_limit_get_load",
              "type": "uint256"
            },
            {
              "internalType": "uint256",
              "name": "date_limit_delivery",
              "type": "uint256"
            },
            {
              "internalType": "uint256",
              "name": "estipulated_value",
              "type": "uint256"
            },
            {
              "internalType": "uint256",
              "name": "fine_delivery_late",
              "type": "uint256"
            },
            {
              "internalType": "uint256",
              "name": "guarantee_value",
              "type": "uint256"
            }
          ],
          "internalType": "struct FreightDetails",
          "name": "",
          "type": "tuple"
        },
        {
          "internalType": "address",
          "name": "",
          "type": "address"
        }
      ],
      "stateMutability": "view",
      "type": "function"
    }
  ],
  "bytecode": "0x60806040523480156200001157600080fd5b506000601860006101000a81548160ff021916908360088111156200003b576200003a62000097565b5b02179055506000601860016101000a81548160ff0219169083151502179055506000601860026101000a81548160ff0219169083151502179055506000601860036101000a81548160ff021916908315150217905550620000c6565b7f4e487b7100000000000000000000000000000000000000000000000000000000600052602160045260246000fd5b61532280620000d66000396000f3fe60806040526004361061019c5760003560e01c806357ca3b9b116100ec578063b5ed7bb11161008a578063df1f29ee11610064578063df1f29ee146104f3578063eaf0d9c614610524578063eb62df611461054f578063fd3e50a7146105595761019c565b8063b5ed7bb114610478578063c6397bd8146104a1578063dedf141e146104ca5761019c565b806375135256116100c657806375135256146104015780639171965e1461041857806392a81d1714610445578063abdd10971461046e5761019c565b806357ca3b9b146103aa57806362697ad7146103c157806366b6aff6146103d85761019c565b806322eddc47116101595780633bb24b7d116101335780633bb24b7d146103005780633ee992ee1461032b5780634579268a146103565780635730e799146103935761019c565b806322eddc4714610293578063281c492c146102be57806332a2c5d0146102d55761019c565b8063111be316146101a157806312065fe0146101ca57806313af4035146101f557806316ad95421461021e57806319eb4a901461024f5780631c1fdea51461027c575b600080fd5b3480156101ad57600080fd5b506101c860048036038101906101c39190614084565b610570565b005b3480156101d657600080fd5b506101df61063d565b6040516101ec91906140e6565b60405180910390f35b34801561020157600080fd5b5061021c6004803603810190610217919061415f565b610645565b005b34801561022a57600080fd5b506102336106e1565b6040516102469796959493929190614225565b60405180910390f35b34801561025b57600080fd5b50610264610b0f565b604051610273939291906142c5565b60405180910390f35b34801561028857600080fd5b50610291610b31565b005b34801561029f57600080fd5b506102a8610dd7565b6040516102b59190614373565b60405180910390f35b3480156102ca57600080fd5b506102d3610dee565b005b3480156102e157600080fd5b506102ea611003565b6040516102f7919061439d565b60405180910390f35b34801561030c57600080fd5b5061031561100b565b604051610322919061457a565b60405180910390f35b34801561033757600080fd5b5061034061187b565b60405161034d91906146ae565b60405180910390f35b34801561036257600080fd5b5061037d600480360381019061037891906146d0565b611944565b60405161038a919061473f565b60405180910390f35b34801561039f57600080fd5b506103a86119ea565b005b3480156103b657600080fd5b506103bf611be4565b005b3480156103cd57600080fd5b506103d6611f16565b005b3480156103e457600080fd5b506103ff60048036038101906103fa919061475a565b6120ef565b005b34801561040d57600080fd5b506104166122ea565b005b34801561042457600080fd5b5061042d6124e4565b60405161043c939291906147ad565b60405180910390f35b34801561045157600080fd5b5061046c60048036038101906104679190614920565b612d92565b005b610476612f10565b005b34801561048457600080fd5b5061049f600480360381019061049a91906146d0565b613145565b005b3480156104ad57600080fd5b506104c860048036038101906104c39190614920565b6133bd565b005b3480156104d657600080fd5b506104f160048036038101906104ec9190614a86565b61353b565b005b3480156104ff57600080fd5b506105086135fd565b60405161051b9796959493929190614225565b60405180910390f35b34801561053057600080fd5b50610539613a2b565b604051610546919061473f565b60405180910390f35b610557613aaf565b005b34801561056557600080fd5b5061056e613ce9565b005b60008054906101000a900473ffffffffffffffffffffffffffffffffffffffff1673ffffffffffffffffffffffffffffffffffffffff163373ffffffffffffffffffffffffffffffffffffffff16146040518060600160405280603681526020016152476036913990610619576040517f08c379a00000000000000000000000000000000000000000000000000000000081526004016106109190614ac6565b60405180910390fd5b50826001601001819055508160016011018190555080600160120181905550505050565b600047905090565b600073ffffffffffffffffffffffffffffffffffffffff1660008054906101000a900473ffffffffffffffffffffffffffffffffffffffff1673ffffffffffffffffffffffffffffffffffffffff161461069e57600080fd5b806000806101000a81548173ffffffffffffffffffffffffffffffffffffffff021916908373ffffffffffffffffffffffffffffffffffffffff16021790555050565b6060806060806060806060600160070160000160016007016001016001600701600201600160070160030160016007016004016001600701600501600160070160060186805461073090614b17565b80601f016020809104026020016040519081016040528092919081815260200182805461075c90614b17565b80156107a95780601f1061077e576101008083540402835291602001916107a9565b820191906000526020600020905b81548152906001019060200180831161078c57829003601f168201915b505050505096508580546107bc90614b17565b80601f01602080910402602001604051908101604052809291908181526020018280546107e890614b17565b80156108355780601f1061080a57610100808354040283529160200191610835565b820191906000526020600020905b81548152906001019060200180831161081857829003601f168201915b5050505050955084805461084890614b17565b80601f016020809104026020016040519081016040528092919081815260200182805461087490614b17565b80156108c15780601f10610896576101008083540402835291602001916108c1565b820191906000526020600020905b8154815290600101906020018083116108a457829003601f168201915b505050505094508380546108d490614b17565b80601f016020809104026020016040519081016040528092919081815260200182805461090090614b17565b801561094d5780601f106109225761010080835404028352916020019161094d565b820191906000526020600020905b81548152906001019060200180831161093057829003601f168201915b5050505050935082805461096090614b17565b80601f016020809104026020016040519081016040528092919081815260200182805461098c90614b17565b80156109d95780601f106109ae576101008083540402835291602001916109d9565b820191906000526020600020905b8154815290600101906020018083116109bc57829003601f168201915b505050505092508180546109ec90614b17565b80601f0160208091040260200160405190810160405280929190818152602001828054610a1890614b17565b8015610a655780601f10610a3a57610100808354040283529160200191610a65565b820191906000526020600020905b815481529060010190602001808311610a4857829003601f168201915b50505050509150808054610a7890614b17565b80601f0160208091040260200160405190810160405280929190818152602001828054610aa490614b17565b8015610af15780601f10610ac657610100808354040283529160200191610af1565b820191906000526020600020905b815481529060010190602001808311610ad457829003601f168201915b50505050509050965096509650965096509650965090919293949596565b6000806000600160100154600160110154600160120154925092509250909192565b60008054906101000a900473ffffffffffffffffffffffffffffffffffffffff1673ffffffffffffffffffffffffffffffffffffffff163373ffffffffffffffffffffffffffffffffffffffff16146040518060600160405280603681526020016152476036913990610bda576040517f08c379a0000000000000000000000000000000000000000000000000000000008152600401610bd19190614ac6565b60405180910390fd5b5060036008811115610bef57610bee6142fc565b5b601860009054906101000a900460ff166008811115610c1157610c106142fc565b5b1480610c50575060046008811115610c2c57610c2b6142fc565b5b601860009054906101000a900460ff166008811115610c4e57610c4d6142fc565b5b145b6040518060600160405280603d81526020016152b0603d913990610caa576040517f08c379a0000000000000000000000000000000000000000000000000000000008152600401610ca19190614ac6565b60405180910390fd5b506001600f01544211610cbc57600080fd5b601860029054906101000a900460ff16156040518060600160405280603281526020016151dc6032913990610d27576040517f08c379a0000000000000000000000000000000000000000000000000000000008152600401610d1e9190614ac6565b60405180910390fd5b506007601860006101000a81548160ff02191690836008811115610d4e57610d4d6142fc565b5b021790555060008054906101000a900473ffffffffffffffffffffffffffffffffffffffff1673ffffffffffffffffffffffffffffffffffffffff166108fc479081150290604051600060405180830381858888f19350505050158015610db9573d6000803e3d6000fd5b506001601860026101000a81548160ff021916908315150217905550565b6000601860009054906101000a900460ff16905090565b60008054906101000a900473ffffffffffffffffffffffffffffffffffffffff1673ffffffffffffffffffffffffffffffffffffffff163373ffffffffffffffffffffffffffffffffffffffff16146040518060600160405280603681526020016152476036913990610e97576040517f08c379a0000000000000000000000000000000000000000000000000000000008152600401610e8e9190614ac6565b60405180910390fd5b5060066008811115610eac57610eab6142fc565b5b601860009054906101000a900460ff166008811115610ece57610ecd6142fc565b5b146040518060600160405280603d81526020016152b0603d913990610f29576040517f08c379a0000000000000000000000000000000000000000000000000000000008152600401610f209190614ac6565b60405180910390fd5b50601860039054906101000a900460ff1615610f7a576040517f08c379a0000000000000000000000000000000000000000000000000000000008152600401610f7190614bbb565b60405180910390fd5b60008054906101000a900473ffffffffffffffffffffffffffffffffffffffff1673ffffffffffffffffffffffffffffffffffffffff166108fc6001601101549081150290604051600060405180830381858888f19350505050158015610fe5573d6000803e3d6000fd5b506001601860036101000a81548160ff021916908315150217905550565b600030905090565b611013613eda565b60016040518060e0016040529081600082016040518060e001604052908160008201805461104090614b17565b80601f016020809104026020016040519081016040528092919081815260200182805461106c90614b17565b80156110b95780601f1061108e576101008083540402835291602001916110b9565b820191906000526020600020905b81548152906001019060200180831161109c57829003601f168201915b505050505081526020016001820180546110d290614b17565b80601f01602080910402602001604051908101604052809291908181526020018280546110fe90614b17565b801561114b5780601f106111205761010080835404028352916020019161114b565b820191906000526020600020905b81548152906001019060200180831161112e57829003601f168201915b5050505050815260200160028201805461116490614b17565b80601f016020809104026020016040519081016040528092919081815260200182805461119090614b17565b80156111dd5780601f106111b2576101008083540402835291602001916111dd565b820191906000526020600020905b8154815290600101906020018083116111c057829003601f168201915b505050505081526020016003820180546111f690614b17565b80601f016020809104026020016040519081016040528092919081815260200182805461122290614b17565b801561126f5780601f106112445761010080835404028352916020019161126f565b820191906000526020600020905b81548152906001019060200180831161125257829003601f168201915b5050505050815260200160048201805461128890614b17565b80601f01602080910402602001604051908101604052809291908181526020018280546112b490614b17565b80156113015780601f106112d657610100808354040283529160200191611301565b820191906000526020600020905b8154815290600101906020018083116112e457829003601f168201915b5050505050815260200160058201805461131a90614b17565b80601f016020809104026020016040519081016040528092919081815260200182805461134690614b17565b80156113935780601f1061136857610100808354040283529160200191611393565b820191906000526020600020905b81548152906001019060200180831161137657829003601f168201915b505050505081526020016006820180546113ac90614b17565b80601f01602080910402602001604051908101604052809291908181526020018280546113d890614b17565b80156114255780601f106113fa57610100808354040283529160200191611425565b820191906000526020600020905b81548152906001019060200180831161140857829003601f168201915b5050505050815250508152602001600782016040518060e001604052908160008201805461145290614b17565b80601f016020809104026020016040519081016040528092919081815260200182805461147e90614b17565b80156114cb5780601f106114a0576101008083540402835291602001916114cb565b820191906000526020600020905b8154815290600101906020018083116114ae57829003601f168201915b505050505081526020016001820180546114e490614b17565b80601f016020809104026020016040519081016040528092919081815260200182805461151090614b17565b801561155d5780601f106115325761010080835404028352916020019161155d565b820191906000526020600020905b81548152906001019060200180831161154057829003601f168201915b5050505050815260200160028201805461157690614b17565b80601f01602080910402602001604051908101604052809291908181526020018280546115a290614b17565b80156115ef5780601f106115c4576101008083540402835291602001916115ef565b820191906000526020600020905b8154815290600101906020018083116115d257829003601f168201915b5050505050815260200160038201805461160890614b17565b80601f016020809104026020016040519081016040528092919081815260200182805461163490614b17565b80156116815780601f1061165657610100808354040283529160200191611681565b820191906000526020600020905b81548152906001019060200180831161166457829003601f168201915b5050505050815260200160048201805461169a90614b17565b80601f01602080910402602001604051908101604052809291908181526020018280546116c690614b17565b80156117135780601f106116e857610100808354040283529160200191611713565b820191906000526020600020905b8154815290600101906020018083116116f657829003601f168201915b5050505050815260200160058201805461172c90614b17565b80601f016020809104026020016040519081016040528092919081815260200182805461175890614b17565b80156117a55780601f1061177a576101008083540402835291602001916117a5565b820191906000526020600020905b81548152906001019060200180831161178857829003601f168201915b505050505081526020016006820180546117be90614b17565b80601f01602080910402602001604051908101604052809291908181526020018280546117ea90614b17565b80156118375780601f1061180c57610100808354040283529160200191611837565b820191906000526020600020905b81548152906001019060200180831161181a57829003601f168201915b5050505050815250508152602001600e8201548152602001600f82015481526020016010820154815260200160118201548152602001601282015481525050905090565b60606017805480602002602001604051908101604052809291908181526020016000905b8282101561193b57838290600052602060002090600302016040518060600160405290816000820160009054906101000a900473ffffffffffffffffffffffffffffffffffffffff1673ffffffffffffffffffffffffffffffffffffffff1673ffffffffffffffffffffffffffffffffffffffff168152602001600182015481526020016002820154815250508152602001906001019061189f565b50505050905090565b61194c613f23565b601782815481106119605761195f614bdb565b5b90600052602060002090600302016040518060600160405290816000820160009054906101000a900473ffffffffffffffffffffffffffffffffffffffff1673ffffffffffffffffffffffffffffffffffffffff1673ffffffffffffffffffffffffffffffffffffffff168152602001600182015481526020016002820154815250509050919050565b601460000160009054906101000a900473ffffffffffffffffffffffffffffffffffffffff1673ffffffffffffffffffffffffffffffffffffffff163373ffffffffffffffffffffffffffffffffffffffff161460405180606001604052806039815260200161520e6039913990611a98576040517f08c379a0000000000000000000000000000000000000000000000000000000008152600401611a8f9190614ac6565b60405180910390fd5b5060036008811115611aad57611aac6142fc565b5b601860009054906101000a900460ff166008811115611acf57611ace6142fc565b5b10158015611b10575060056008811115611aec57611aeb6142fc565b5b601860009054906101000a900460ff166008811115611b0e57611b0d6142fc565b5b105b6040518060600160405280603d81526020016152b0603d913990611b6a576040517f08c379a0000000000000000000000000000000000000000000000000000000008152600401611b619190614ac6565b60405180910390fd5b506003601860006101000a81548160ff02191690836008811115611b9157611b906142fc565b5b02179055503373ffffffffffffffffffffffffffffffffffffffff167f0738f4da267a110d810e6e89fc59e46be6de0c37b1d5cd559b267dc3688e74e0604051611bda90614c7c565b60405180910390a2565b601460000160009054906101000a900473ffffffffffffffffffffffffffffffffffffffff1673ffffffffffffffffffffffffffffffffffffffff163373ffffffffffffffffffffffffffffffffffffffff161460405180606001604052806039815260200161520e6039913990611c92576040517f08c379a0000000000000000000000000000000000000000000000000000000008152600401611c899190614ac6565b60405180910390fd5b5060056008811115611ca757611ca66142fc565b5b601860009054906101000a900460ff166008811115611cc957611cc86142fc565b5b1480611d08575060066008811115611ce457611ce36142fc565b5b601860009054906101000a900460ff166008811115611d0657611d056142fc565b5b145b6040518060600160405280603d81526020016152b0603d913990611d62576040517f08c379a0000000000000000000000000000000000000000000000000000000008152600401611d599190614ac6565b60405180910390fd5b50601860029054906101000a900460ff16156040518060600160405280603281526020016151dc6032913990611dce576040517f08c379a0000000000000000000000000000000000000000000000000000000008152600401611dc59190614ac6565b60405180910390fd5b5060056008811115611de357611de26142fc565b5b601860009054906101000a900460ff166008811115611e0557611e046142fc565b5b1415611e7c57601460000160009054906101000a900473ffffffffffffffffffffffffffffffffffffffff1673ffffffffffffffffffffffffffffffffffffffff166108fc479081150290604051600060405180830381858888f19350505050158015611e76573d6000803e3d6000fd5b50611ef9565b601460000160009054906101000a900473ffffffffffffffffffffffffffffffffffffffff1673ffffffffffffffffffffffffffffffffffffffff166108fc60016011015447611ecc9190614ccb565b9081150290604051600060405180830381858888f19350505050158015611ef7573d6000803e3d6000fd5b505b6001601860026101000a81548160ff021916908315150217905550565b601460000160009054906101000a900473ffffffffffffffffffffffffffffffffffffffff1673ffffffffffffffffffffffffffffffffffffffff163373ffffffffffffffffffffffffffffffffffffffff161460405180606001604052806039815260200161520e6039913990611fc4576040517f08c379a0000000000000000000000000000000000000000000000000000000008152600401611fbb9190614ac6565b60405180910390fd5b50601860019054906101000a900460ff1615612015576040517f08c379a000000000000000000000000000000000000000000000000000000000815260040161200c90614d71565b60405180910390fd5b601460000160009054906101000a900473ffffffffffffffffffffffffffffffffffffffff1673ffffffffffffffffffffffffffffffffffffffff166108fc6014600201549081150290604051600060405180830381858888f19350505050158015612085573d6000803e3d6000fd5b506001601860016101000a81548160ff0219169083151502179055503373ffffffffffffffffffffffffffffffffffffffff167f0738f4da267a110d810e6e89fc59e46be6de0c37b1d5cd559b267dc3688e74e06040516120e590614e03565b60405180910390a2565b60006008811115612103576121026142fc565b5b601860009054906101000a900460ff166008811115612125576121246142fc565b5b146040518060600160405280603d81526020016152b0603d913990612180576040517f08c379a00000000000000000000000000000000000000000000000000000000081526004016121779190614ac6565b60405180910390fd5b5060008054906101000a900473ffffffffffffffffffffffffffffffffffffffff1673ffffffffffffffffffffffffffffffffffffffff168173ffffffffffffffffffffffffffffffffffffffff16141560405180606001604052806033815260200161527d603391399061222b576040517f08c379a00000000000000000000000000000000000000000000000000000000081526004016122229190614ac6565b60405180910390fd5b50601760405180606001604052808373ffffffffffffffffffffffffffffffffffffffff16815260200185815260200184815250908060018154018082558091505060019003906000526020600020906003020160009091909190915060008201518160000160006101000a81548173ffffffffffffffffffffffffffffffffffffffff021916908373ffffffffffffffffffffffffffffffffffffffff16021790555060208201518160010155604082015181600201555050505050565b601460000160009054906101000a900473ffffffffffffffffffffffffffffffffffffffff1673ffffffffffffffffffffffffffffffffffffffff163373ffffffffffffffffffffffffffffffffffffffff161460405180606001604052806039815260200161520e6039913990612398576040517f08c379a000000000000000000000000000000000000000000000000000000000815260040161238f9190614ac6565b60405180910390fd5b50600360088111156123ad576123ac6142fc565b5b601860009054906101000a900460ff1660088111156123cf576123ce6142fc565b5b101580156124105750600560088111156123ec576123eb6142fc565b5b601860009054906101000a900460ff16600881111561240e5761240d6142fc565b5b105b6040518060600160405280603d81526020016152b0603d91399061246a576040517f08c379a00000000000000000000000000000000000000000000000000000000081526004016124619190614ac6565b60405180910390fd5b506004601860006101000a81548160ff02191690836008811115612491576124906142fc565b5b02179055503373ffffffffffffffffffffffffffffffffffffffff167f0738f4da267a110d810e6e89fc59e46be6de0c37b1d5cd559b267dc3688e74e06040516124da90614e95565b60405180910390a2565b60006124ee613eda565b6000601860009054906101000a900460ff16600160008054906101000a900473ffffffffffffffffffffffffffffffffffffffff16816040518060e0016040529081600082016040518060e001604052908160008201805461254f90614b17565b80601f016020809104026020016040519081016040528092919081815260200182805461257b90614b17565b80156125c85780601f1061259d576101008083540402835291602001916125c8565b820191906000526020600020905b8154815290600101906020018083116125ab57829003601f168201915b505050505081526020016001820180546125e190614b17565b80601f016020809104026020016040519081016040528092919081815260200182805461260d90614b17565b801561265a5780601f1061262f5761010080835404028352916020019161265a565b820191906000526020600020905b81548152906001019060200180831161263d57829003601f168201915b5050505050815260200160028201805461267390614b17565b80601f016020809104026020016040519081016040528092919081815260200182805461269f90614b17565b80156126ec5780601f106126c1576101008083540402835291602001916126ec565b820191906000526020600020905b8154815290600101906020018083116126cf57829003601f168201915b5050505050815260200160038201805461270590614b17565b80601f016020809104026020016040519081016040528092919081815260200182805461273190614b17565b801561277e5780601f106127535761010080835404028352916020019161277e565b820191906000526020600020905b81548152906001019060200180831161276157829003601f168201915b5050505050815260200160048201805461279790614b17565b80601f01602080910402602001604051908101604052809291908181526020018280546127c390614b17565b80156128105780601f106127e557610100808354040283529160200191612810565b820191906000526020600020905b8154815290600101906020018083116127f357829003601f168201915b5050505050815260200160058201805461282990614b17565b80601f016020809104026020016040519081016040528092919081815260200182805461285590614b17565b80156128a25780601f10612877576101008083540402835291602001916128a2565b820191906000526020600020905b81548152906001019060200180831161288557829003601f168201915b505050505081526020016006820180546128bb90614b17565b80601f01602080910402602001604051908101604052809291908181526020018280546128e790614b17565b80156129345780601f1061290957610100808354040283529160200191612934565b820191906000526020600020905b81548152906001019060200180831161291757829003601f168201915b5050505050815250508152602001600782016040518060e001604052908160008201805461296190614b17565b80601f016020809104026020016040519081016040528092919081815260200182805461298d90614b17565b80156129da5780601f106129af576101008083540402835291602001916129da565b820191906000526020600020905b8154815290600101906020018083116129bd57829003601f168201915b505050505081526020016001820180546129f390614b17565b80601f0160208091040260200160405190810160405280929190818152602001828054612a1f90614b17565b8015612a6c5780601f10612a4157610100808354040283529160200191612a6c565b820191906000526020600020905b815481529060010190602001808311612a4f57829003601f168201915b50505050508152602001600282018054612a8590614b17565b80601f0160208091040260200160405190810160405280929190818152602001828054612ab190614b17565b8015612afe5780601f10612ad357610100808354040283529160200191612afe565b820191906000526020600020905b815481529060010190602001808311612ae157829003601f168201915b50505050508152602001600382018054612b1790614b17565b80601f0160208091040260200160405190810160405280929190818152602001828054612b4390614b17565b8015612b905780601f10612b6557610100808354040283529160200191612b90565b820191906000526020600020905b815481529060010190602001808311612b7357829003601f168201915b50505050508152602001600482018054612ba990614b17565b80601f0160208091040260200160405190810160405280929190818152602001828054612bd590614b17565b8015612c225780601f10612bf757610100808354040283529160200191612c22565b820191906000526020600020905b815481529060010190602001808311612c0557829003601f168201915b50505050508152602001600582018054612c3b90614b17565b80601f0160208091040260200160405190810160405280929190818152602001828054612c6790614b17565b8015612cb45780601f10612c8957610100808354040283529160200191612cb4565b820191906000526020600020905b815481529060010190602001808311612c9757829003601f168201915b50505050508152602001600682018054612ccd90614b17565b80601f0160208091040260200160405190810160405280929190818152602001828054612cf990614b17565b8015612d465780601f10612d1b57610100808354040283529160200191612d46565b820191906000526020600020905b815481529060010190602001808311612d2957829003601f168201915b5050505050815250508152602001600e8201548152602001600f820154815260200160108201548152602001601182015481526020016012820154815250509150925092509250909192565b60008054906101000a900473ffffffffffffffffffffffffffffffffffffffff1673ffffffffffffffffffffffffffffffffffffffff163373ffffffffffffffffffffffffffffffffffffffff16146040518060600160405280603681526020016152476036913990612e3b576040517f08c379a0000000000000000000000000000000000000000000000000000000008152600401612e329190614ac6565b60405180910390fd5b508660016007016000019080519060200190612e58929190613f5a565b508560016007016001019080519060200190612e75929190613f5a565b508460016007016002019080519060200190612e92929190613f5a565b508360016007016003019080519060200190612eaf929190613f5a565b508260016007016004019080519060200190612ecc929190613f5a565b508160016007016005019080519060200190612ee9929190613f5a565b508060016007016006019080519060200190612f06929190613f5a565b5050505050505050565b60008054906101000a900473ffffffffffffffffffffffffffffffffffffffff1673ffffffffffffffffffffffffffffffffffffffff163373ffffffffffffffffffffffffffffffffffffffff16146040518060600160405280603681526020016152476036913990612fb9576040517f08c379a0000000000000000000000000000000000000000000000000000000008152600401612fb09190614ac6565b60405180910390fd5b5060026008811115612fce57612fcd6142fc565b5b601860009054906101000a900460ff166008811115612ff057612fef6142fc565b5b146040518060600160405280603d81526020016152b0603d91399061304b576040517f08c379a00000000000000000000000000000000000000000000000000000000081526004016130429190614ac6565b60405180910390fd5b5060146001015434146040518060400160405280601881526020017f5468652076616c7565732061726520646966666572656e740000000000000000815250906130cb576040517f08c379a00000000000000000000000000000000000000000000000000000000081526004016130c29190614ac6565b60405180910390fd5b506003601860006101000a81548160ff021916908360088111156130f2576130f16142fc565b5b02179055503373ffffffffffffffffffffffffffffffffffffffff167f0738f4da267a110d810e6e89fc59e46be6de0c37b1d5cd559b267dc3688e74e060405161313b90614f4d565b60405180910390a2565b60008054906101000a900473ffffffffffffffffffffffffffffffffffffffff1673ffffffffffffffffffffffffffffffffffffffff163373ffffffffffffffffffffffffffffffffffffffff161460405180606001604052806036815260200161524760369139906131ee576040517f08c379a00000000000000000000000000000000000000000000000000000000081526004016131e59190614ac6565b60405180910390fd5b5060006008811115613203576132026142fc565b5b601860009054906101000a900460ff166008811115613225576132246142fc565b5b146040518060600160405280603d81526020016152b0603d913990613280576040517f08c379a00000000000000000000000000000000000000000000000000000000081526004016132779190614ac6565b60405180910390fd5b506017818154811061329557613294614bdb565b5b906000526020600020906003020160146000820160009054906101000a900473ffffffffffffffffffffffffffffffffffffffff168160000160006101000a81548173ffffffffffffffffffffffffffffffffffffffff021916908373ffffffffffffffffffffffffffffffffffffffff16021790555060018201548160010155600282015481600201559050506001601860006101000a81548160ff02191690836008811115613349576133486142fc565b5b021790555060008054906101000a900473ffffffffffffffffffffffffffffffffffffffff1673ffffffffffffffffffffffffffffffffffffffff167f0738f4da267a110d810e6e89fc59e46be6de0c37b1d5cd559b267dc3688e74e06040516133b290614fdf565b60405180910390a250565b60008054906101000a900473ffffffffffffffffffffffffffffffffffffffff1673ffffffffffffffffffffffffffffffffffffffff163373ffffffffffffffffffffffffffffffffffffffff16146040518060600160405280603681526020016152476036913990613466576040517f08c379a000000000000000000000000000000000000000000000000000000000815260040161345d9190614ac6565b60405180910390fd5b508660016000016000019080519060200190613483929190613f5a565b5085600160000160010190805190602001906134a0929190613f5a565b5084600160000160020190805190602001906134bd929190613f5a565b5083600160000160030190805190602001906134da929190613f5a565b5082600160000160040190805190602001906134f7929190613f5a565b508160016000016005019080519060200190613514929190613f5a565b508060016000016006019080519060200190613531929190613f5a565b5050505050505050565b60008054906101000a900473ffffffffffffffffffffffffffffffffffffffff1673ffffffffffffffffffffffffffffffffffffffff163373ffffffffffffffffffffffffffffffffffffffff161460405180606001604052806036815260200161524760369139906135e4576040517f08c379a00000000000000000000000000000000000000000000000000000000081526004016135db9190614ac6565b60405180910390fd5b50816001600e0181905550806001600f01819055505050565b6060806060806060806060600160000160000160016000016001016001600001600201600160000160030160016000016004016001600001600501600160000160060186805461364c90614b17565b80601f016020809104026020016040519081016040528092919081815260200182805461367890614b17565b80156136c55780601f1061369a576101008083540402835291602001916136c5565b820191906000526020600020905b8154815290600101906020018083116136a857829003601f168201915b505050505096508580546136d890614b17565b80601f016020809104026020016040519081016040528092919081815260200182805461370490614b17565b80156137515780601f1061372657610100808354040283529160200191613751565b820191906000526020600020905b81548152906001019060200180831161373457829003601f168201915b5050505050955084805461376490614b17565b80601f016020809104026020016040519081016040528092919081815260200182805461379090614b17565b80156137dd5780601f106137b2576101008083540402835291602001916137dd565b820191906000526020600020905b8154815290600101906020018083116137c057829003601f168201915b505050505094508380546137f090614b17565b80601f016020809104026020016040519081016040528092919081815260200182805461381c90614b17565b80156138695780601f1061383e57610100808354040283529160200191613869565b820191906000526020600020905b81548152906001019060200180831161384c57829003601f168201915b5050505050935082805461387c90614b17565b80601f01602080910402602001604051908101604052809291908181526020018280546138a890614b17565b80156138f55780601f106138ca576101008083540402835291602001916138f5565b820191906000526020600020905b8154815290600101906020018083116138d857829003601f168201915b5050505050925081805461390890614b17565b80601f016020809104026020016040519081016040528092919081815260200182805461393490614b17565b80156139815780601f1061395657610100808354040283529160200191613981565b820191906000526020600020905b81548152906001019060200180831161396457829003601f168201915b5050505050915080805461399490614b17565b80601f01602080910402602001604051908101604052809291908181526020018280546139c090614b17565b8015613a0d5780601f106139e257610100808354040283529160200191613a0d565b820191906000526020600020905b8154815290600101906020018083116139f057829003601f168201915b50505050509050965096509650965096509650965090919293949596565b613a33613f23565b60146040518060600160405290816000820160009054906101000a900473ffffffffffffffffffffffffffffffffffffffff1673ffffffffffffffffffffffffffffffffffffffff1673ffffffffffffffffffffffffffffffffffffffff16815260200160018201548152602001600282015481525050905090565b601460000160009054906101000a900473ffffffffffffffffffffffffffffffffffffffff1673ffffffffffffffffffffffffffffffffffffffff163373ffffffffffffffffffffffffffffffffffffffff161460405180606001604052806039815260200161520e6039913990613b5d576040517f08c379a0000000000000000000000000000000000000000000000000000000008152600401613b549190614ac6565b60405180910390fd5b5060016012015434146040518060400160405280601881526020017f5468652076616c7565732061726520646966666572656e74000000000000000081525090613bdd576040517f08c379a0000000000000000000000000000000000000000000000000000000008152600401613bd49190614ac6565b60405180910390fd5b5060016008811115613bf257613bf16142fc565b5b601860009054906101000a900460ff166008811115613c1457613c136142fc565b5b146040518060600160405280603d81526020016152b0603d913990613c6f576040517f08c379a0000000000000000000000000000000000000000000000000000000008152600401613c669190614ac6565b60405180910390fd5b506002601860006101000a81548160ff02191690836008811115613c9657613c956142fc565b5b02179055503373ffffffffffffffffffffffffffffffffffffffff167f0738f4da267a110d810e6e89fc59e46be6de0c37b1d5cd559b267dc3688e74e0604051613cdf90615097565b60405180910390a2565b601460000160009054906101000a900473ffffffffffffffffffffffffffffffffffffffff1673ffffffffffffffffffffffffffffffffffffffff163373ffffffffffffffffffffffffffffffffffffffff161460405180606001604052806039815260200161520e6039913990613d97576040517f08c379a0000000000000000000000000000000000000000000000000000000008152600401613d8e9190614ac6565b60405180910390fd5b5060036008811115613dac57613dab6142fc565b5b601860009054906101000a900460ff166008811115613dce57613dcd6142fc565b5b14613dd857600080fd5b6001600f01544211613e60576005601860006101000a81548160ff02191690836008811115613e0a57613e096142fc565b5b02179055503373ffffffffffffffffffffffffffffffffffffffff167f0738f4da267a110d810e6e89fc59e46be6de0c37b1d5cd559b267dc3688e74e0604051613e5390615129565b60405180910390a2613ed8565b6006601860006101000a81548160ff02191690836008811115613e8657613e856142fc565b5b02179055503373ffffffffffffffffffffffffffffffffffffffff167f0738f4da267a110d810e6e89fc59e46be6de0c37b1d5cd559b267dc3688e74e0604051613ecf906151bb565b60405180910390a25b565b6040518060e00160405280613eed613fe0565b8152602001613efa613fe0565b815260200160008152602001600081526020016000815260200160008152602001600081525090565b6040518060600160405280600073ffffffffffffffffffffffffffffffffffffffff16815260200160008152602001600081525090565b828054613f6690614b17565b90600052602060002090601f016020900481019282613f885760008555613fcf565b82601f10613fa157805160ff1916838001178555613fcf565b82800160010185558215613fcf579182015b82811115613fce578251825591602001919060010190613fb3565b5b509050613fdc919061401d565b5090565b6040518060e00160405280606081526020016060815260200160608152602001606081526020016060815260200160608152602001606081525090565b5b8082111561403657600081600090555060010161401e565b5090565b6000604051905090565b600080fd5b600080fd5b6000819050919050565b6140618161404e565b811461406c57600080fd5b50565b60008135905061407e81614058565b92915050565b60008060006060848603121561409d5761409c614044565b5b60006140ab8682870161406f565b93505060206140bc8682870161406f565b92505060406140cd8682870161406f565b9150509250925092565b6140e08161404e565b82525050565b60006020820190506140fb60008301846140d7565b92915050565b600073ffffffffffffffffffffffffffffffffffffffff82169050919050565b600061412c82614101565b9050919050565b61413c81614121565b811461414757600080fd5b50565b60008135905061415981614133565b92915050565b60006020828403121561417557614174614044565b5b60006141838482850161414a565b91505092915050565b600081519050919050565b600082825260208201905092915050565b60005b838110156141c65780820151818401526020810190506141ab565b838111156141d5576000848401525b50505050565b6000601f19601f8301169050919050565b60006141f78261418c565b6142018185614197565b93506142118185602086016141a8565b61421a816141db565b840191505092915050565b600060e082019050818103600083015261423f818a6141ec565b9050818103602083015261425381896141ec565b9050818103604083015261426781886141ec565b9050818103606083015261427b81876141ec565b9050818103608083015261428f81866141ec565b905081810360a08301526142a381856141ec565b905081810360c08301526142b781846141ec565b905098975050505050505050565b60006060820190506142da60008301866140d7565b6142e760208301856140d7565b6142f460408301846140d7565b949350505050565b7f4e487b7100000000000000000000000000000000000000000000000000000000600052602160045260246000fd5b6009811061433c5761433b6142fc565b5b50565b600081905061434d8261432b565b919050565b600061435d8261433f565b9050919050565b61436d81614352565b82525050565b60006020820190506143886000830184614364565b92915050565b61439781614121565b82525050565b60006020820190506143b2600083018461438e565b92915050565b600082825260208201905092915050565b60006143d48261418c565b6143de81856143b8565b93506143ee8185602086016141a8565b6143f7816141db565b840191505092915050565b600060e083016000830151848203600086015261441f82826143c9565b9150506020830151848203602086015261443982826143c9565b9150506040830151848203604086015261445382826143c9565b9150506060830151848203606086015261446d82826143c9565b9150506080830151848203608086015261448782826143c9565b91505060a083015184820360a08601526144a182826143c9565b91505060c083015184820360c08601526144bb82826143c9565b9150508091505092915050565b6144d18161404e565b82525050565b600060e08301600083015184820360008601526144f48282614402565b9150506020830151848203602086015261450e8282614402565b915050604083015161452360408601826144c8565b50606083015161453660608601826144c8565b50608083015161454960808601826144c8565b5060a083015161455c60a08601826144c8565b5060c083015161456f60c08601826144c8565b508091505092915050565b6000602082019050818103600083015261459481846144d7565b905092915050565b600081519050919050565b600082825260208201905092915050565b6000819050602082019050919050565b60006145d382614101565b9050919050565b6145e3816145c8565b82525050565b6060820160008201516145ff60008501826145da565b50602082015161461260208501826144c8565b50604082015161462560408501826144c8565b50505050565b600061463783836145e9565b60608301905092915050565b6000602082019050919050565b600061465b8261459c565b61466581856145a7565b9350614670836145b8565b8060005b838110156146a1578151614688888261462b565b975061469383614643565b925050600181019050614674565b5085935050505092915050565b600060208201905081810360008301526146c88184614650565b905092915050565b6000602082840312156146e6576146e5614044565b5b60006146f48482850161406f565b91505092915050565b60608201600082015161471360008501826145da565b50602082015161472660208501826144c8565b50604082015161473960408501826144c8565b50505050565b600060608201905061475460008301846146fd565b92915050565b60008060006060848603121561477357614772614044565b5b60006147818682870161406f565b93505060206147928682870161406f565b92505060406147a38682870161414a565b9150509250925092565b60006060820190506147c26000830186614364565b81810360208301526147d481856144d7565b90506147e3604083018461438e565b949350505050565b600080fd5b600080fd5b7f4e487b7100000000000000000000000000000000000000000000000000000000600052604160045260246000fd5b61482d826141db565b810181811067ffffffffffffffff8211171561484c5761484b6147f5565b5b80604052505050565b600061485f61403a565b905061486b8282614824565b919050565b600067ffffffffffffffff82111561488b5761488a6147f5565b5b614894826141db565b9050602081019050919050565b82818337600083830152505050565b60006148c36148be84614870565b614855565b9050828152602081018484840111156148df576148de6147f0565b5b6148ea8482856148a1565b509392505050565b600082601f830112614907576149066147eb565b5b81356149178482602086016148b0565b91505092915050565b600080600080600080600060e0888a03121561493f5761493e614044565b5b600088013567ffffffffffffffff81111561495d5761495c614049565b5b6149698a828b016148f2565b975050602088013567ffffffffffffffff81111561498a57614989614049565b5b6149968a828b016148f2565b965050604088013567ffffffffffffffff8111156149b7576149b6614049565b5b6149c38a828b016148f2565b955050606088013567ffffffffffffffff8111156149e4576149e3614049565b5b6149f08a828b016148f2565b945050608088013567ffffffffffffffff811115614a1157614a10614049565b5b614a1d8a828b016148f2565b93505060a088013567ffffffffffffffff811115614a3e57614a3d614049565b5b614a4a8a828b016148f2565b92505060c088013567ffffffffffffffff811115614a6b57614a6a614049565b5b614a778a828b016148f2565b91505092959891949750929550565b60008060408385031215614a9d57614a9c614044565b5b6000614aab8582860161406f565b9250506020614abc8582860161406f565b9150509250929050565b60006020820190508181036000830152614ae081846141ec565b905092915050565b7f4e487b7100000000000000000000000000000000000000000000000000000000600052602260045260246000fd5b60006002820490506001821680614b2f57607f821691505b60208210811415614b4357614b42614ae8565b5b50919050565b7f5468652064656c6976657279206c6174652066696e652068616420616c72616460008201527f79206265656e2074616b656e0000000000000000000000000000000000000000602082015250565b6000614ba5602c83614197565b9150614bb082614b49565b604082019050919050565b60006020820190508181036000830152614bd481614b98565b9050919050565b7f4e487b7100000000000000000000000000000000000000000000000000000000600052603260045260246000fd5b7f546865207472616e73706f72746572206973206f6e207468652063617272696160008201527f676520616761696e000000000000000000000000000000000000000000000000602082015250565b6000614c66602883614197565b9150614c7182614c0a565b604082019050919050565b60006020820190508181036000830152614c9581614c59565b9050919050565b7f4e487b7100000000000000000000000000000000000000000000000000000000600052601160045260246000fd5b6000614cd68261404e565b9150614ce18361404e565b925082821015614cf457614cf3614c9c565b5b828203905092915050565b7f546865206163636f756e742068616420616c726561647920776974686472617760008201527f6e2074686520616476616e6365206d6f6e657900000000000000000000000000602082015250565b6000614d5b603383614197565b9150614d6682614cff565b604082019050919050565b60006020820190508181036000830152614d8a81614d4e565b9050919050565b7f546865207472616e73706f72746572206861642077697468647261776e20746860008201527f6520616476616e6365206d6f6e65790000000000000000000000000000000000602082015250565b6000614ded602f83614197565b9150614df882614d91565b604082019050919050565b60006020820190508181036000830152614e1c81614de0565b9050919050565b7f546865207472616e73706f72746572206861642073746f70706564207468652060008201527f6361727269616765000000000000000000000000000000000000000000000000602082015250565b6000614e7f602883614197565b9150614e8a82614e23565b604082019050919050565b60006020820190508181036000830152614eae81614e72565b9050919050565b7f4f776e657220636f6e6669726d65643a207472616e73706f727465722070696360008201527f6b656420757020746865206c6f61642120546f74616c206d6f6e65792068616460208201527f206265656e2061706f7274656420746f2074686520636f6e7472616374000000604082015250565b6000614f37605d83614197565b9150614f4282614eb5565b606082019050919050565b60006020820190508181036000830152614f6681614f2a565b9050919050565b7f546865206f776e6572206861642073657420612077696e6e696e67206f66666560008201527f7200000000000000000000000000000000000000000000000000000000000000602082015250565b6000614fc9602183614197565b9150614fd482614f6d565b604082019050919050565b60006020820190508181036000830152614ff881614fbc565b9050919050565b7f57696e6e6572206f666665722068616420616363657074656420616e6420707560008201527f74207468652067756172616e7465652076616c75652061742074686520636f6e60208201527f7472616374000000000000000000000000000000000000000000000000000000604082015250565b6000615081604583614197565b915061508c82614fff565b606082019050919050565b600060208201905081810360008301526150b081615074565b9050919050565b7f546865207472616e73706f72746572206861642064656c69766572656420746860008201527f65206c6f616420696e2074696d65000000000000000000000000000000000000602082015250565b6000615113602e83614197565b915061511e826150b7565b604082019050919050565b6000602082019050818103600083015261514281615106565b9050919050565b7f546865207472616e73706f72746572206861642064656c69766572656420746860008201527f65206c6f61642c206c6174650000000000000000000000000000000000000000602082015250565b60006151a5602c83614197565b91506151b082615149565b604082019050919050565b600060208201905081810360008301526151d481615198565b905091905056fe546865206163636f756e742068616420616c72656164792077697468647261776e207468652077686f6c65206d6f6e6579214f6e6c79207468652077696e6e6572206f66666572207472616e73706f727465722063616e20706572666f726d207468697320616374696f6e4f6e6c7920746865206f776e6572206f662074686520636f6e74726163742063616e20706572666f726d207468697320616374696f6e546865206f776e6572206f662074686520636f6e74726163742063616e277420706572666f726d207468697320616374696f6e546865206672656967687420736974756174696f6e20697320646966666572656e74206f6620776861742077617320737570706f73656420746f206265a2646970667358221220440548010cebfcb40e79a690ff3dbde88b0f52e86bf2d0657aad7711d4101d3864736f6c634300080b0033",
  "immutableReferences": {},
  "source": "// SPDX-License-Identifier: UNLICENSED\npragma solidity ^0.8.11;\n\n/* ------------------------- STRUCTS AND ENUMS ------------------------- */\n\nenum FreightSituation {\n    Auction,\n    WaitingConfirmationTransporter,\n    WaitingPickUpLoad,\n    OnCarriage,\n    Stopped,\n    Delivered,\n    DeliveredLate,\n    NotDelivered,\n    Returned\n}\n\nstruct Address {\n    string country;\n    string state;\n    string city;\n    string street;\n    string district; // neighborhood\n    string zipcode;\n    string number;\n}\n\nstruct Offer {\n    address payable address_offer;\n    uint value;\n    uint advance_money;\n}\n\nstruct FreightDetails {\n    Address origin;\n    Address destination;\n\n    uint256 date_limit_get_load;\n    uint256 date_limit_delivery;\n\n    uint estipulated_value;\n    uint fine_delivery_late;\n    uint guarantee_value; // guarantee value from the transporter, so it does not steal the load or something like that\n}\n\nstruct WholeFreight {\n    FreightDetails freight_details;\n    Offer[] offers;\n    FreightSituation situation;\n}\n\ncontract Freight {\n    /* ------------------------- INITIALIZERS ------------------------- */\n\n    // global variables\n    address payable owner;\n    FreightDetails freight_details;\n    Offer winning_offer;\n    Offer[] offers;\n    FreightSituation freight_situation;\n\n    // flags\n    bool is_advance_taken;\n    bool is_whole_money_taken;\n    bool is_delivery_late_taken;\n\n    // constants\n    string constant ONLY_OWNER = \"Only the owner of the contract can perform this action\";\n    string constant ONLY_WINNER_OFFER = \"Only the winner offer transporter can perform this action\";\n    string constant OWNER_CANT = \"The owner of the contract can't perform this action\";\n    string constant FREIGHT_SITUATION_DIFFERENT = \"The freight situation is different of what was supposed to be\";\n    string constant VALUES_DIFFER = \"The values are different\";\n    string constant WHOLE_MONEY_TAKEN = \"The account had already withdrawn the whole money!\";\n\n    // events\n    event Log(address indexed sender, string message);\n\n    constructor() {\n        freight_situation = FreightSituation.Auction;\n        \n        is_advance_taken = false;\n        is_whole_money_taken = false;\n        is_delivery_late_taken = false;\n    }\n\n    // modifier for owner-only\n    modifier onlyowner() {\n        require (msg.sender == owner, ONLY_OWNER);\n        _;\n    }\n\n    // modifier for winning-only\n    modifier onlywinner() {\n        require (msg.sender == winning_offer.address_offer, ONLY_WINNER_OFFER);\n        _;\n    }\n\n    // setting the owner of the contract\n    function setOwner(address owner_) public {\n        require(owner == address(0));\n        owner = payable(owner_);\n    }\n\n    /* ------------------------- ONLY OWNER FUNCTIONS ------------------------- */\n\n    function setOrigin(\n        string memory country_, string memory state_, string memory city_,\n        string memory street_, string memory district_, string memory zipcode_,\n        string memory number_\n    ) public onlyowner() {\n        freight_details.origin.country = country_;\n        freight_details.origin.state = state_;\n        freight_details.origin.city = city_;\n\n        freight_details.origin.street = street_;\n        freight_details.origin.district = district_;\n        freight_details.origin.zipcode = zipcode_;\n\n        freight_details.origin.number = number_;\n    }\n\n    function setDestination(\n        string memory country_, string memory state_, string memory city_,\n        string memory street_, string memory district_, string memory zipcode_,\n        string memory number_\n    ) public onlyowner() {\n        freight_details.destination.country = country_;\n        freight_details.destination.state = state_;\n        freight_details.destination.city = city_;\n\n        freight_details.destination.street = street_;\n        freight_details.destination.district = district_;\n        freight_details.destination.zipcode = zipcode_;\n\n        freight_details.destination.number = number_;\n    }\n\n    function setDates(\n        uint256 date_limit_get_load_, uint256 date_limit_delivery_\n    ) public onlyowner() {\n        freight_details.date_limit_get_load = date_limit_get_load_;\n        freight_details.date_limit_delivery = date_limit_delivery_;\n    }\n\n    function setValues(\n        uint estipulated_value_, uint fine_delivery_late_, uint guarantee_value_\n    ) public onlyowner() {\n        freight_details.estipulated_value = estipulated_value_;\n        freight_details.fine_delivery_late = fine_delivery_late_;\n        freight_details.guarantee_value = guarantee_value_;\n    }\n\n    function setWinningOffer(uint i) public onlyowner() {\n        require(freight_situation == FreightSituation.Auction, FREIGHT_SITUATION_DIFFERENT);\n        \n        // selecting the winner offer\n        winning_offer = offers[i];\n\n        // change the status of the freight\n        freight_situation = FreightSituation.WaitingConfirmationTransporter;\n\n        emit Log(owner, \"The owner had set a winning offer\");\n    }\n\n    /* ------------------------- OFFERS ------------------------- */\n\n    function createOffer(\n        uint value_, uint advance_money_, address sender\n    ) public {\n        require(freight_situation == FreightSituation.Auction, FREIGHT_SITUATION_DIFFERENT); // the situation must be as Auction\n        require(sender != owner, OWNER_CANT); // owner can't put a offer\n\n        offers.push(Offer({\n            address_offer: payable(sender),\n            value: value_,\n            advance_money: advance_money_\n        }));\n    }\n\n    /* ------------------------- INTERACTIONS ON THE CARRIAGE ------------------------- */\n\n    // winning offer transporter must accept the offer\n    function acceptOffer() public payable onlywinner() {\n        require(msg.value == freight_details.guarantee_value, VALUES_DIFFER); // check if its the exact amount\n        require(freight_situation == FreightSituation.WaitingConfirmationTransporter, FREIGHT_SITUATION_DIFFERENT);\n\n        freight_situation = FreightSituation.WaitingPickUpLoad;\n\n        emit Log(msg.sender, \"Winner offer had accepted and put the guarantee value at the contract\");\n    }\n\n    // the owner confirms the transporter have arrived to pick up the load\n    function pickUpLoad() public onlyowner() payable {\n        require(freight_situation == FreightSituation.WaitingPickUpLoad, FREIGHT_SITUATION_DIFFERENT);\n        require(msg.value == winning_offer.value, VALUES_DIFFER); // owner must put its money into the contract\n\n        freight_situation = FreightSituation.OnCarriage;\n\n        emit Log(msg.sender, \"Owner confirmed: transporter picked up the load! Total money had been aported to the contract\");\n    }\n\n    // the transporter can withdraw the advance money, put it into the contract by the owner\n    function withdrawAdvanceMoney() public onlywinner() {\n        require(!is_advance_taken, \"The account had already withdrawn the advance money\");\n\n        // send advance money from the contract to the transporter account\n        winning_offer.address_offer.transfer(winning_offer.advance_money);\n\n        // set flag that the advance money had already been taken\n        is_advance_taken = true;\n\n        emit Log(msg.sender, \"The transporter had withdrawn the advance money\");\n    }\n\n    /* ------------------------- ACTIONS THE TRANSPORTER CAN PERFORM (ON THE CARRIAGE) ------------------------- */\n\n    // set situation to stopped\n    function stopCarriage() public onlywinner() {\n        require(freight_situation >= FreightSituation.OnCarriage &&\n                freight_situation < FreightSituation.Delivered, FREIGHT_SITUATION_DIFFERENT);\n\n        freight_situation = FreightSituation.Stopped;\n\n        emit Log(msg.sender, \"The transporter had stopped the carriage\");\n    }\n\n    // set situation to on carriage\n    function onCarriage() public onlywinner() {\n        require(freight_situation >= FreightSituation.OnCarriage &&\n                freight_situation < FreightSituation.Delivered, FREIGHT_SITUATION_DIFFERENT);\n        \n        freight_situation = FreightSituation.OnCarriage;\n\n        emit Log(msg.sender, \"The transporter is on the carriage again\");\n    }\n\n    // the transporter had delivered the load into the destination\n    function deliver() public onlywinner() {\n        require(freight_situation == FreightSituation.OnCarriage);\n\n        if (block.timestamp <= freight_details.date_limit_delivery) {\n            freight_situation = FreightSituation.Delivered;\n            emit Log(msg.sender, \"The transporter had delivered the load in time\");\n\n        } else {\n            freight_situation = FreightSituation.DeliveredLate;\n            emit Log(msg.sender, \"The transporter had delivered the load, late\");\n        }\n    }\n\n    // the transporter, after delivering the load, can withdraw the whole money of the contract\n    function withdrawWholeMoney() public onlywinner() {\n        require(freight_situation == FreightSituation.Delivered ||\n                freight_situation == FreightSituation.DeliveredLate, FREIGHT_SITUATION_DIFFERENT);\n        require(!is_whole_money_taken, WHOLE_MONEY_TAKEN);\n\n        // transfer the whole amount of money (including the guarantee fee)\n        if (freight_situation == FreightSituation.Delivered) {\n            winning_offer.address_offer.transfer(address(this).balance);\n        } else {\n            winning_offer.address_offer.transfer(address(this).balance - freight_details.fine_delivery_late);\n        }\n\n        // set the flag\n        is_whole_money_taken = true;\n    }\n\n    // the owner can say the load wasn't delivered (only after the time is higher than the delivery time)\n    // than, change the situation and gets back the whole amount of money of the contract\n    function cancelFreight() public onlyowner() {\n        require(freight_situation == FreightSituation.OnCarriage ||\n                freight_situation == FreightSituation.Stopped, FREIGHT_SITUATION_DIFFERENT);\n        require(block.timestamp > freight_details.date_limit_delivery);\n        require(!is_whole_money_taken, WHOLE_MONEY_TAKEN);\n\n        // change the situation\n        freight_situation = FreightSituation.NotDelivered;\n\n        // transfer the whole money to the owner of the contract\n        owner.transfer(address(this).balance);\n\n        // set the flag\n        is_whole_money_taken = true;\n    }\n\n    // if the transporter had delivered the load in late time, the owner can get its fine of delivery late\n    function getDeliveryLateFine() public onlyowner() {\n        require(freight_situation == FreightSituation.DeliveredLate, FREIGHT_SITUATION_DIFFERENT);\n        require(!is_delivery_late_taken, \"The delivery late fine had alrady been taken\");\n\n        // transfer the fine to the owner\n        owner.transfer(freight_details.fine_delivery_late);\n\n        // set the flag\n        is_delivery_late_taken = true;\n    }\n\n    /* ------------------------- GETTERS ------------------------- */\n\n    function getOrigin() public view returns (\n        string memory, string memory, string memory,\n        string memory, string memory, string memory,\n        string memory\n    ) {\n        return (\n            freight_details.origin.country,\n            freight_details.origin.state,\n            freight_details.origin.city,\n\n            freight_details.origin.street,\n            freight_details.origin.district,\n            freight_details.origin.zipcode,\n\n            freight_details.origin.number\n        );\n    }\n\n    function getDestination() public view returns (\n        string memory, string memory, string memory,\n        string memory, string memory, string memory,\n        string memory\n    ) {\n        return (\n            freight_details.destination.country,\n            freight_details.destination.state,\n            freight_details.destination.city,\n\n            freight_details.destination.street,\n            freight_details.destination.district,\n            freight_details.destination.zipcode,\n\n            freight_details.destination.number\n        );\n    }\n\n    function getFreightSituation() public view returns (FreightSituation) {\n        return (freight_situation);\n    }\n\n    function getOffers() public view returns (Offer[] memory) {\n        return (offers);\n    }\n\n    function getOffer(uint index) public view returns (Offer memory) {\n        return (offers[index]);\n    }\n\n    function getBalance() public view returns (uint256) {\n        return address(this).balance;\n    }\n\n    function getValues() public view returns (uint, uint, uint) {\n        return (freight_details.estipulated_value, freight_details.fine_delivery_late, freight_details.guarantee_value);\n    }\n\n    function getContractAddress() public view returns (address) {\n        return address(this);\n    }\n\n    function getFreightDetails() public view returns (FreightDetails memory) {\n        return (freight_details);\n    }\n    \n    function getWinningOffer() public view returns (Offer memory) {\n        return (winning_offer);\n    }\n\n    function getFreight() public view returns (FreightSituation, FreightDetails memory, address) {\n        return (freight_situation, freight_details, owner);\n    }\n}",
  "sourcePath": "/home/anthony_kamers/Desktop/UFSC/2021.2/blockchain/web3-react1/contracts/Freight.sol",
  "compiler": {
    "name": "solc",
    "version": "0.8.11+commit.d7f03943.Emscripten.clang"
  },
  "schemaVersion": "3.4.4",
  "updatedAt": "2022-02-20T18:01:01.268Z",
  "devdoc": {
    "kind": "dev",
    "methods": {},
    "version": 1
  },
  "userdoc": {
    "kind": "user",
    "methods": {},
    "version": 1
  }
}