{
  "contractName": "Freight",
  "abi": [
    {
      "inputs": [],
      "stateMutability": "nonpayable",
      "type": "constructor"
    },
    {
      "anonymous": false,
      "inputs": [
        {
          "indexed": true,
          "internalType": "address",
          "name": "sender",
          "type": "address"
        },
        {
          "indexed": false,
          "internalType": "string",
          "name": "message",
          "type": "string"
        }
      ],
      "name": "Log",
      "type": "event"
    },
    {
      "inputs": [
        {
          "internalType": "address",
          "name": "owner_",
          "type": "address"
        }
      ],
      "name": "setOwner",
      "outputs": [],
      "stateMutability": "nonpayable",
      "type": "function"
    },
    {
      "inputs": [
        {
          "internalType": "string",
          "name": "country_",
          "type": "string"
        },
        {
          "internalType": "string",
          "name": "state_",
          "type": "string"
        },
        {
          "internalType": "string",
          "name": "city_",
          "type": "string"
        },
        {
          "internalType": "string",
          "name": "street_",
          "type": "string"
        },
        {
          "internalType": "string",
          "name": "district_",
          "type": "string"
        },
        {
          "internalType": "string",
          "name": "zipcode_",
          "type": "string"
        },
        {
          "internalType": "string",
          "name": "number_",
          "type": "string"
        }
      ],
      "name": "setOrigin",
      "outputs": [],
      "stateMutability": "nonpayable",
      "type": "function"
    },
    {
      "inputs": [
        {
          "internalType": "string",
          "name": "country_",
          "type": "string"
        },
        {
          "internalType": "string",
          "name": "state_",
          "type": "string"
        },
        {
          "internalType": "string",
          "name": "city_",
          "type": "string"
        },
        {
          "internalType": "string",
          "name": "street_",
          "type": "string"
        },
        {
          "internalType": "string",
          "name": "district_",
          "type": "string"
        },
        {
          "internalType": "string",
          "name": "zipcode_",
          "type": "string"
        },
        {
          "internalType": "string",
          "name": "number_",
          "type": "string"
        }
      ],
      "name": "setDestination",
      "outputs": [],
      "stateMutability": "nonpayable",
      "type": "function"
    },
    {
      "inputs": [
        {
          "internalType": "uint256",
          "name": "date_limit_get_load_",
          "type": "uint256"
        },
        {
          "internalType": "uint256",
          "name": "date_limit_delivery_",
          "type": "uint256"
        }
      ],
      "name": "setDates",
      "outputs": [],
      "stateMutability": "nonpayable",
      "type": "function"
    },
    {
      "inputs": [
        {
          "internalType": "uint256",
          "name": "estipulated_value_",
          "type": "uint256"
        },
        {
          "internalType": "uint256",
          "name": "fine_delivery_late_",
          "type": "uint256"
        },
        {
          "internalType": "uint256",
          "name": "guarantee_value_",
          "type": "uint256"
        }
      ],
      "name": "setValues",
      "outputs": [],
      "stateMutability": "nonpayable",
      "type": "function"
    },
    {
      "inputs": [
        {
          "internalType": "uint256",
          "name": "i",
          "type": "uint256"
        }
      ],
      "name": "setWinningOffer",
      "outputs": [],
      "stateMutability": "nonpayable",
      "type": "function"
    },
    {
      "inputs": [
        {
          "internalType": "uint256",
          "name": "value_",
          "type": "uint256"
        },
        {
          "internalType": "uint256",
          "name": "advance_money_",
          "type": "uint256"
        },
        {
          "internalType": "address",
          "name": "sender",
          "type": "address"
        }
      ],
      "name": "createOffer",
      "outputs": [],
      "stateMutability": "nonpayable",
      "type": "function"
    },
    {
      "inputs": [],
      "name": "acceptOffer",
      "outputs": [],
      "stateMutability": "payable",
      "type": "function"
    },
    {
      "inputs": [],
      "name": "pickUpLoad",
      "outputs": [],
      "stateMutability": "payable",
      "type": "function"
    },
    {
      "inputs": [],
      "name": "withdrawAdvanceMoney",
      "outputs": [],
      "stateMutability": "nonpayable",
      "type": "function"
    },
    {
      "inputs": [],
      "name": "stopCarriage",
      "outputs": [],
      "stateMutability": "nonpayable",
      "type": "function"
    },
    {
      "inputs": [],
      "name": "onCarriage",
      "outputs": [],
      "stateMutability": "nonpayable",
      "type": "function"
    },
    {
      "inputs": [],
      "name": "deliver",
      "outputs": [],
      "stateMutability": "nonpayable",
      "type": "function"
    },
    {
      "inputs": [],
      "name": "withdrawWholeMoney",
      "outputs": [],
      "stateMutability": "nonpayable",
      "type": "function"
    },
    {
      "inputs": [],
      "name": "cancelFreight",
      "outputs": [],
      "stateMutability": "nonpayable",
      "type": "function"
    },
    {
      "inputs": [],
      "name": "withdrawDeliveryLateFine",
      "outputs": [],
      "stateMutability": "nonpayable",
      "type": "function"
    },
    {
      "inputs": [],
      "name": "getOrigin",
      "outputs": [
        {
          "internalType": "string",
          "name": "",
          "type": "string"
        },
        {
          "internalType": "string",
          "name": "",
          "type": "string"
        },
        {
          "internalType": "string",
          "name": "",
          "type": "string"
        },
        {
          "internalType": "string",
          "name": "",
          "type": "string"
        },
        {
          "internalType": "string",
          "name": "",
          "type": "string"
        },
        {
          "internalType": "string",
          "name": "",
          "type": "string"
        },
        {
          "internalType": "string",
          "name": "",
          "type": "string"
        }
      ],
      "stateMutability": "view",
      "type": "function"
    },
    {
      "inputs": [],
      "name": "getDestination",
      "outputs": [
        {
          "internalType": "string",
          "name": "",
          "type": "string"
        },
        {
          "internalType": "string",
          "name": "",
          "type": "string"
        },
        {
          "internalType": "string",
          "name": "",
          "type": "string"
        },
        {
          "internalType": "string",
          "name": "",
          "type": "string"
        },
        {
          "internalType": "string",
          "name": "",
          "type": "string"
        },
        {
          "internalType": "string",
          "name": "",
          "type": "string"
        },
        {
          "internalType": "string",
          "name": "",
          "type": "string"
        }
      ],
      "stateMutability": "view",
      "type": "function"
    },
    {
      "inputs": [],
      "name": "getFreightSituation",
      "outputs": [
        {
          "internalType": "enum FreightSituation",
          "name": "",
          "type": "uint8"
        }
      ],
      "stateMutability": "view",
      "type": "function"
    },
    {
      "inputs": [],
      "name": "getFlags",
      "outputs": [
        {
          "components": [
            {
              "internalType": "bool",
              "name": "is_advance_taken",
              "type": "bool"
            },
            {
              "internalType": "bool",
              "name": "is_whole_money_taken",
              "type": "bool"
            },
            {
              "internalType": "bool",
              "name": "is_delivery_late_taken",
              "type": "bool"
            }
          ],
          "internalType": "struct Flags",
          "name": "",
          "type": "tuple"
        }
      ],
      "stateMutability": "view",
      "type": "function"
    },
    {
      "inputs": [],
      "name": "getOffers",
      "outputs": [
        {
          "components": [
            {
              "internalType": "address payable",
              "name": "address_offer",
              "type": "address"
            },
            {
              "internalType": "uint256",
              "name": "value",
              "type": "uint256"
            },
            {
              "internalType": "uint256",
              "name": "advance_money",
              "type": "uint256"
            }
          ],
          "internalType": "struct Offer[]",
          "name": "",
          "type": "tuple[]"
        }
      ],
      "stateMutability": "view",
      "type": "function"
    },
    {
      "inputs": [
        {
          "internalType": "uint256",
          "name": "index",
          "type": "uint256"
        }
      ],
      "name": "getOffer",
      "outputs": [
        {
          "components": [
            {
              "internalType": "address payable",
              "name": "address_offer",
              "type": "address"
            },
            {
              "internalType": "uint256",
              "name": "value",
              "type": "uint256"
            },
            {
              "internalType": "uint256",
              "name": "advance_money",
              "type": "uint256"
            }
          ],
          "internalType": "struct Offer",
          "name": "",
          "type": "tuple"
        }
      ],
      "stateMutability": "view",
      "type": "function"
    },
    {
      "inputs": [],
      "name": "getBalance",
      "outputs": [
        {
          "internalType": "uint256",
          "name": "",
          "type": "uint256"
        }
      ],
      "stateMutability": "view",
      "type": "function"
    },
    {
      "inputs": [],
      "name": "getValues",
      "outputs": [
        {
          "internalType": "uint256",
          "name": "",
          "type": "uint256"
        },
        {
          "internalType": "uint256",
          "name": "",
          "type": "uint256"
        },
        {
          "internalType": "uint256",
          "name": "",
          "type": "uint256"
        }
      ],
      "stateMutability": "view",
      "type": "function"
    },
    {
      "inputs": [],
      "name": "getContractAddress",
      "outputs": [
        {
          "internalType": "address",
          "name": "",
          "type": "address"
        }
      ],
      "stateMutability": "view",
      "type": "function"
    },
    {
      "inputs": [],
      "name": "getFreightDetails",
      "outputs": [
        {
          "components": [
            {
              "components": [
                {
                  "internalType": "string",
                  "name": "country",
                  "type": "string"
                },
                {
                  "internalType": "string",
                  "name": "state",
                  "type": "string"
                },
                {
                  "internalType": "string",
                  "name": "city",
                  "type": "string"
                },
                {
                  "internalType": "string",
                  "name": "street",
                  "type": "string"
                },
                {
                  "internalType": "string",
                  "name": "district",
                  "type": "string"
                },
                {
                  "internalType": "string",
                  "name": "zipcode",
                  "type": "string"
                },
                {
                  "internalType": "string",
                  "name": "number",
                  "type": "string"
                }
              ],
              "internalType": "struct Address",
              "name": "origin",
              "type": "tuple"
            },
            {
              "components": [
                {
                  "internalType": "string",
                  "name": "country",
                  "type": "string"
                },
                {
                  "internalType": "string",
                  "name": "state",
                  "type": "string"
                },
                {
                  "internalType": "string",
                  "name": "city",
                  "type": "string"
                },
                {
                  "internalType": "string",
                  "name": "street",
                  "type": "string"
                },
                {
                  "internalType": "string",
                  "name": "district",
                  "type": "string"
                },
                {
                  "internalType": "string",
                  "name": "zipcode",
                  "type": "string"
                },
                {
                  "internalType": "string",
                  "name": "number",
                  "type": "string"
                }
              ],
              "internalType": "struct Address",
              "name": "destination",
              "type": "tuple"
            },
            {
              "internalType": "uint256",
              "name": "date_limit_get_load",
              "type": "uint256"
            },
            {
              "internalType": "uint256",
              "name": "date_limit_delivery",
              "type": "uint256"
            },
            {
              "internalType": "uint256",
              "name": "estipulated_value",
              "type": "uint256"
            },
            {
              "internalType": "uint256",
              "name": "fine_delivery_late",
              "type": "uint256"
            },
            {
              "internalType": "uint256",
              "name": "guarantee_value",
              "type": "uint256"
            }
          ],
          "internalType": "struct FreightDetails",
          "name": "",
          "type": "tuple"
        }
      ],
      "stateMutability": "view",
      "type": "function"
    },
    {
      "inputs": [],
      "name": "getWinningOffer",
      "outputs": [
        {
          "components": [
            {
              "internalType": "address payable",
              "name": "address_offer",
              "type": "address"
            },
            {
              "internalType": "uint256",
              "name": "value",
              "type": "uint256"
            },
            {
              "internalType": "uint256",
              "name": "advance_money",
              "type": "uint256"
            }
          ],
          "internalType": "struct Offer",
          "name": "",
          "type": "tuple"
        }
      ],
      "stateMutability": "view",
      "type": "function"
    },
    {
      "inputs": [],
      "name": "getFreight",
      "outputs": [
        {
          "internalType": "enum FreightSituation",
          "name": "",
          "type": "uint8"
        },
        {
          "components": [
            {
              "components": [
                {
                  "internalType": "string",
                  "name": "country",
                  "type": "string"
                },
                {
                  "internalType": "string",
                  "name": "state",
                  "type": "string"
                },
                {
                  "internalType": "string",
                  "name": "city",
                  "type": "string"
                },
                {
                  "internalType": "string",
                  "name": "street",
                  "type": "string"
                },
                {
                  "internalType": "string",
                  "name": "district",
                  "type": "string"
                },
                {
                  "internalType": "string",
                  "name": "zipcode",
                  "type": "string"
                },
                {
                  "internalType": "string",
                  "name": "number",
                  "type": "string"
                }
              ],
              "internalType": "struct Address",
              "name": "origin",
              "type": "tuple"
            },
            {
              "components": [
                {
                  "internalType": "string",
                  "name": "country",
                  "type": "string"
                },
                {
                  "internalType": "string",
                  "name": "state",
                  "type": "string"
                },
                {
                  "internalType": "string",
                  "name": "city",
                  "type": "string"
                },
                {
                  "internalType": "string",
                  "name": "street",
                  "type": "string"
                },
                {
                  "internalType": "string",
                  "name": "district",
                  "type": "string"
                },
                {
                  "internalType": "string",
                  "name": "zipcode",
                  "type": "string"
                },
                {
                  "internalType": "string",
                  "name": "number",
                  "type": "string"
                }
              ],
              "internalType": "struct Address",
              "name": "destination",
              "type": "tuple"
            },
            {
              "internalType": "uint256",
              "name": "date_limit_get_load",
              "type": "uint256"
            },
            {
              "internalType": "uint256",
              "name": "date_limit_delivery",
              "type": "uint256"
            },
            {
              "internalType": "uint256",
              "name": "estipulated_value",
              "type": "uint256"
            },
            {
              "internalType": "uint256",
              "name": "fine_delivery_late",
              "type": "uint256"
            },
            {
              "internalType": "uint256",
              "name": "guarantee_value",
              "type": "uint256"
            }
          ],
          "internalType": "struct FreightDetails",
          "name": "",
          "type": "tuple"
        },
        {
          "internalType": "address",
          "name": "",
          "type": "address"
        },
        {
          "components": [
            {
              "internalType": "bool",
              "name": "is_advance_taken",
              "type": "bool"
            },
            {
              "internalType": "bool",
              "name": "is_whole_money_taken",
              "type": "bool"
            },
            {
              "internalType": "bool",
              "name": "is_delivery_late_taken",
              "type": "bool"
            }
          ],
          "internalType": "struct Flags",
          "name": "",
          "type": "tuple"
        }
      ],
      "stateMutability": "view",
      "type": "function"
    }
  ],
  "bytecode": "0x60806040523480156200001157600080fd5b506000601860006101000a81548160ff021916908360088111156200003b576200003a620000a0565b5b02179055506000601960000160006101000a81548160ff0219169083151502179055506000601960000160016101000a81548160ff0219169083151502179055506000601960000160026101000a81548160ff021916908315150217905550620000cf565b7f4e487b7100000000000000000000000000000000000000000000000000000000600052602160045260246000fd5b61550580620000df6000396000f3fe6080604052600436106101b75760003560e01c806365a7297b116100ec578063b5ed7bb11161008a578063df1f29ee11610064578063df1f29ee1461053a578063eaf0d9c61461056b578063eb62df6114610596578063fd3e50a7146105a0576101b7565b8063b5ed7bb1146104bf578063c6397bd8146104e8578063dedf141e14610511576101b7565b806375135256116100c657806375135256146104475780639171965e1461045e57806392a81d171461048c578063abdd1097146104b5576101b7565b806365a7297b146103dc57806366b6aff6146103f35780636cc7149d1461041c576101b7565b806332a2c5d0116101595780634579268a116101335780634579268a1461035a5780635730e7991461039757806357ca3b9b146103ae57806362697ad7146103c5576101b7565b806332a2c5d0146102d95780633bb24b7d146103045780633ee992ee1461032f576101b7565b806316ad95421161019557806316ad95421461023957806319eb4a901461026a5780631c1fdea51461029757806322eddc47146102ae576101b7565b8063111be316146101bc57806312065fe0146101e557806313af403514610210575b600080fd5b3480156101c857600080fd5b506101e360048036038101906101de91906141e1565b6105b7565b005b3480156101f157600080fd5b506101fa610684565b6040516102079190614243565b60405180910390f35b34801561021c57600080fd5b50610237600480360381019061023291906142bc565b61068c565b005b34801561024557600080fd5b5061024e610728565b6040516102619796959493929190614382565b60405180910390f35b34801561027657600080fd5b5061027f610b56565b60405161028e93929190614422565b60405180910390f35b3480156102a357600080fd5b506102ac610b78565b005b3480156102ba57600080fd5b506102c3610e24565b6040516102d091906144d0565b60405180910390f35b3480156102e557600080fd5b506102ee610e3b565b6040516102fb91906144fa565b60405180910390f35b34801561031057600080fd5b50610319610e43565b60405161032691906146d7565b60405180910390f35b34801561033b57600080fd5b506103446116b3565b604051610351919061480b565b60405180910390f35b34801561036657600080fd5b50610381600480360381019061037c919061482d565b61177c565b60405161038e919061489c565b60405180910390f35b3480156103a357600080fd5b506103ac611822565b005b3480156103ba57600080fd5b506103c3611a1c565b005b3480156103d157600080fd5b506103da611d54565b005b3480156103e857600080fd5b506103f1611f33565b005b3480156103ff57600080fd5b5061041a600480360381019061041591906148b7565b61214e565b005b34801561042857600080fd5b50610431612349565b60405161043e9190614967565b60405180910390f35b34801561045357600080fd5b5061045c6123b4565b005b34801561046a57600080fd5b506104736125ae565b6040516104839493929190614982565b60405180910390f35b34801561049857600080fd5b506104b360048036038101906104ae9190614b03565b612ec8565b005b6104bd613046565b005b3480156104cb57600080fd5b506104e660048036038101906104e1919061482d565b61327b565b005b3480156104f457600080fd5b5061050f600480360381019061050a9190614b03565b6134f3565b005b34801561051d57600080fd5b5061053860048036038101906105339190614c69565b613671565b005b34801561054657600080fd5b5061054f613733565b6040516105629796959493929190614382565b60405180910390f35b34801561057757600080fd5b50610580613b61565b60405161058d919061489c565b60405180910390f35b61059e613be5565b005b3480156105ac57600080fd5b506105b5613e1f565b005b60008054906101000a900473ffffffffffffffffffffffffffffffffffffffff1673ffffffffffffffffffffffffffffffffffffffff163373ffffffffffffffffffffffffffffffffffffffff161460405180606001604052806036815260200161542a6036913990610660576040517f08c379a00000000000000000000000000000000000000000000000000000000081526004016106579190614ca9565b60405180910390fd5b50826001601001819055508160016011018190555080600160120181905550505050565b600047905090565b600073ffffffffffffffffffffffffffffffffffffffff1660008054906101000a900473ffffffffffffffffffffffffffffffffffffffff1673ffffffffffffffffffffffffffffffffffffffff16146106e557600080fd5b806000806101000a81548173ffffffffffffffffffffffffffffffffffffffff021916908373ffffffffffffffffffffffffffffffffffffffff16021790555050565b6060806060806060806060600160070160000160016007016001016001600701600201600160070160030160016007016004016001600701600501600160070160060186805461077790614cfa565b80601f01602080910402602001604051908101604052809291908181526020018280546107a390614cfa565b80156107f05780601f106107c5576101008083540402835291602001916107f0565b820191906000526020600020905b8154815290600101906020018083116107d357829003601f168201915b5050505050965085805461080390614cfa565b80601f016020809104026020016040519081016040528092919081815260200182805461082f90614cfa565b801561087c5780601f106108515761010080835404028352916020019161087c565b820191906000526020600020905b81548152906001019060200180831161085f57829003601f168201915b5050505050955084805461088f90614cfa565b80601f01602080910402602001604051908101604052809291908181526020018280546108bb90614cfa565b80156109085780601f106108dd57610100808354040283529160200191610908565b820191906000526020600020905b8154815290600101906020018083116108eb57829003601f168201915b5050505050945083805461091b90614cfa565b80601f016020809104026020016040519081016040528092919081815260200182805461094790614cfa565b80156109945780601f1061096957610100808354040283529160200191610994565b820191906000526020600020905b81548152906001019060200180831161097757829003601f168201915b505050505093508280546109a790614cfa565b80601f01602080910402602001604051908101604052809291908181526020018280546109d390614cfa565b8015610a205780601f106109f557610100808354040283529160200191610a20565b820191906000526020600020905b815481529060010190602001808311610a0357829003601f168201915b50505050509250818054610a3390614cfa565b80601f0160208091040260200160405190810160405280929190818152602001828054610a5f90614cfa565b8015610aac5780601f10610a8157610100808354040283529160200191610aac565b820191906000526020600020905b815481529060010190602001808311610a8f57829003601f168201915b50505050509150808054610abf90614cfa565b80601f0160208091040260200160405190810160405280929190818152602001828054610aeb90614cfa565b8015610b385780601f10610b0d57610100808354040283529160200191610b38565b820191906000526020600020905b815481529060010190602001808311610b1b57829003601f168201915b50505050509050965096509650965096509650965090919293949596565b6000806000600160100154600160110154600160120154925092509250909192565b60008054906101000a900473ffffffffffffffffffffffffffffffffffffffff1673ffffffffffffffffffffffffffffffffffffffff163373ffffffffffffffffffffffffffffffffffffffff161460405180606001604052806036815260200161542a6036913990610c21576040517f08c379a0000000000000000000000000000000000000000000000000000000008152600401610c189190614ca9565b60405180910390fd5b5060036008811115610c3657610c35614459565b5b601860009054906101000a900460ff166008811115610c5857610c57614459565b5b1480610c97575060046008811115610c7357610c72614459565b5b601860009054906101000a900460ff166008811115610c9557610c94614459565b5b145b6040518060600160405280603d8152602001615493603d913990610cf1576040517f08c379a0000000000000000000000000000000000000000000000000000000008152600401610ce89190614ca9565b60405180910390fd5b506001600f01544211610d0357600080fd5b601960000160019054906101000a900460ff16156040518060600160405280603281526020016153bf6032913990610d71576040517f08c379a0000000000000000000000000000000000000000000000000000000008152600401610d689190614ca9565b60405180910390fd5b506007601860006101000a81548160ff02191690836008811115610d9857610d97614459565b5b021790555060008054906101000a900473ffffffffffffffffffffffffffffffffffffffff1673ffffffffffffffffffffffffffffffffffffffff166108fc479081150290604051600060405180830381858888f19350505050158015610e03573d6000803e3d6000fd5b506001601960000160016101000a81548160ff021916908315150217905550565b6000601860009054906101000a900460ff16905090565b600030905090565b610e4b614010565b60016040518060e0016040529081600082016040518060e0016040529081600082018054610e7890614cfa565b80601f0160208091040260200160405190810160405280929190818152602001828054610ea490614cfa565b8015610ef15780601f10610ec657610100808354040283529160200191610ef1565b820191906000526020600020905b815481529060010190602001808311610ed457829003601f168201915b50505050508152602001600182018054610f0a90614cfa565b80601f0160208091040260200160405190810160405280929190818152602001828054610f3690614cfa565b8015610f835780601f10610f5857610100808354040283529160200191610f83565b820191906000526020600020905b815481529060010190602001808311610f6657829003601f168201915b50505050508152602001600282018054610f9c90614cfa565b80601f0160208091040260200160405190810160405280929190818152602001828054610fc890614cfa565b80156110155780601f10610fea57610100808354040283529160200191611015565b820191906000526020600020905b815481529060010190602001808311610ff857829003601f168201915b5050505050815260200160038201805461102e90614cfa565b80601f016020809104026020016040519081016040528092919081815260200182805461105a90614cfa565b80156110a75780601f1061107c576101008083540402835291602001916110a7565b820191906000526020600020905b81548152906001019060200180831161108a57829003601f168201915b505050505081526020016004820180546110c090614cfa565b80601f01602080910402602001604051908101604052809291908181526020018280546110ec90614cfa565b80156111395780601f1061110e57610100808354040283529160200191611139565b820191906000526020600020905b81548152906001019060200180831161111c57829003601f168201915b5050505050815260200160058201805461115290614cfa565b80601f016020809104026020016040519081016040528092919081815260200182805461117e90614cfa565b80156111cb5780601f106111a0576101008083540402835291602001916111cb565b820191906000526020600020905b8154815290600101906020018083116111ae57829003601f168201915b505050505081526020016006820180546111e490614cfa565b80601f016020809104026020016040519081016040528092919081815260200182805461121090614cfa565b801561125d5780601f106112325761010080835404028352916020019161125d565b820191906000526020600020905b81548152906001019060200180831161124057829003601f168201915b5050505050815250508152602001600782016040518060e001604052908160008201805461128a90614cfa565b80601f01602080910402602001604051908101604052809291908181526020018280546112b690614cfa565b80156113035780601f106112d857610100808354040283529160200191611303565b820191906000526020600020905b8154815290600101906020018083116112e657829003601f168201915b5050505050815260200160018201805461131c90614cfa565b80601f016020809104026020016040519081016040528092919081815260200182805461134890614cfa565b80156113955780601f1061136a57610100808354040283529160200191611395565b820191906000526020600020905b81548152906001019060200180831161137857829003601f168201915b505050505081526020016002820180546113ae90614cfa565b80601f01602080910402602001604051908101604052809291908181526020018280546113da90614cfa565b80156114275780601f106113fc57610100808354040283529160200191611427565b820191906000526020600020905b81548152906001019060200180831161140a57829003601f168201915b5050505050815260200160038201805461144090614cfa565b80601f016020809104026020016040519081016040528092919081815260200182805461146c90614cfa565b80156114b95780601f1061148e576101008083540402835291602001916114b9565b820191906000526020600020905b81548152906001019060200180831161149c57829003601f168201915b505050505081526020016004820180546114d290614cfa565b80601f01602080910402602001604051908101604052809291908181526020018280546114fe90614cfa565b801561154b5780601f106115205761010080835404028352916020019161154b565b820191906000526020600020905b81548152906001019060200180831161152e57829003601f168201915b5050505050815260200160058201805461156490614cfa565b80601f016020809104026020016040519081016040528092919081815260200182805461159090614cfa565b80156115dd5780601f106115b2576101008083540402835291602001916115dd565b820191906000526020600020905b8154815290600101906020018083116115c057829003601f168201915b505050505081526020016006820180546115f690614cfa565b80601f016020809104026020016040519081016040528092919081815260200182805461162290614cfa565b801561166f5780601f106116445761010080835404028352916020019161166f565b820191906000526020600020905b81548152906001019060200180831161165257829003601f168201915b5050505050815250508152602001600e8201548152602001600f82015481526020016010820154815260200160118201548152602001601282015481525050905090565b60606017805480602002602001604051908101604052809291908181526020016000905b8282101561177357838290600052602060002090600302016040518060600160405290816000820160009054906101000a900473ffffffffffffffffffffffffffffffffffffffff1673ffffffffffffffffffffffffffffffffffffffff1673ffffffffffffffffffffffffffffffffffffffff16815260200160018201548152602001600282015481525050815260200190600101906116d7565b50505050905090565b611784614059565b6017828154811061179857611797614d2c565b5b90600052602060002090600302016040518060600160405290816000820160009054906101000a900473ffffffffffffffffffffffffffffffffffffffff1673ffffffffffffffffffffffffffffffffffffffff1673ffffffffffffffffffffffffffffffffffffffff168152602001600182015481526020016002820154815250509050919050565b601460000160009054906101000a900473ffffffffffffffffffffffffffffffffffffffff1673ffffffffffffffffffffffffffffffffffffffff163373ffffffffffffffffffffffffffffffffffffffff16146040518060600160405280603981526020016153f160399139906118d0576040517f08c379a00000000000000000000000000000000000000000000000000000000081526004016118c79190614ca9565b60405180910390fd5b50600360088111156118e5576118e4614459565b5b601860009054906101000a900460ff16600881111561190757611906614459565b5b1015801561194857506005600881111561192457611923614459565b5b601860009054906101000a900460ff16600881111561194657611945614459565b5b105b6040518060600160405280603d8152602001615493603d9139906119a2576040517f08c379a00000000000000000000000000000000000000000000000000000000081526004016119999190614ca9565b60405180910390fd5b506003601860006101000a81548160ff021916908360088111156119c9576119c8614459565b5b02179055503373ffffffffffffffffffffffffffffffffffffffff167f0738f4da267a110d810e6e89fc59e46be6de0c37b1d5cd559b267dc3688e74e0604051611a1290614dcd565b60405180910390a2565b601460000160009054906101000a900473ffffffffffffffffffffffffffffffffffffffff1673ffffffffffffffffffffffffffffffffffffffff163373ffffffffffffffffffffffffffffffffffffffff16146040518060600160405280603981526020016153f16039913990611aca576040517f08c379a0000000000000000000000000000000000000000000000000000000008152600401611ac19190614ca9565b60405180910390fd5b5060056008811115611adf57611ade614459565b5b601860009054906101000a900460ff166008811115611b0157611b00614459565b5b1480611b40575060066008811115611b1c57611b1b614459565b5b601860009054906101000a900460ff166008811115611b3e57611b3d614459565b5b145b6040518060600160405280603d8152602001615493603d913990611b9a576040517f08c379a0000000000000000000000000000000000000000000000000000000008152600401611b919190614ca9565b60405180910390fd5b50601960000160019054906101000a900460ff16156040518060600160405280603281526020016153bf6032913990611c09576040517f08c379a0000000000000000000000000000000000000000000000000000000008152600401611c009190614ca9565b60405180910390fd5b5060056008811115611c1e57611c1d614459565b5b601860009054906101000a900460ff166008811115611c4057611c3f614459565b5b1415611cb757601460000160009054906101000a900473ffffffffffffffffffffffffffffffffffffffff1673ffffffffffffffffffffffffffffffffffffffff166108fc479081150290604051600060405180830381858888f19350505050158015611cb1573d6000803e3d6000fd5b50611d34565b601460000160009054906101000a900473ffffffffffffffffffffffffffffffffffffffff1673ffffffffffffffffffffffffffffffffffffffff166108fc60016011015447611d079190614e1c565b9081150290604051600060405180830381858888f19350505050158015611d32573d6000803e3d6000fd5b505b6001601960000160016101000a81548160ff021916908315150217905550565b601460000160009054906101000a900473ffffffffffffffffffffffffffffffffffffffff1673ffffffffffffffffffffffffffffffffffffffff163373ffffffffffffffffffffffffffffffffffffffff16146040518060600160405280603981526020016153f16039913990611e02576040517f08c379a0000000000000000000000000000000000000000000000000000000008152600401611df99190614ca9565b60405180910390fd5b50601960000160009054906101000a900460ff1615611e56576040517f08c379a0000000000000000000000000000000000000000000000000000000008152600401611e4d90614ec2565b60405180910390fd5b601460000160009054906101000a900473ffffffffffffffffffffffffffffffffffffffff1673ffffffffffffffffffffffffffffffffffffffff166108fc6014600201549081150290604051600060405180830381858888f19350505050158015611ec6573d6000803e3d6000fd5b506001601960000160006101000a81548160ff0219169083151502179055503373ffffffffffffffffffffffffffffffffffffffff167f0738f4da267a110d810e6e89fc59e46be6de0c37b1d5cd559b267dc3688e74e0604051611f2990614f54565b60405180910390a2565b60008054906101000a900473ffffffffffffffffffffffffffffffffffffffff1673ffffffffffffffffffffffffffffffffffffffff163373ffffffffffffffffffffffffffffffffffffffff161460405180606001604052806036815260200161542a6036913990611fdc576040517f08c379a0000000000000000000000000000000000000000000000000000000008152600401611fd39190614ca9565b60405180910390fd5b5060066008811115611ff157611ff0614459565b5b601860009054906101000a900460ff16600881111561201357612012614459565b5b146040518060600160405280603d8152602001615493603d91399061206e576040517f08c379a00000000000000000000000000000000000000000000000000000000081526004016120659190614ca9565b60405180910390fd5b50601960000160029054906101000a900460ff16156120c2576040517f08c379a00000000000000000000000000000000000000000000000000000000081526004016120b990614fe6565b60405180910390fd5b60008054906101000a900473ffffffffffffffffffffffffffffffffffffffff1673ffffffffffffffffffffffffffffffffffffffff166108fc6001601101549081150290604051600060405180830381858888f1935050505015801561212d573d6000803e3d6000fd5b506001601960000160026101000a81548160ff021916908315150217905550565b6000600881111561216257612161614459565b5b601860009054906101000a900460ff16600881111561218457612183614459565b5b146040518060600160405280603d8152602001615493603d9139906121df576040517f08c379a00000000000000000000000000000000000000000000000000000000081526004016121d69190614ca9565b60405180910390fd5b5060008054906101000a900473ffffffffffffffffffffffffffffffffffffffff1673ffffffffffffffffffffffffffffffffffffffff168173ffffffffffffffffffffffffffffffffffffffff161415604051806060016040528060338152602001615460603391399061228a576040517f08c379a00000000000000000000000000000000000000000000000000000000081526004016122819190614ca9565b60405180910390fd5b50601760405180606001604052808373ffffffffffffffffffffffffffffffffffffffff16815260200185815260200184815250908060018154018082558091505060019003906000526020600020906003020160009091909190915060008201518160000160006101000a81548173ffffffffffffffffffffffffffffffffffffffff021916908373ffffffffffffffffffffffffffffffffffffffff16021790555060208201518160010155604082015181600201555050505050565b612351614090565b60196040518060600160405290816000820160009054906101000a900460ff161515151581526020016000820160019054906101000a900460ff161515151581526020016000820160029054906101000a900460ff161515151581525050905090565b601460000160009054906101000a900473ffffffffffffffffffffffffffffffffffffffff1673ffffffffffffffffffffffffffffffffffffffff163373ffffffffffffffffffffffffffffffffffffffff16146040518060600160405280603981526020016153f16039913990612462576040517f08c379a00000000000000000000000000000000000000000000000000000000081526004016124599190614ca9565b60405180910390fd5b506003600881111561247757612476614459565b5b601860009054906101000a900460ff16600881111561249957612498614459565b5b101580156124da5750600560088111156124b6576124b5614459565b5b601860009054906101000a900460ff1660088111156124d8576124d7614459565b5b105b6040518060600160405280603d8152602001615493603d913990612534576040517f08c379a000000000000000000000000000000000000000000000000000000000815260040161252b9190614ca9565b60405180910390fd5b506004601860006101000a81548160ff0219169083600881111561255b5761255a614459565b5b02179055503373ffffffffffffffffffffffffffffffffffffffff167f0738f4da267a110d810e6e89fc59e46be6de0c37b1d5cd559b267dc3688e74e06040516125a490615078565b60405180910390a2565b60006125b8614010565b60006125c2614090565b601860009054906101000a900460ff16600160008054906101000a900473ffffffffffffffffffffffffffffffffffffffff166019826040518060e0016040529081600082016040518060e001604052908160008201805461262390614cfa565b80601f016020809104026020016040519081016040528092919081815260200182805461264f90614cfa565b801561269c5780601f106126715761010080835404028352916020019161269c565b820191906000526020600020905b81548152906001019060200180831161267f57829003601f168201915b505050505081526020016001820180546126b590614cfa565b80601f01602080910402602001604051908101604052809291908181526020018280546126e190614cfa565b801561272e5780601f106127035761010080835404028352916020019161272e565b820191906000526020600020905b81548152906001019060200180831161271157829003601f168201915b5050505050815260200160028201805461274790614cfa565b80601f016020809104026020016040519081016040528092919081815260200182805461277390614cfa565b80156127c05780601f10612795576101008083540402835291602001916127c0565b820191906000526020600020905b8154815290600101906020018083116127a357829003601f168201915b505050505081526020016003820180546127d990614cfa565b80601f016020809104026020016040519081016040528092919081815260200182805461280590614cfa565b80156128525780601f1061282757610100808354040283529160200191612852565b820191906000526020600020905b81548152906001019060200180831161283557829003601f168201915b5050505050815260200160048201805461286b90614cfa565b80601f016020809104026020016040519081016040528092919081815260200182805461289790614cfa565b80156128e45780601f106128b9576101008083540402835291602001916128e4565b820191906000526020600020905b8154815290600101906020018083116128c757829003601f168201915b505050505081526020016005820180546128fd90614cfa565b80601f016020809104026020016040519081016040528092919081815260200182805461292990614cfa565b80156129765780601f1061294b57610100808354040283529160200191612976565b820191906000526020600020905b81548152906001019060200180831161295957829003601f168201915b5050505050815260200160068201805461298f90614cfa565b80601f01602080910402602001604051908101604052809291908181526020018280546129bb90614cfa565b8015612a085780601f106129dd57610100808354040283529160200191612a08565b820191906000526020600020905b8154815290600101906020018083116129eb57829003601f168201915b5050505050815250508152602001600782016040518060e0016040529081600082018054612a3590614cfa565b80601f0160208091040260200160405190810160405280929190818152602001828054612a6190614cfa565b8015612aae5780601f10612a8357610100808354040283529160200191612aae565b820191906000526020600020905b815481529060010190602001808311612a9157829003601f168201915b50505050508152602001600182018054612ac790614cfa565b80601f0160208091040260200160405190810160405280929190818152602001828054612af390614cfa565b8015612b405780601f10612b1557610100808354040283529160200191612b40565b820191906000526020600020905b815481529060010190602001808311612b2357829003601f168201915b50505050508152602001600282018054612b5990614cfa565b80601f0160208091040260200160405190810160405280929190818152602001828054612b8590614cfa565b8015612bd25780601f10612ba757610100808354040283529160200191612bd2565b820191906000526020600020905b815481529060010190602001808311612bb557829003601f168201915b50505050508152602001600382018054612beb90614cfa565b80601f0160208091040260200160405190810160405280929190818152602001828054612c1790614cfa565b8015612c645780601f10612c3957610100808354040283529160200191612c64565b820191906000526020600020905b815481529060010190602001808311612c4757829003601f168201915b50505050508152602001600482018054612c7d90614cfa565b80601f0160208091040260200160405190810160405280929190818152602001828054612ca990614cfa565b8015612cf65780601f10612ccb57610100808354040283529160200191612cf6565b820191906000526020600020905b815481529060010190602001808311612cd957829003601f168201915b50505050508152602001600582018054612d0f90614cfa565b80601f0160208091040260200160405190810160405280929190818152602001828054612d3b90614cfa565b8015612d885780601f10612d5d57610100808354040283529160200191612d88565b820191906000526020600020905b815481529060010190602001808311612d6b57829003601f168201915b50505050508152602001600682018054612da190614cfa565b80601f0160208091040260200160405190810160405280929190818152602001828054612dcd90614cfa565b8015612e1a5780601f10612def57610100808354040283529160200191612e1a565b820191906000526020600020905b815481529060010190602001808311612dfd57829003601f168201915b5050505050815250508152602001600e8201548152602001600f820154815260200160108201548152602001601182015481526020016012820154815250509250806040518060600160405290816000820160009054906101000a900460ff161515151581526020016000820160019054906101000a900460ff161515151581526020016000820160029054906101000a900460ff1615151515815250509050935093509350935090919293565b60008054906101000a900473ffffffffffffffffffffffffffffffffffffffff1673ffffffffffffffffffffffffffffffffffffffff163373ffffffffffffffffffffffffffffffffffffffff161460405180606001604052806036815260200161542a6036913990612f71576040517f08c379a0000000000000000000000000000000000000000000000000000000008152600401612f689190614ca9565b60405180910390fd5b508660016007016000019080519060200190612f8e9291906140b7565b508560016007016001019080519060200190612fab9291906140b7565b508460016007016002019080519060200190612fc89291906140b7565b508360016007016003019080519060200190612fe59291906140b7565b5082600160070160040190805190602001906130029291906140b7565b50816001600701600501908051906020019061301f9291906140b7565b50806001600701600601908051906020019061303c9291906140b7565b5050505050505050565b60008054906101000a900473ffffffffffffffffffffffffffffffffffffffff1673ffffffffffffffffffffffffffffffffffffffff163373ffffffffffffffffffffffffffffffffffffffff161460405180606001604052806036815260200161542a60369139906130ef576040517f08c379a00000000000000000000000000000000000000000000000000000000081526004016130e69190614ca9565b60405180910390fd5b506002600881111561310457613103614459565b5b601860009054906101000a900460ff16600881111561312657613125614459565b5b146040518060600160405280603d8152602001615493603d913990613181576040517f08c379a00000000000000000000000000000000000000000000000000000000081526004016131789190614ca9565b60405180910390fd5b5060146001015434146040518060400160405280601881526020017f5468652076616c7565732061726520646966666572656e74000000000000000081525090613201576040517f08c379a00000000000000000000000000000000000000000000000000000000081526004016131f89190614ca9565b60405180910390fd5b506003601860006101000a81548160ff0219169083600881111561322857613227614459565b5b02179055503373ffffffffffffffffffffffffffffffffffffffff167f0738f4da267a110d810e6e89fc59e46be6de0c37b1d5cd559b267dc3688e74e060405161327190615130565b60405180910390a2565b60008054906101000a900473ffffffffffffffffffffffffffffffffffffffff1673ffffffffffffffffffffffffffffffffffffffff163373ffffffffffffffffffffffffffffffffffffffff161460405180606001604052806036815260200161542a6036913990613324576040517f08c379a000000000000000000000000000000000000000000000000000000000815260040161331b9190614ca9565b60405180910390fd5b506000600881111561333957613338614459565b5b601860009054906101000a900460ff16600881111561335b5761335a614459565b5b146040518060600160405280603d8152602001615493603d9139906133b6576040517f08c379a00000000000000000000000000000000000000000000000000000000081526004016133ad9190614ca9565b60405180910390fd5b50601781815481106133cb576133ca614d2c565b5b906000526020600020906003020160146000820160009054906101000a900473ffffffffffffffffffffffffffffffffffffffff168160000160006101000a81548173ffffffffffffffffffffffffffffffffffffffff021916908373ffffffffffffffffffffffffffffffffffffffff16021790555060018201548160010155600282015481600201559050506001601860006101000a81548160ff0219169083600881111561347f5761347e614459565b5b021790555060008054906101000a900473ffffffffffffffffffffffffffffffffffffffff1673ffffffffffffffffffffffffffffffffffffffff167f0738f4da267a110d810e6e89fc59e46be6de0c37b1d5cd559b267dc3688e74e06040516134e8906151c2565b60405180910390a250565b60008054906101000a900473ffffffffffffffffffffffffffffffffffffffff1673ffffffffffffffffffffffffffffffffffffffff163373ffffffffffffffffffffffffffffffffffffffff161460405180606001604052806036815260200161542a603691399061359c576040517f08c379a00000000000000000000000000000000000000000000000000000000081526004016135939190614ca9565b60405180910390fd5b5086600160000160000190805190602001906135b99291906140b7565b5085600160000160010190805190602001906135d69291906140b7565b5084600160000160020190805190602001906135f39291906140b7565b5083600160000160030190805190602001906136109291906140b7565b50826001600001600401908051906020019061362d9291906140b7565b50816001600001600501908051906020019061364a9291906140b7565b5080600160000160060190805190602001906136679291906140b7565b5050505050505050565b60008054906101000a900473ffffffffffffffffffffffffffffffffffffffff1673ffffffffffffffffffffffffffffffffffffffff163373ffffffffffffffffffffffffffffffffffffffff161460405180606001604052806036815260200161542a603691399061371a576040517f08c379a00000000000000000000000000000000000000000000000000000000081526004016137119190614ca9565b60405180910390fd5b50816001600e0181905550806001600f01819055505050565b6060806060806060806060600160000160000160016000016001016001600001600201600160000160030160016000016004016001600001600501600160000160060186805461378290614cfa565b80601f01602080910402602001604051908101604052809291908181526020018280546137ae90614cfa565b80156137fb5780601f106137d0576101008083540402835291602001916137fb565b820191906000526020600020905b8154815290600101906020018083116137de57829003601f168201915b5050505050965085805461380e90614cfa565b80601f016020809104026020016040519081016040528092919081815260200182805461383a90614cfa565b80156138875780601f1061385c57610100808354040283529160200191613887565b820191906000526020600020905b81548152906001019060200180831161386a57829003601f168201915b5050505050955084805461389a90614cfa565b80601f01602080910402602001604051908101604052809291908181526020018280546138c690614cfa565b80156139135780601f106138e857610100808354040283529160200191613913565b820191906000526020600020905b8154815290600101906020018083116138f657829003601f168201915b5050505050945083805461392690614cfa565b80601f016020809104026020016040519081016040528092919081815260200182805461395290614cfa565b801561399f5780601f106139745761010080835404028352916020019161399f565b820191906000526020600020905b81548152906001019060200180831161398257829003601f168201915b505050505093508280546139b290614cfa565b80601f01602080910402602001604051908101604052809291908181526020018280546139de90614cfa565b8015613a2b5780601f10613a0057610100808354040283529160200191613a2b565b820191906000526020600020905b815481529060010190602001808311613a0e57829003601f168201915b50505050509250818054613a3e90614cfa565b80601f0160208091040260200160405190810160405280929190818152602001828054613a6a90614cfa565b8015613ab75780601f10613a8c57610100808354040283529160200191613ab7565b820191906000526020600020905b815481529060010190602001808311613a9a57829003601f168201915b50505050509150808054613aca90614cfa565b80601f0160208091040260200160405190810160405280929190818152602001828054613af690614cfa565b8015613b435780601f10613b1857610100808354040283529160200191613b43565b820191906000526020600020905b815481529060010190602001808311613b2657829003601f168201915b50505050509050965096509650965096509650965090919293949596565b613b69614059565b60146040518060600160405290816000820160009054906101000a900473ffffffffffffffffffffffffffffffffffffffff1673ffffffffffffffffffffffffffffffffffffffff1673ffffffffffffffffffffffffffffffffffffffff16815260200160018201548152602001600282015481525050905090565b601460000160009054906101000a900473ffffffffffffffffffffffffffffffffffffffff1673ffffffffffffffffffffffffffffffffffffffff163373ffffffffffffffffffffffffffffffffffffffff16146040518060600160405280603981526020016153f16039913990613c93576040517f08c379a0000000000000000000000000000000000000000000000000000000008152600401613c8a9190614ca9565b60405180910390fd5b5060016012015434146040518060400160405280601881526020017f5468652076616c7565732061726520646966666572656e74000000000000000081525090613d13576040517f08c379a0000000000000000000000000000000000000000000000000000000008152600401613d0a9190614ca9565b60405180910390fd5b5060016008811115613d2857613d27614459565b5b601860009054906101000a900460ff166008811115613d4a57613d49614459565b5b146040518060600160405280603d8152602001615493603d913990613da5576040517f08c379a0000000000000000000000000000000000000000000000000000000008152600401613d9c9190614ca9565b60405180910390fd5b506002601860006101000a81548160ff02191690836008811115613dcc57613dcb614459565b5b02179055503373ffffffffffffffffffffffffffffffffffffffff167f0738f4da267a110d810e6e89fc59e46be6de0c37b1d5cd559b267dc3688e74e0604051613e159061527a565b60405180910390a2565b601460000160009054906101000a900473ffffffffffffffffffffffffffffffffffffffff1673ffffffffffffffffffffffffffffffffffffffff163373ffffffffffffffffffffffffffffffffffffffff16146040518060600160405280603981526020016153f16039913990613ecd576040517f08c379a0000000000000000000000000000000000000000000000000000000008152600401613ec49190614ca9565b60405180910390fd5b5060036008811115613ee257613ee1614459565b5b601860009054906101000a900460ff166008811115613f0457613f03614459565b5b14613f0e57600080fd5b6001600f01544211613f96576005601860006101000a81548160ff02191690836008811115613f4057613f3f614459565b5b02179055503373ffffffffffffffffffffffffffffffffffffffff167f0738f4da267a110d810e6e89fc59e46be6de0c37b1d5cd559b267dc3688e74e0604051613f899061530c565b60405180910390a261400e565b6006601860006101000a81548160ff02191690836008811115613fbc57613fbb614459565b5b02179055503373ffffffffffffffffffffffffffffffffffffffff167f0738f4da267a110d810e6e89fc59e46be6de0c37b1d5cd559b267dc3688e74e06040516140059061539e565b60405180910390a25b565b6040518060e0016040528061402361413d565b815260200161403061413d565b815260200160008152602001600081526020016000815260200160008152602001600081525090565b6040518060600160405280600073ffffffffffffffffffffffffffffffffffffffff16815260200160008152602001600081525090565b60405180606001604052806000151581526020016000151581526020016000151581525090565b8280546140c390614cfa565b90600052602060002090601f0160209004810192826140e5576000855561412c565b82601f106140fe57805160ff191683800117855561412c565b8280016001018555821561412c579182015b8281111561412b578251825591602001919060010190614110565b5b509050614139919061417a565b5090565b6040518060e00160405280606081526020016060815260200160608152602001606081526020016060815260200160608152602001606081525090565b5b8082111561419357600081600090555060010161417b565b5090565b6000604051905090565b600080fd5b600080fd5b6000819050919050565b6141be816141ab565b81146141c957600080fd5b50565b6000813590506141db816141b5565b92915050565b6000806000606084860312156141fa576141f96141a1565b5b6000614208868287016141cc565b9350506020614219868287016141cc565b925050604061422a868287016141cc565b9150509250925092565b61423d816141ab565b82525050565b60006020820190506142586000830184614234565b92915050565b600073ffffffffffffffffffffffffffffffffffffffff82169050919050565b60006142898261425e565b9050919050565b6142998161427e565b81146142a457600080fd5b50565b6000813590506142b681614290565b92915050565b6000602082840312156142d2576142d16141a1565b5b60006142e0848285016142a7565b91505092915050565b600081519050919050565b600082825260208201905092915050565b60005b83811015614323578082015181840152602081019050614308565b83811115614332576000848401525b50505050565b6000601f19601f8301169050919050565b6000614354826142e9565b61435e81856142f4565b935061436e818560208601614305565b61437781614338565b840191505092915050565b600060e082019050818103600083015261439c818a614349565b905081810360208301526143b08189614349565b905081810360408301526143c48188614349565b905081810360608301526143d88187614349565b905081810360808301526143ec8186614349565b905081810360a08301526144008185614349565b905081810360c08301526144148184614349565b905098975050505050505050565b60006060820190506144376000830186614234565b6144446020830185614234565b6144516040830184614234565b949350505050565b7f4e487b7100000000000000000000000000000000000000000000000000000000600052602160045260246000fd5b6009811061449957614498614459565b5b50565b60008190506144aa82614488565b919050565b60006144ba8261449c565b9050919050565b6144ca816144af565b82525050565b60006020820190506144e560008301846144c1565b92915050565b6144f48161427e565b82525050565b600060208201905061450f60008301846144eb565b92915050565b600082825260208201905092915050565b6000614531826142e9565b61453b8185614515565b935061454b818560208601614305565b61455481614338565b840191505092915050565b600060e083016000830151848203600086015261457c8282614526565b915050602083015184820360208601526145968282614526565b915050604083015184820360408601526145b08282614526565b915050606083015184820360608601526145ca8282614526565b915050608083015184820360808601526145e48282614526565b91505060a083015184820360a08601526145fe8282614526565b91505060c083015184820360c08601526146188282614526565b9150508091505092915050565b61462e816141ab565b82525050565b600060e0830160008301518482036000860152614651828261455f565b9150506020830151848203602086015261466b828261455f565b91505060408301516146806040860182614625565b5060608301516146936060860182614625565b5060808301516146a66080860182614625565b5060a08301516146b960a0860182614625565b5060c08301516146cc60c0860182614625565b508091505092915050565b600060208201905081810360008301526146f18184614634565b905092915050565b600081519050919050565b600082825260208201905092915050565b6000819050602082019050919050565b60006147308261425e565b9050919050565b61474081614725565b82525050565b60608201600082015161475c6000850182614737565b50602082015161476f6020850182614625565b5060408201516147826040850182614625565b50505050565b60006147948383614746565b60608301905092915050565b6000602082019050919050565b60006147b8826146f9565b6147c28185614704565b93506147cd83614715565b8060005b838110156147fe5781516147e58882614788565b97506147f0836147a0565b9250506001810190506147d1565b5085935050505092915050565b6000602082019050818103600083015261482581846147ad565b905092915050565b600060208284031215614843576148426141a1565b5b6000614851848285016141cc565b91505092915050565b6060820160008201516148706000850182614737565b5060208201516148836020850182614625565b5060408201516148966040850182614625565b50505050565b60006060820190506148b1600083018461485a565b92915050565b6000806000606084860312156148d0576148cf6141a1565b5b60006148de868287016141cc565b93505060206148ef868287016141cc565b9250506040614900868287016142a7565b9150509250925092565b60008115159050919050565b61491f8161490a565b82525050565b60608201600082015161493b6000850182614916565b50602082015161494e6020850182614916565b5060408201516149616040850182614916565b50505050565b600060608201905061497c6000830184614925565b92915050565b600060c08201905061499760008301876144c1565b81810360208301526149a98186614634565b90506149b860408301856144eb565b6149c56060830184614925565b95945050505050565b600080fd5b600080fd5b7f4e487b7100000000000000000000000000000000000000000000000000000000600052604160045260246000fd5b614a1082614338565b810181811067ffffffffffffffff82111715614a2f57614a2e6149d8565b5b80604052505050565b6000614a42614197565b9050614a4e8282614a07565b919050565b600067ffffffffffffffff821115614a6e57614a6d6149d8565b5b614a7782614338565b9050602081019050919050565b82818337600083830152505050565b6000614aa6614aa184614a53565b614a38565b905082815260208101848484011115614ac257614ac16149d3565b5b614acd848285614a84565b509392505050565b600082601f830112614aea57614ae96149ce565b5b8135614afa848260208601614a93565b91505092915050565b600080600080600080600060e0888a031215614b2257614b216141a1565b5b600088013567ffffffffffffffff811115614b4057614b3f6141a6565b5b614b4c8a828b01614ad5565b975050602088013567ffffffffffffffff811115614b6d57614b6c6141a6565b5b614b798a828b01614ad5565b965050604088013567ffffffffffffffff811115614b9a57614b996141a6565b5b614ba68a828b01614ad5565b955050606088013567ffffffffffffffff811115614bc757614bc66141a6565b5b614bd38a828b01614ad5565b945050608088013567ffffffffffffffff811115614bf457614bf36141a6565b5b614c008a828b01614ad5565b93505060a088013567ffffffffffffffff811115614c2157614c206141a6565b5b614c2d8a828b01614ad5565b92505060c088013567ffffffffffffffff811115614c4e57614c4d6141a6565b5b614c5a8a828b01614ad5565b91505092959891949750929550565b60008060408385031215614c8057614c7f6141a1565b5b6000614c8e858286016141cc565b9250506020614c9f858286016141cc565b9150509250929050565b60006020820190508181036000830152614cc38184614349565b905092915050565b7f4e487b7100000000000000000000000000000000000000000000000000000000600052602260045260246000fd5b60006002820490506001821680614d1257607f821691505b60208210811415614d2657614d25614ccb565b5b50919050565b7f4e487b7100000000000000000000000000000000000000000000000000000000600052603260045260246000fd5b7f546865207472616e73706f72746572206973206f6e207468652063617272696160008201527f676520616761696e000000000000000000000000000000000000000000000000602082015250565b6000614db76028836142f4565b9150614dc282614d5b565b604082019050919050565b60006020820190508181036000830152614de681614daa565b9050919050565b7f4e487b7100000000000000000000000000000000000000000000000000000000600052601160045260246000fd5b6000614e27826141ab565b9150614e32836141ab565b925082821015614e4557614e44614ded565b5b828203905092915050565b7f546865206163636f756e742068616420616c726561647920776974686472617760008201527f6e2074686520616476616e6365206d6f6e657900000000000000000000000000602082015250565b6000614eac6033836142f4565b9150614eb782614e50565b604082019050919050565b60006020820190508181036000830152614edb81614e9f565b9050919050565b7f546865207472616e73706f72746572206861642077697468647261776e20746860008201527f6520616476616e6365206d6f6e65790000000000000000000000000000000000602082015250565b6000614f3e602f836142f4565b9150614f4982614ee2565b604082019050919050565b60006020820190508181036000830152614f6d81614f31565b9050919050565b7f5468652064656c6976657279206c6174652066696e652068616420616c72616460008201527f79206265656e2074616b656e0000000000000000000000000000000000000000602082015250565b6000614fd0602c836142f4565b9150614fdb82614f74565b604082019050919050565b60006020820190508181036000830152614fff81614fc3565b9050919050565b7f546865207472616e73706f72746572206861642073746f70706564207468652060008201527f6361727269616765000000000000000000000000000000000000000000000000602082015250565b60006150626028836142f4565b915061506d82615006565b604082019050919050565b6000602082019050818103600083015261509181615055565b9050919050565b7f4f776e657220636f6e6669726d65643a207472616e73706f727465722070696360008201527f6b656420757020746865206c6f61642120546f74616c206d6f6e65792068616460208201527f206265656e2061706f7274656420746f2074686520636f6e7472616374000000604082015250565b600061511a605d836142f4565b915061512582615098565b606082019050919050565b600060208201905081810360008301526151498161510d565b9050919050565b7f546865206f776e6572206861642073657420612077696e6e696e67206f66666560008201527f7200000000000000000000000000000000000000000000000000000000000000602082015250565b60006151ac6021836142f4565b91506151b782615150565b604082019050919050565b600060208201905081810360008301526151db8161519f565b9050919050565b7f57696e6e6572206f666665722068616420616363657074656420616e6420707560008201527f74207468652067756172616e7465652076616c75652061742074686520636f6e60208201527f7472616374000000000000000000000000000000000000000000000000000000604082015250565b60006152646045836142f4565b915061526f826151e2565b606082019050919050565b6000602082019050818103600083015261529381615257565b9050919050565b7f546865207472616e73706f72746572206861642064656c69766572656420746860008201527f65206c6f616420696e2074696d65000000000000000000000000000000000000602082015250565b60006152f6602e836142f4565b91506153018261529a565b604082019050919050565b60006020820190508181036000830152615325816152e9565b9050919050565b7f546865207472616e73706f72746572206861642064656c69766572656420746860008201527f65206c6f61642c206c6174650000000000000000000000000000000000000000602082015250565b6000615388602c836142f4565b91506153938261532c565b604082019050919050565b600060208201905081810360008301526153b78161537b565b905091905056fe546865206163636f756e742068616420616c72656164792077697468647261776e207468652077686f6c65206d6f6e6579214f6e6c79207468652077696e6e6572206f66666572207472616e73706f727465722063616e20706572666f726d207468697320616374696f6e4f6e6c7920746865206f776e6572206f662074686520636f6e74726163742063616e20706572666f726d207468697320616374696f6e546865206f776e6572206f662074686520636f6e74726163742063616e277420706572666f726d207468697320616374696f6e546865206672656967687420736974756174696f6e20697320646966666572656e74206f6620776861742077617320737570706f73656420746f206265a264697066735822122076a25f66c4a73ff23363f4ebdda99e481749a3fd3aadc62e578ec30f6f27f94c64736f6c634300080b0033",
  "immutableReferences": {},
  "source": "// SPDX-License-Identifier: UNLICENSED\npragma solidity ^0.8.11;\n\n/* ------------------------- STRUCTS AND ENUMS ------------------------- */\n\n// Enum to keep the situation organized\nenum FreightSituation {\n    Auction,\n    WaitingConfirmationTransporter,\n    WaitingPickUpLoad,\n    OnCarriage,\n    Stopped,\n    Delivered,\n    DeliveredLate,\n    NotDelivered,\n    Returned\n}\n\n// Represents an address of the freight\nstruct Address {\n    string country;\n    string state;\n    string city;\n    string street;\n    string district; // neighborhood\n    string zipcode;\n    string number;\n}\n\n// Represents one single offer, when the freight is in \"Auction\"\nstruct Offer {\n    address payable address_offer;\n    uint value;\n    uint advance_money;\n}\n\n// Freight details\nstruct FreightDetails {\n    Address origin;\n    Address destination;\n\n    uint256 date_limit_get_load;\n    uint256 date_limit_delivery;\n\n    uint estipulated_value;\n    uint fine_delivery_late;\n    uint guarantee_value; // guarantee value from the transporter, so it does not steal the load or something like that\n}\n\n// Freight flags (setting when each person take an specific action)\nstruct Flags {\n    bool is_advance_taken;\n    bool is_whole_money_taken;\n    bool is_delivery_late_taken;\n}\n\n// smart contract Freight\ncontract Freight {\n    /* ------------------------- INITIALIZERS ------------------------- */\n\n    // global variables\n    address payable owner;\n    FreightDetails freight_details;\n    Offer winning_offer;\n    Offer[] offers;\n    FreightSituation freight_situation;\n\n    // flags\n    Flags flags;\n\n    // constants\n    string constant ONLY_OWNER = \"Only the owner of the contract can perform this action\";\n    string constant ONLY_WINNER_OFFER = \"Only the winner offer transporter can perform this action\";\n    string constant OWNER_CANT = \"The owner of the contract can't perform this action\";\n    string constant FREIGHT_SITUATION_DIFFERENT = \"The freight situation is different of what was supposed to be\";\n    string constant VALUES_DIFFER = \"The values are different\";\n    string constant WHOLE_MONEY_TAKEN = \"The account had already withdrawn the whole money!\";\n\n    // events\n    event Log(address indexed sender, string message);\n\n    constructor() {\n        freight_situation = FreightSituation.Auction;\n        \n        // initialize the flags\n        flags.is_advance_taken = false;\n        flags.is_whole_money_taken = false;\n        flags.is_delivery_late_taken = false;\n    }\n\n    // modifier for owner-only\n    modifier onlyowner() {\n        require (msg.sender == owner, ONLY_OWNER);\n        _;\n    }\n\n    // modifier for winning-only\n    modifier onlywinner() {\n        require (msg.sender == winning_offer.address_offer, ONLY_WINNER_OFFER);\n        _;\n    }\n\n    // setting the owner of the contract\n    function setOwner(address owner_) public {\n        require(owner == address(0));\n        owner = payable(owner_);\n    }\n\n    /* ------------------------- ONLY OWNER FUNCTIONS ------------------------- */\n\n    function setOrigin(\n        string memory country_, string memory state_, string memory city_,\n        string memory street_, string memory district_, string memory zipcode_,\n        string memory number_\n    ) public onlyowner() {\n        freight_details.origin.country = country_;\n        freight_details.origin.state = state_;\n        freight_details.origin.city = city_;\n\n        freight_details.origin.street = street_;\n        freight_details.origin.district = district_;\n        freight_details.origin.zipcode = zipcode_;\n\n        freight_details.origin.number = number_;\n    }\n\n    function setDestination(\n        string memory country_, string memory state_, string memory city_,\n        string memory street_, string memory district_, string memory zipcode_,\n        string memory number_\n    ) public onlyowner() {\n        freight_details.destination.country = country_;\n        freight_details.destination.state = state_;\n        freight_details.destination.city = city_;\n\n        freight_details.destination.street = street_;\n        freight_details.destination.district = district_;\n        freight_details.destination.zipcode = zipcode_;\n\n        freight_details.destination.number = number_;\n    }\n\n    function setDates(\n        uint256 date_limit_get_load_, uint256 date_limit_delivery_\n    ) public onlyowner() {\n        freight_details.date_limit_get_load = date_limit_get_load_;\n        freight_details.date_limit_delivery = date_limit_delivery_;\n    }\n\n    function setValues(\n        uint estipulated_value_, uint fine_delivery_late_, uint guarantee_value_\n    ) public onlyowner() {\n        freight_details.estipulated_value = estipulated_value_;\n        freight_details.fine_delivery_late = fine_delivery_late_;\n        freight_details.guarantee_value = guarantee_value_;\n    }\n\n    function setWinningOffer(uint i) public onlyowner() {\n        require(freight_situation == FreightSituation.Auction, FREIGHT_SITUATION_DIFFERENT);\n        \n        // selecting the winner offer\n        winning_offer = offers[i];\n\n        // change the status of the freight\n        freight_situation = FreightSituation.WaitingConfirmationTransporter;\n\n        emit Log(owner, \"The owner had set a winning offer\");\n    }\n\n    /* ------------------------- OFFERS ------------------------- */\n\n    function createOffer(\n        uint value_, uint advance_money_, address sender\n    ) public {\n        require(freight_situation == FreightSituation.Auction, FREIGHT_SITUATION_DIFFERENT); // the situation must be as Auction\n        require(sender != owner, OWNER_CANT); // owner can't put a offer\n\n        offers.push(Offer({\n            address_offer: payable(sender),\n            value: value_,\n            advance_money: advance_money_\n        }));\n    }\n\n    /* ------------------------- INTERACTIONS ON THE CARRIAGE ------------------------- */\n\n    // winning offer transporter must accept the offer\n    function acceptOffer() public payable onlywinner() {\n        require(msg.value == freight_details.guarantee_value, VALUES_DIFFER); // check if its the exact amount\n        require(freight_situation == FreightSituation.WaitingConfirmationTransporter, FREIGHT_SITUATION_DIFFERENT);\n\n        freight_situation = FreightSituation.WaitingPickUpLoad;\n\n        emit Log(msg.sender, \"Winner offer had accepted and put the guarantee value at the contract\");\n    }\n\n    // the owner confirms the transporter have arrived to pick up the load\n    function pickUpLoad() public onlyowner() payable {\n        require(freight_situation == FreightSituation.WaitingPickUpLoad, FREIGHT_SITUATION_DIFFERENT);\n        require(msg.value == winning_offer.value, VALUES_DIFFER); // owner must put its money into the contract\n\n        freight_situation = FreightSituation.OnCarriage;\n\n        emit Log(msg.sender, \"Owner confirmed: transporter picked up the load! Total money had been aported to the contract\");\n    }\n\n    // the transporter can withdraw the advance money, put it into the contract by the owner\n    function withdrawAdvanceMoney() public onlywinner() {\n        require(!flags.is_advance_taken, \"The account had already withdrawn the advance money\");\n\n        // send advance money from the contract to the transporter account\n        winning_offer.address_offer.transfer(winning_offer.advance_money);\n\n        // set flag that the advance money had already been taken\n        flags.is_advance_taken = true;\n\n        emit Log(msg.sender, \"The transporter had withdrawn the advance money\");\n    }\n\n    /* ------------------------- ACTIONS THE TRANSPORTER CAN PERFORM (ON THE CARRIAGE) ------------------------- */\n\n    // set situation to stopped\n    function stopCarriage() public onlywinner() {\n        require(freight_situation >= FreightSituation.OnCarriage &&\n                freight_situation < FreightSituation.Delivered, FREIGHT_SITUATION_DIFFERENT);\n\n        freight_situation = FreightSituation.Stopped;\n\n        emit Log(msg.sender, \"The transporter had stopped the carriage\");\n    }\n\n    // set situation to on carriage\n    function onCarriage() public onlywinner() {\n        require(freight_situation >= FreightSituation.OnCarriage &&\n                freight_situation < FreightSituation.Delivered, FREIGHT_SITUATION_DIFFERENT);\n        \n        freight_situation = FreightSituation.OnCarriage;\n\n        emit Log(msg.sender, \"The transporter is on the carriage again\");\n    }\n\n    // the transporter had delivered the load into the destination\n    function deliver() public onlywinner() {\n        require(freight_situation == FreightSituation.OnCarriage);\n\n        if (block.timestamp <= freight_details.date_limit_delivery) {\n            freight_situation = FreightSituation.Delivered;\n            emit Log(msg.sender, \"The transporter had delivered the load in time\");\n\n        } else {\n            freight_situation = FreightSituation.DeliveredLate;\n            emit Log(msg.sender, \"The transporter had delivered the load, late\");\n        }\n    }\n\n    // the transporter, after delivering the load, can withdraw the whole money of the contract\n    function withdrawWholeMoney() public onlywinner() {\n        require(freight_situation == FreightSituation.Delivered ||\n                freight_situation == FreightSituation.DeliveredLate, FREIGHT_SITUATION_DIFFERENT);\n        require(!flags.is_whole_money_taken, WHOLE_MONEY_TAKEN);\n\n        // transfer the whole amount of money (including the guarantee fee)\n        if (freight_situation == FreightSituation.Delivered) {\n            winning_offer.address_offer.transfer(address(this).balance);\n        } else {\n            winning_offer.address_offer.transfer(address(this).balance - freight_details.fine_delivery_late);\n        }\n\n        // set the flag\n        flags.is_whole_money_taken = true;\n    }\n\n    // the owner can say the load wasn't delivered (only after the time is higher than the delivery time)\n    // than, change the situation and gets back the whole amount of money of the contract\n    function cancelFreight() public onlyowner() {\n        require(freight_situation == FreightSituation.OnCarriage ||\n                freight_situation == FreightSituation.Stopped, FREIGHT_SITUATION_DIFFERENT);\n        require(block.timestamp > freight_details.date_limit_delivery);\n        require(!flags.is_whole_money_taken, WHOLE_MONEY_TAKEN);\n\n        // change the situation\n        freight_situation = FreightSituation.NotDelivered;\n\n        // transfer the whole money to the owner of the contract\n        owner.transfer(address(this).balance);\n\n        // set the flag\n        flags.is_whole_money_taken = true;\n    }\n\n    // if the transporter had delivered the load in late time, the owner can get its fine of delivery late\n    function withdrawDeliveryLateFine() public onlyowner() {\n        require(freight_situation == FreightSituation.DeliveredLate, FREIGHT_SITUATION_DIFFERENT);\n        require(!flags.is_delivery_late_taken, \"The delivery late fine had alrady been taken\");\n\n        // transfer the fine to the owner\n        owner.transfer(freight_details.fine_delivery_late);\n\n        // set the flag\n        flags.is_delivery_late_taken = true;\n    }\n\n    /* ------------------------- GETTERS ------------------------- */\n\n    function getOrigin() public view returns (\n        string memory, string memory, string memory,\n        string memory, string memory, string memory,\n        string memory\n    ) {\n        return (\n            freight_details.origin.country,\n            freight_details.origin.state,\n            freight_details.origin.city,\n\n            freight_details.origin.street,\n            freight_details.origin.district,\n            freight_details.origin.zipcode,\n\n            freight_details.origin.number\n        );\n    }\n\n    function getDestination() public view returns (\n        string memory, string memory, string memory,\n        string memory, string memory, string memory,\n        string memory\n    ) {\n        return (\n            freight_details.destination.country,\n            freight_details.destination.state,\n            freight_details.destination.city,\n\n            freight_details.destination.street,\n            freight_details.destination.district,\n            freight_details.destination.zipcode,\n\n            freight_details.destination.number\n        );\n    }\n\n    function getFreightSituation() public view returns (FreightSituation) {\n        return (freight_situation);\n    }\n\n    function getFlags() public view returns (Flags memory) {\n        return (flags);\n    }\n\n    function getOffers() public view returns (Offer[] memory) {\n        return (offers);\n    }\n\n    function getOffer(uint index) public view returns (Offer memory) {\n        return (offers[index]);\n    }\n\n    function getBalance() public view returns (uint256) {\n        return address(this).balance;\n    }\n\n    function getValues() public view returns (uint, uint, uint) {\n        return (freight_details.estipulated_value, freight_details.fine_delivery_late, freight_details.guarantee_value);\n    }\n\n    function getContractAddress() public view returns (address) {\n        return address(this);\n    }\n\n    function getFreightDetails() public view returns (FreightDetails memory) {\n        return (freight_details);\n    }\n    \n    function getWinningOffer() public view returns (Offer memory) {\n        return (winning_offer);\n    }\n\n    function getFreight() public view returns (FreightSituation, FreightDetails memory, address, Flags memory) {\n        return (freight_situation, freight_details, owner, flags);\n    }\n}",
  "sourcePath": "/home/anthony_kamers/Desktop/UFSC/2021.2/blockchain/projeto/contracts/Freight.sol",
  "compiler": {
    "name": "solc",
    "version": "0.8.11+commit.d7f03943.Emscripten.clang"
  },
  "schemaVersion": "3.4.4",
  "updatedAt": "2022-03-01T22:12:41.105Z",
  "devdoc": {
    "kind": "dev",
    "methods": {},
    "version": 1
  },
  "userdoc": {
    "kind": "user",
    "methods": {},
    "version": 1
  }
}