{
  "contractName": "Freight",
  "abi": [
    {
      "inputs": [],
      "stateMutability": "nonpayable",
      "type": "constructor"
    },
    {
      "anonymous": false,
      "inputs": [
        {
          "indexed": true,
          "internalType": "address",
          "name": "sender",
          "type": "address"
        },
        {
          "indexed": false,
          "internalType": "string",
          "name": "message",
          "type": "string"
        }
      ],
      "name": "Log",
      "type": "event"
    },
    {
      "inputs": [
        {
          "internalType": "string",
          "name": "country_",
          "type": "string"
        },
        {
          "internalType": "string",
          "name": "state_",
          "type": "string"
        },
        {
          "internalType": "string",
          "name": "city_",
          "type": "string"
        },
        {
          "internalType": "string",
          "name": "street_",
          "type": "string"
        },
        {
          "internalType": "string",
          "name": "district_",
          "type": "string"
        },
        {
          "internalType": "string",
          "name": "zipcode_",
          "type": "string"
        },
        {
          "internalType": "string",
          "name": "number_",
          "type": "string"
        }
      ],
      "name": "setOrigin",
      "outputs": [],
      "stateMutability": "nonpayable",
      "type": "function"
    },
    {
      "inputs": [
        {
          "internalType": "string",
          "name": "country_",
          "type": "string"
        },
        {
          "internalType": "string",
          "name": "state_",
          "type": "string"
        },
        {
          "internalType": "string",
          "name": "city_",
          "type": "string"
        },
        {
          "internalType": "string",
          "name": "street_",
          "type": "string"
        },
        {
          "internalType": "string",
          "name": "district_",
          "type": "string"
        },
        {
          "internalType": "string",
          "name": "zipcode_",
          "type": "string"
        },
        {
          "internalType": "string",
          "name": "number_",
          "type": "string"
        }
      ],
      "name": "setDestination",
      "outputs": [],
      "stateMutability": "nonpayable",
      "type": "function"
    },
    {
      "inputs": [
        {
          "internalType": "uint256",
          "name": "date_limit_get_load_",
          "type": "uint256"
        },
        {
          "internalType": "uint256",
          "name": "date_limit_delivery_",
          "type": "uint256"
        }
      ],
      "name": "setDates",
      "outputs": [],
      "stateMutability": "nonpayable",
      "type": "function"
    },
    {
      "inputs": [
        {
          "internalType": "uint256",
          "name": "estipulated_value_",
          "type": "uint256"
        },
        {
          "internalType": "uint256",
          "name": "fine_delivery_late_",
          "type": "uint256"
        },
        {
          "internalType": "uint256",
          "name": "guarantee_value_",
          "type": "uint256"
        }
      ],
      "name": "setValues",
      "outputs": [],
      "stateMutability": "nonpayable",
      "type": "function"
    },
    {
      "inputs": [
        {
          "internalType": "uint256",
          "name": "i",
          "type": "uint256"
        }
      ],
      "name": "setWinningOffer",
      "outputs": [],
      "stateMutability": "nonpayable",
      "type": "function"
    },
    {
      "inputs": [
        {
          "internalType": "uint256",
          "name": "value_",
          "type": "uint256"
        },
        {
          "internalType": "uint256",
          "name": "advance_money_",
          "type": "uint256"
        }
      ],
      "name": "addOffer",
      "outputs": [],
      "stateMutability": "nonpayable",
      "type": "function"
    },
    {
      "inputs": [],
      "name": "acceptOffer",
      "outputs": [],
      "stateMutability": "payable",
      "type": "function"
    },
    {
      "inputs": [],
      "name": "pickUpLoad",
      "outputs": [],
      "stateMutability": "payable",
      "type": "function"
    },
    {
      "inputs": [],
      "name": "withdrawAdvanceMoney",
      "outputs": [],
      "stateMutability": "nonpayable",
      "type": "function"
    },
    {
      "inputs": [],
      "name": "stopCarriage",
      "outputs": [],
      "stateMutability": "nonpayable",
      "type": "function"
    },
    {
      "inputs": [],
      "name": "onCarriage",
      "outputs": [],
      "stateMutability": "nonpayable",
      "type": "function"
    },
    {
      "inputs": [],
      "name": "deliver",
      "outputs": [],
      "stateMutability": "nonpayable",
      "type": "function"
    },
    {
      "inputs": [],
      "name": "withdrawWholeMoney",
      "outputs": [],
      "stateMutability": "nonpayable",
      "type": "function"
    },
    {
      "inputs": [],
      "name": "cancelFreight",
      "outputs": [],
      "stateMutability": "nonpayable",
      "type": "function"
    },
    {
      "inputs": [],
      "name": "getDeliveryLateFine",
      "outputs": [],
      "stateMutability": "nonpayable",
      "type": "function"
    },
    {
      "inputs": [],
      "name": "getOrigin",
      "outputs": [
        {
          "internalType": "string",
          "name": "",
          "type": "string"
        },
        {
          "internalType": "string",
          "name": "",
          "type": "string"
        },
        {
          "internalType": "string",
          "name": "",
          "type": "string"
        },
        {
          "internalType": "string",
          "name": "",
          "type": "string"
        },
        {
          "internalType": "string",
          "name": "",
          "type": "string"
        },
        {
          "internalType": "string",
          "name": "",
          "type": "string"
        },
        {
          "internalType": "string",
          "name": "",
          "type": "string"
        }
      ],
      "stateMutability": "view",
      "type": "function"
    },
    {
      "inputs": [],
      "name": "getDestination",
      "outputs": [
        {
          "internalType": "string",
          "name": "",
          "type": "string"
        },
        {
          "internalType": "string",
          "name": "",
          "type": "string"
        },
        {
          "internalType": "string",
          "name": "",
          "type": "string"
        },
        {
          "internalType": "string",
          "name": "",
          "type": "string"
        },
        {
          "internalType": "string",
          "name": "",
          "type": "string"
        },
        {
          "internalType": "string",
          "name": "",
          "type": "string"
        },
        {
          "internalType": "string",
          "name": "",
          "type": "string"
        }
      ],
      "stateMutability": "view",
      "type": "function"
    },
    {
      "inputs": [],
      "name": "getFreightSituation",
      "outputs": [
        {
          "internalType": "enum Freight.FreightSituation",
          "name": "",
          "type": "uint8"
        }
      ],
      "stateMutability": "view",
      "type": "function"
    },
    {
      "inputs": [],
      "name": "getOffers",
      "outputs": [
        {
          "components": [
            {
              "internalType": "address payable",
              "name": "address_offer",
              "type": "address"
            },
            {
              "internalType": "uint256",
              "name": "value",
              "type": "uint256"
            },
            {
              "internalType": "uint256",
              "name": "advance_money",
              "type": "uint256"
            }
          ],
          "internalType": "struct Freight.Offer[]",
          "name": "",
          "type": "tuple[]"
        }
      ],
      "stateMutability": "view",
      "type": "function"
    },
    {
      "inputs": [],
      "name": "getBalance",
      "outputs": [
        {
          "internalType": "uint256",
          "name": "",
          "type": "uint256"
        }
      ],
      "stateMutability": "view",
      "type": "function"
    },
    {
      "inputs": [],
      "name": "getValues",
      "outputs": [
        {
          "internalType": "uint256",
          "name": "",
          "type": "uint256"
        },
        {
          "internalType": "uint256",
          "name": "",
          "type": "uint256"
        },
        {
          "internalType": "uint256",
          "name": "",
          "type": "uint256"
        }
      ],
      "stateMutability": "view",
      "type": "function"
    }
  ],
  "bytecode": "0x60806040523480156200001157600080fd5b50336000806101000a81548173ffffffffffffffffffffffffffffffffffffffff021916908373ffffffffffffffffffffffffffffffffffffffff1602179055506000601860006101000a81548160ff021916908360088111156200007b576200007a620000d7565b5b02179055506000601860016101000a81548160ff0219169083151502179055506000601860026101000a81548160ff0219169083151502179055506000601860036101000a81548160ff02191690831515021790555062000106565b7f4e487b7100000000000000000000000000000000000000000000000000000000600052602160045260246000fd5b613a9a80620001166000396000f3fe60806040526004361061012a5760003560e01c806362697ad7116100ab578063b5ed7bb11161006f578063b5ed7bb11461031d578063c6397bd814610346578063dedf141e1461036f578063df1f29ee14610398578063eb62df61146103c9578063fd3e50a7146103d35761012a565b806362697ad71461029357806375135256146102aa578063755f5196146102c157806392a81d17146102ea578063abdd1097146103135761012a565b806322eddc47116100f257806322eddc47146101f8578063281c492c146102235780633ee992ee1461023a5780635730e7991461026557806357ca3b9b1461027c5761012a565b8063111be3161461012f57806312065fe01461015857806316ad95421461018357806319eb4a90146101b45780631c1fdea5146101e1575b600080fd5b34801561013b57600080fd5b5061015660048036038101906101519190612b54565b6103ea565b005b34801561016457600080fd5b5061016d6104b7565b60405161017a9190612bb6565b60405180910390f35b34801561018f57600080fd5b506101986104bf565b6040516101ab9796959493929190612c6a565b60405180910390f35b3480156101c057600080fd5b506101c96108ed565b6040516101d893929190612d0a565b60405180910390f35b3480156101ed57600080fd5b506101f661090f565b005b34801561020457600080fd5b5061020d610bb5565b60405161021a9190612db8565b60405180910390f35b34801561022f57600080fd5b50610238610bcc565b005b34801561024657600080fd5b5061024f610de1565b60405161025c9190612f14565b60405180910390f35b34801561027157600080fd5b5061027a610eaa565b005b34801561028857600080fd5b506102916110a4565b005b34801561029f57600080fd5b506102a86113d6565b005b3480156102b657600080fd5b506102bf6115af565b005b3480156102cd57600080fd5b506102e860048036038101906102e39190612f36565b6117a9565b005b3480156102f657600080fd5b50610311600480360381019061030c91906130ab565b6119a3565b005b61031b611b21565b005b34801561032957600080fd5b50610344600480360381019061033f9190613211565b611d56565b005b34801561035257600080fd5b5061036d600480360381019061036891906130ab565b611fce565b005b34801561037b57600080fd5b5061039660048036038101906103919190612f36565b61214c565b005b3480156103a457600080fd5b506103ad61220e565b6040516103c09796959493929190612c6a565b60405180910390f35b6103d161263c565b005b3480156103df57600080fd5b506103e8612876565b005b60008054906101000a900473ffffffffffffffffffffffffffffffffffffffff1673ffffffffffffffffffffffffffffffffffffffff163373ffffffffffffffffffffffffffffffffffffffff16146040518060600160405280603681526020016139bf6036913990610493576040517f08c379a000000000000000000000000000000000000000000000000000000000815260040161048a919061323e565b60405180910390fd5b50826001601001819055508160016011018190555080600160120181905550505050565b600047905090565b6060806060806060806060600160070160000160016007016001016001600701600201600160070160030160016007016004016001600701600501600160070160060186805461050e9061328f565b80601f016020809104026020016040519081016040528092919081815260200182805461053a9061328f565b80156105875780601f1061055c57610100808354040283529160200191610587565b820191906000526020600020905b81548152906001019060200180831161056a57829003601f168201915b5050505050965085805461059a9061328f565b80601f01602080910402602001604051908101604052809291908181526020018280546105c69061328f565b80156106135780601f106105e857610100808354040283529160200191610613565b820191906000526020600020905b8154815290600101906020018083116105f657829003601f168201915b505050505095508480546106269061328f565b80601f01602080910402602001604051908101604052809291908181526020018280546106529061328f565b801561069f5780601f106106745761010080835404028352916020019161069f565b820191906000526020600020905b81548152906001019060200180831161068257829003601f168201915b505050505094508380546106b29061328f565b80601f01602080910402602001604051908101604052809291908181526020018280546106de9061328f565b801561072b5780601f106107005761010080835404028352916020019161072b565b820191906000526020600020905b81548152906001019060200180831161070e57829003601f168201915b5050505050935082805461073e9061328f565b80601f016020809104026020016040519081016040528092919081815260200182805461076a9061328f565b80156107b75780601f1061078c576101008083540402835291602001916107b7565b820191906000526020600020905b81548152906001019060200180831161079a57829003601f168201915b505050505092508180546107ca9061328f565b80601f01602080910402602001604051908101604052809291908181526020018280546107f69061328f565b80156108435780601f1061081857610100808354040283529160200191610843565b820191906000526020600020905b81548152906001019060200180831161082657829003601f168201915b505050505091508080546108569061328f565b80601f01602080910402602001604051908101604052809291908181526020018280546108829061328f565b80156108cf5780601f106108a4576101008083540402835291602001916108cf565b820191906000526020600020905b8154815290600101906020018083116108b257829003601f168201915b50505050509050965096509650965096509650965090919293949596565b6000806000600160100154600160110154600160120154925092509250909192565b60008054906101000a900473ffffffffffffffffffffffffffffffffffffffff1673ffffffffffffffffffffffffffffffffffffffff163373ffffffffffffffffffffffffffffffffffffffff16146040518060600160405280603681526020016139bf60369139906109b8576040517f08c379a00000000000000000000000000000000000000000000000000000000081526004016109af919061323e565b60405180910390fd5b50600360088111156109cd576109cc612d41565b5b601860009054906101000a900460ff1660088111156109ef576109ee612d41565b5b1480610a2e575060046008811115610a0a57610a09612d41565b5b601860009054906101000a900460ff166008811115610a2c57610a2b612d41565b5b145b6040518060600160405280603d8152602001613a28603d913990610a88576040517f08c379a0000000000000000000000000000000000000000000000000000000008152600401610a7f919061323e565b60405180910390fd5b506001600f01544211610a9a57600080fd5b601860029054906101000a900460ff16156040518060600160405280603281526020016139546032913990610b05576040517f08c379a0000000000000000000000000000000000000000000000000000000008152600401610afc919061323e565b60405180910390fd5b506007601860006101000a81548160ff02191690836008811115610b2c57610b2b612d41565b5b021790555060008054906101000a900473ffffffffffffffffffffffffffffffffffffffff1673ffffffffffffffffffffffffffffffffffffffff166108fc479081150290604051600060405180830381858888f19350505050158015610b97573d6000803e3d6000fd5b506001601860026101000a81548160ff021916908315150217905550565b6000601860009054906101000a900460ff16905090565b60008054906101000a900473ffffffffffffffffffffffffffffffffffffffff1673ffffffffffffffffffffffffffffffffffffffff163373ffffffffffffffffffffffffffffffffffffffff16146040518060600160405280603681526020016139bf6036913990610c75576040517f08c379a0000000000000000000000000000000000000000000000000000000008152600401610c6c919061323e565b60405180910390fd5b5060066008811115610c8a57610c89612d41565b5b601860009054906101000a900460ff166008811115610cac57610cab612d41565b5b146040518060600160405280603d8152602001613a28603d913990610d07576040517f08c379a0000000000000000000000000000000000000000000000000000000008152600401610cfe919061323e565b60405180910390fd5b50601860039054906101000a900460ff1615610d58576040517f08c379a0000000000000000000000000000000000000000000000000000000008152600401610d4f90613333565b60405180910390fd5b60008054906101000a900473ffffffffffffffffffffffffffffffffffffffff1673ffffffffffffffffffffffffffffffffffffffff166108fc6001601101549081150290604051600060405180830381858888f19350505050158015610dc3573d6000803e3d6000fd5b506001601860036101000a81548160ff021916908315150217905550565b60606017805480602002602001604051908101604052809291908181526020016000905b82821015610ea157838290600052602060002090600302016040518060600160405290816000820160009054906101000a900473ffffffffffffffffffffffffffffffffffffffff1673ffffffffffffffffffffffffffffffffffffffff1673ffffffffffffffffffffffffffffffffffffffff1681526020016001820154815260200160028201548152505081526020019060010190610e05565b50505050905090565b601460000160009054906101000a900473ffffffffffffffffffffffffffffffffffffffff1673ffffffffffffffffffffffffffffffffffffffff163373ffffffffffffffffffffffffffffffffffffffff16146040518060600160405280603981526020016139866039913990610f58576040517f08c379a0000000000000000000000000000000000000000000000000000000008152600401610f4f919061323e565b60405180910390fd5b5060036008811115610f6d57610f6c612d41565b5b601860009054906101000a900460ff166008811115610f8f57610f8e612d41565b5b10158015610fd0575060056008811115610fac57610fab612d41565b5b601860009054906101000a900460ff166008811115610fce57610fcd612d41565b5b105b6040518060600160405280603d8152602001613a28603d91399061102a576040517f08c379a0000000000000000000000000000000000000000000000000000000008152600401611021919061323e565b60405180910390fd5b506003601860006101000a81548160ff0219169083600881111561105157611050612d41565b5b02179055503373ffffffffffffffffffffffffffffffffffffffff167f0738f4da267a110d810e6e89fc59e46be6de0c37b1d5cd559b267dc3688e74e060405161109a906133c5565b60405180910390a2565b601460000160009054906101000a900473ffffffffffffffffffffffffffffffffffffffff1673ffffffffffffffffffffffffffffffffffffffff163373ffffffffffffffffffffffffffffffffffffffff16146040518060600160405280603981526020016139866039913990611152576040517f08c379a0000000000000000000000000000000000000000000000000000000008152600401611149919061323e565b60405180910390fd5b506005600881111561116757611166612d41565b5b601860009054906101000a900460ff16600881111561118957611188612d41565b5b14806111c85750600660088111156111a4576111a3612d41565b5b601860009054906101000a900460ff1660088111156111c6576111c5612d41565b5b145b6040518060600160405280603d8152602001613a28603d913990611222576040517f08c379a0000000000000000000000000000000000000000000000000000000008152600401611219919061323e565b60405180910390fd5b50601860029054906101000a900460ff1615604051806060016040528060328152602001613954603291399061128e576040517f08c379a0000000000000000000000000000000000000000000000000000000008152600401611285919061323e565b60405180910390fd5b50600560088111156112a3576112a2612d41565b5b601860009054906101000a900460ff1660088111156112c5576112c4612d41565b5b141561133c57601460000160009054906101000a900473ffffffffffffffffffffffffffffffffffffffff1673ffffffffffffffffffffffffffffffffffffffff166108fc479081150290604051600060405180830381858888f19350505050158015611336573d6000803e3d6000fd5b506113b9565b601460000160009054906101000a900473ffffffffffffffffffffffffffffffffffffffff1673ffffffffffffffffffffffffffffffffffffffff166108fc6001601101544761138c9190613414565b9081150290604051600060405180830381858888f193505050501580156113b7573d6000803e3d6000fd5b505b6001601860026101000a81548160ff021916908315150217905550565b601460000160009054906101000a900473ffffffffffffffffffffffffffffffffffffffff1673ffffffffffffffffffffffffffffffffffffffff163373ffffffffffffffffffffffffffffffffffffffff16146040518060600160405280603981526020016139866039913990611484576040517f08c379a000000000000000000000000000000000000000000000000000000000815260040161147b919061323e565b60405180910390fd5b50601860019054906101000a900460ff16156114d5576040517f08c379a00000000000000000000000000000000000000000000000000000000081526004016114cc906134ba565b60405180910390fd5b601460000160009054906101000a900473ffffffffffffffffffffffffffffffffffffffff1673ffffffffffffffffffffffffffffffffffffffff166108fc6014600201549081150290604051600060405180830381858888f19350505050158015611545573d6000803e3d6000fd5b506001601860016101000a81548160ff0219169083151502179055503373ffffffffffffffffffffffffffffffffffffffff167f0738f4da267a110d810e6e89fc59e46be6de0c37b1d5cd559b267dc3688e74e06040516115a59061354c565b60405180910390a2565b601460000160009054906101000a900473ffffffffffffffffffffffffffffffffffffffff1673ffffffffffffffffffffffffffffffffffffffff163373ffffffffffffffffffffffffffffffffffffffff1614604051806060016040528060398152602001613986603991399061165d576040517f08c379a0000000000000000000000000000000000000000000000000000000008152600401611654919061323e565b60405180910390fd5b506003600881111561167257611671612d41565b5b601860009054906101000a900460ff16600881111561169457611693612d41565b5b101580156116d55750600560088111156116b1576116b0612d41565b5b601860009054906101000a900460ff1660088111156116d3576116d2612d41565b5b105b6040518060600160405280603d8152602001613a28603d91399061172f576040517f08c379a0000000000000000000000000000000000000000000000000000000008152600401611726919061323e565b60405180910390fd5b506004601860006101000a81548160ff0219169083600881111561175657611755612d41565b5b02179055503373ffffffffffffffffffffffffffffffffffffffff167f0738f4da267a110d810e6e89fc59e46be6de0c37b1d5cd559b267dc3688e74e060405161179f906135de565b60405180910390a2565b600060088111156117bd576117bc612d41565b5b601860009054906101000a900460ff1660088111156117df576117de612d41565b5b146040518060600160405280603d8152602001613a28603d91399061183a576040517f08c379a0000000000000000000000000000000000000000000000000000000008152600401611831919061323e565b60405180910390fd5b5060008054906101000a900473ffffffffffffffffffffffffffffffffffffffff1673ffffffffffffffffffffffffffffffffffffffff163373ffffffffffffffffffffffffffffffffffffffff1614156040518060600160405280603381526020016139f560339139906118e5576040517f08c379a00000000000000000000000000000000000000000000000000000000081526004016118dc919061323e565b60405180910390fd5b50601760405180606001604052803373ffffffffffffffffffffffffffffffffffffffff16815260200184815260200183815250908060018154018082558091505060019003906000526020600020906003020160009091909190915060008201518160000160006101000a81548173ffffffffffffffffffffffffffffffffffffffff021916908373ffffffffffffffffffffffffffffffffffffffff160217905550602082015181600101556040820151816002015550505050565b60008054906101000a900473ffffffffffffffffffffffffffffffffffffffff1673ffffffffffffffffffffffffffffffffffffffff163373ffffffffffffffffffffffffffffffffffffffff16146040518060600160405280603681526020016139bf6036913990611a4c576040517f08c379a0000000000000000000000000000000000000000000000000000000008152600401611a43919061323e565b60405180910390fd5b508660016007016000019080519060200190611a69929190612a67565b508560016007016001019080519060200190611a86929190612a67565b508460016007016002019080519060200190611aa3929190612a67565b508360016007016003019080519060200190611ac0929190612a67565b508260016007016004019080519060200190611add929190612a67565b508160016007016005019080519060200190611afa929190612a67565b508060016007016006019080519060200190611b17929190612a67565b5050505050505050565b60008054906101000a900473ffffffffffffffffffffffffffffffffffffffff1673ffffffffffffffffffffffffffffffffffffffff163373ffffffffffffffffffffffffffffffffffffffff16146040518060600160405280603681526020016139bf6036913990611bca576040517f08c379a0000000000000000000000000000000000000000000000000000000008152600401611bc1919061323e565b60405180910390fd5b5060026008811115611bdf57611bde612d41565b5b601860009054906101000a900460ff166008811115611c0157611c00612d41565b5b146040518060600160405280603d8152602001613a28603d913990611c5c576040517f08c379a0000000000000000000000000000000000000000000000000000000008152600401611c53919061323e565b60405180910390fd5b5060146001015434146040518060400160405280601881526020017f5468652076616c7565732061726520646966666572656e74000000000000000081525090611cdc576040517f08c379a0000000000000000000000000000000000000000000000000000000008152600401611cd3919061323e565b60405180910390fd5b506003601860006101000a81548160ff02191690836008811115611d0357611d02612d41565b5b02179055503373ffffffffffffffffffffffffffffffffffffffff167f0738f4da267a110d810e6e89fc59e46be6de0c37b1d5cd559b267dc3688e74e0604051611d4c90613696565b60405180910390a2565b60008054906101000a900473ffffffffffffffffffffffffffffffffffffffff1673ffffffffffffffffffffffffffffffffffffffff163373ffffffffffffffffffffffffffffffffffffffff16146040518060600160405280603681526020016139bf6036913990611dff576040517f08c379a0000000000000000000000000000000000000000000000000000000008152600401611df6919061323e565b60405180910390fd5b5060006008811115611e1457611e13612d41565b5b601860009054906101000a900460ff166008811115611e3657611e35612d41565b5b146040518060600160405280603d8152602001613a28603d913990611e91576040517f08c379a0000000000000000000000000000000000000000000000000000000008152600401611e88919061323e565b60405180910390fd5b5060178181548110611ea657611ea56136b6565b5b906000526020600020906003020160146000820160009054906101000a900473ffffffffffffffffffffffffffffffffffffffff168160000160006101000a81548173ffffffffffffffffffffffffffffffffffffffff021916908373ffffffffffffffffffffffffffffffffffffffff16021790555060018201548160010155600282015481600201559050506001601860006101000a81548160ff02191690836008811115611f5a57611f59612d41565b5b021790555060008054906101000a900473ffffffffffffffffffffffffffffffffffffffff1673ffffffffffffffffffffffffffffffffffffffff167f0738f4da267a110d810e6e89fc59e46be6de0c37b1d5cd559b267dc3688e74e0604051611fc390613757565b60405180910390a250565b60008054906101000a900473ffffffffffffffffffffffffffffffffffffffff1673ffffffffffffffffffffffffffffffffffffffff163373ffffffffffffffffffffffffffffffffffffffff16146040518060600160405280603681526020016139bf6036913990612077576040517f08c379a000000000000000000000000000000000000000000000000000000000815260040161206e919061323e565b60405180910390fd5b508660016000016000019080519060200190612094929190612a67565b5085600160000160010190805190602001906120b1929190612a67565b5084600160000160020190805190602001906120ce929190612a67565b5083600160000160030190805190602001906120eb929190612a67565b508260016000016004019080519060200190612108929190612a67565b508160016000016005019080519060200190612125929190612a67565b508060016000016006019080519060200190612142929190612a67565b5050505050505050565b60008054906101000a900473ffffffffffffffffffffffffffffffffffffffff1673ffffffffffffffffffffffffffffffffffffffff163373ffffffffffffffffffffffffffffffffffffffff16146040518060600160405280603681526020016139bf60369139906121f5576040517f08c379a00000000000000000000000000000000000000000000000000000000081526004016121ec919061323e565b60405180910390fd5b50816001600e0181905550806001600f01819055505050565b6060806060806060806060600160000160000160016000016001016001600001600201600160000160030160016000016004016001600001600501600160000160060186805461225d9061328f565b80601f01602080910402602001604051908101604052809291908181526020018280546122899061328f565b80156122d65780601f106122ab576101008083540402835291602001916122d6565b820191906000526020600020905b8154815290600101906020018083116122b957829003601f168201915b505050505096508580546122e99061328f565b80601f01602080910402602001604051908101604052809291908181526020018280546123159061328f565b80156123625780601f1061233757610100808354040283529160200191612362565b820191906000526020600020905b81548152906001019060200180831161234557829003601f168201915b505050505095508480546123759061328f565b80601f01602080910402602001604051908101604052809291908181526020018280546123a19061328f565b80156123ee5780601f106123c3576101008083540402835291602001916123ee565b820191906000526020600020905b8154815290600101906020018083116123d157829003601f168201915b505050505094508380546124019061328f565b80601f016020809104026020016040519081016040528092919081815260200182805461242d9061328f565b801561247a5780601f1061244f5761010080835404028352916020019161247a565b820191906000526020600020905b81548152906001019060200180831161245d57829003601f168201915b5050505050935082805461248d9061328f565b80601f01602080910402602001604051908101604052809291908181526020018280546124b99061328f565b80156125065780601f106124db57610100808354040283529160200191612506565b820191906000526020600020905b8154815290600101906020018083116124e957829003601f168201915b505050505092508180546125199061328f565b80601f01602080910402602001604051908101604052809291908181526020018280546125459061328f565b80156125925780601f1061256757610100808354040283529160200191612592565b820191906000526020600020905b81548152906001019060200180831161257557829003601f168201915b505050505091508080546125a59061328f565b80601f01602080910402602001604051908101604052809291908181526020018280546125d19061328f565b801561261e5780601f106125f35761010080835404028352916020019161261e565b820191906000526020600020905b81548152906001019060200180831161260157829003601f168201915b50505050509050965096509650965096509650965090919293949596565b601460000160009054906101000a900473ffffffffffffffffffffffffffffffffffffffff1673ffffffffffffffffffffffffffffffffffffffff163373ffffffffffffffffffffffffffffffffffffffff161460405180606001604052806039815260200161398660399139906126ea576040517f08c379a00000000000000000000000000000000000000000000000000000000081526004016126e1919061323e565b60405180910390fd5b5060016012015434146040518060400160405280601881526020017f5468652076616c7565732061726520646966666572656e7400000000000000008152509061276a576040517f08c379a0000000000000000000000000000000000000000000000000000000008152600401612761919061323e565b60405180910390fd5b506001600881111561277f5761277e612d41565b5b601860009054906101000a900460ff1660088111156127a1576127a0612d41565b5b146040518060600160405280603d8152602001613a28603d9139906127fc576040517f08c379a00000000000000000000000000000000000000000000000000000000081526004016127f3919061323e565b60405180910390fd5b506002601860006101000a81548160ff0219169083600881111561282357612822612d41565b5b02179055503373ffffffffffffffffffffffffffffffffffffffff167f0738f4da267a110d810e6e89fc59e46be6de0c37b1d5cd559b267dc3688e74e060405161286c9061380f565b60405180910390a2565b601460000160009054906101000a900473ffffffffffffffffffffffffffffffffffffffff1673ffffffffffffffffffffffffffffffffffffffff163373ffffffffffffffffffffffffffffffffffffffff16146040518060600160405280603981526020016139866039913990612924576040517f08c379a000000000000000000000000000000000000000000000000000000000815260040161291b919061323e565b60405180910390fd5b506003600881111561293957612938612d41565b5b601860009054906101000a900460ff16600881111561295b5761295a612d41565b5b1461296557600080fd5b6001600f015442116129ed576005601860006101000a81548160ff0219169083600881111561299757612996612d41565b5b02179055503373ffffffffffffffffffffffffffffffffffffffff167f0738f4da267a110d810e6e89fc59e46be6de0c37b1d5cd559b267dc3688e74e06040516129e0906138a1565b60405180910390a2612a65565b6006601860006101000a81548160ff02191690836008811115612a1357612a12612d41565b5b02179055503373ffffffffffffffffffffffffffffffffffffffff167f0738f4da267a110d810e6e89fc59e46be6de0c37b1d5cd559b267dc3688e74e0604051612a5c90613933565b60405180910390a25b565b828054612a739061328f565b90600052602060002090601f016020900481019282612a955760008555612adc565b82601f10612aae57805160ff1916838001178555612adc565b82800160010185558215612adc579182015b82811115612adb578251825591602001919060010190612ac0565b5b509050612ae99190612aed565b5090565b5b80821115612b06576000816000905550600101612aee565b5090565b6000604051905090565b600080fd5b600080fd5b6000819050919050565b612b3181612b1e565b8114612b3c57600080fd5b50565b600081359050612b4e81612b28565b92915050565b600080600060608486031215612b6d57612b6c612b14565b5b6000612b7b86828701612b3f565b9350506020612b8c86828701612b3f565b9250506040612b9d86828701612b3f565b9150509250925092565b612bb081612b1e565b82525050565b6000602082019050612bcb6000830184612ba7565b92915050565b600081519050919050565b600082825260208201905092915050565b60005b83811015612c0b578082015181840152602081019050612bf0565b83811115612c1a576000848401525b50505050565b6000601f19601f8301169050919050565b6000612c3c82612bd1565b612c468185612bdc565b9350612c56818560208601612bed565b612c5f81612c20565b840191505092915050565b600060e0820190508181036000830152612c84818a612c31565b90508181036020830152612c988189612c31565b90508181036040830152612cac8188612c31565b90508181036060830152612cc08187612c31565b90508181036080830152612cd48186612c31565b905081810360a0830152612ce88185612c31565b905081810360c0830152612cfc8184612c31565b905098975050505050505050565b6000606082019050612d1f6000830186612ba7565b612d2c6020830185612ba7565b612d396040830184612ba7565b949350505050565b7f4e487b7100000000000000000000000000000000000000000000000000000000600052602160045260246000fd5b60098110612d8157612d80612d41565b5b50565b6000819050612d9282612d70565b919050565b6000612da282612d84565b9050919050565b612db281612d97565b82525050565b6000602082019050612dcd6000830184612da9565b92915050565b600081519050919050565b600082825260208201905092915050565b6000819050602082019050919050565b600073ffffffffffffffffffffffffffffffffffffffff82169050919050565b6000612e2a82612dff565b9050919050565b612e3a81612e1f565b82525050565b612e4981612b1e565b82525050565b606082016000820151612e656000850182612e31565b506020820151612e786020850182612e40565b506040820151612e8b6040850182612e40565b50505050565b6000612e9d8383612e4f565b60608301905092915050565b6000602082019050919050565b6000612ec182612dd3565b612ecb8185612dde565b9350612ed683612def565b8060005b83811015612f07578151612eee8882612e91565b9750612ef983612ea9565b925050600181019050612eda565b5085935050505092915050565b60006020820190508181036000830152612f2e8184612eb6565b905092915050565b60008060408385031215612f4d57612f4c612b14565b5b6000612f5b85828601612b3f565b9250506020612f6c85828601612b3f565b9150509250929050565b600080fd5b600080fd5b7f4e487b7100000000000000000000000000000000000000000000000000000000600052604160045260246000fd5b612fb882612c20565b810181811067ffffffffffffffff82111715612fd757612fd6612f80565b5b80604052505050565b6000612fea612b0a565b9050612ff68282612faf565b919050565b600067ffffffffffffffff82111561301657613015612f80565b5b61301f82612c20565b9050602081019050919050565b82818337600083830152505050565b600061304e61304984612ffb565b612fe0565b90508281526020810184848401111561306a57613069612f7b565b5b61307584828561302c565b509392505050565b600082601f83011261309257613091612f76565b5b81356130a284826020860161303b565b91505092915050565b600080600080600080600060e0888a0312156130ca576130c9612b14565b5b600088013567ffffffffffffffff8111156130e8576130e7612b19565b5b6130f48a828b0161307d565b975050602088013567ffffffffffffffff81111561311557613114612b19565b5b6131218a828b0161307d565b965050604088013567ffffffffffffffff81111561314257613141612b19565b5b61314e8a828b0161307d565b955050606088013567ffffffffffffffff81111561316f5761316e612b19565b5b61317b8a828b0161307d565b945050608088013567ffffffffffffffff81111561319c5761319b612b19565b5b6131a88a828b0161307d565b93505060a088013567ffffffffffffffff8111156131c9576131c8612b19565b5b6131d58a828b0161307d565b92505060c088013567ffffffffffffffff8111156131f6576131f5612b19565b5b6132028a828b0161307d565b91505092959891949750929550565b60006020828403121561322757613226612b14565b5b600061323584828501612b3f565b91505092915050565b600060208201905081810360008301526132588184612c31565b905092915050565b7f4e487b7100000000000000000000000000000000000000000000000000000000600052602260045260246000fd5b600060028204905060018216806132a757607f821691505b602082108114156132bb576132ba613260565b5b50919050565b7f5468652064656c6976657279206c6174652066696e652068616420616c72616460008201527f79206265656e2074616b656e0000000000000000000000000000000000000000602082015250565b600061331d602c83612bdc565b9150613328826132c1565b604082019050919050565b6000602082019050818103600083015261334c81613310565b9050919050565b7f546865207472616e73706f72746572206973206f6e207468652063617272696160008201527f676520616761696e000000000000000000000000000000000000000000000000602082015250565b60006133af602883612bdc565b91506133ba82613353565b604082019050919050565b600060208201905081810360008301526133de816133a2565b9050919050565b7f4e487b7100000000000000000000000000000000000000000000000000000000600052601160045260246000fd5b600061341f82612b1e565b915061342a83612b1e565b92508282101561343d5761343c6133e5565b5b828203905092915050565b7f546865206163636f756e742068616420616c726561647920776974686472617760008201527f6e2074686520616476616e6365206d6f6e657900000000000000000000000000602082015250565b60006134a4603383612bdc565b91506134af82613448565b604082019050919050565b600060208201905081810360008301526134d381613497565b9050919050565b7f546865207472616e73706f72746572206861642077697468647261776e20746860008201527f6520616476616e6365206d6f6e65790000000000000000000000000000000000602082015250565b6000613536602f83612bdc565b9150613541826134da565b604082019050919050565b6000602082019050818103600083015261356581613529565b9050919050565b7f546865207472616e73706f72746572206861642073746f70706564207468652060008201527f6361727269616765000000000000000000000000000000000000000000000000602082015250565b60006135c8602883612bdc565b91506135d38261356c565b604082019050919050565b600060208201905081810360008301526135f7816135bb565b9050919050565b7f4f776e657220636f6e6669726d65643a207472616e73706f727465722070696360008201527f6b656420757020746865206c6f61642120546f74616c206d6f6e65792068616460208201527f206265656e2061706f7274656420746f2074686520636f6e7472616374000000604082015250565b6000613680605d83612bdc565b915061368b826135fe565b606082019050919050565b600060208201905081810360008301526136af81613673565b9050919050565b7f4e487b7100000000000000000000000000000000000000000000000000000000600052603260045260246000fd5b7f546865206f776e6572206861642073657420612077696e6e696e67206f66666560008201527f7200000000000000000000000000000000000000000000000000000000000000602082015250565b6000613741602183612bdc565b915061374c826136e5565b604082019050919050565b6000602082019050818103600083015261377081613734565b9050919050565b7f57696e6e6572206f666665722068616420616363657074656420616e6420707560008201527f74207468652067756172616e7465652076616c75652061742074686520636f6e60208201527f7472616374000000000000000000000000000000000000000000000000000000604082015250565b60006137f9604583612bdc565b915061380482613777565b606082019050919050565b60006020820190508181036000830152613828816137ec565b9050919050565b7f546865207472616e73706f72746572206861642064656c69766572656420746860008201527f65206c6f616420696e2074696d65000000000000000000000000000000000000602082015250565b600061388b602e83612bdc565b91506138968261382f565b604082019050919050565b600060208201905081810360008301526138ba8161387e565b9050919050565b7f546865207472616e73706f72746572206861642064656c69766572656420746860008201527f65206c6f61642c206c6174650000000000000000000000000000000000000000602082015250565b600061391d602c83612bdc565b9150613928826138c1565b604082019050919050565b6000602082019050818103600083015261394c81613910565b905091905056fe546865206163636f756e742068616420616c72656164792077697468647261776e207468652077686f6c65206d6f6e6579214f6e6c79207468652077696e6e6572206f66666572207472616e73706f727465722063616e20706572666f726d207468697320616374696f6e4f6e6c7920746865206f776e6572206f662074686520636f6e74726163742063616e20706572666f726d207468697320616374696f6e546865206f776e6572206f662074686520636f6e74726163742063616e277420706572666f726d207468697320616374696f6e546865206672656967687420736974756174696f6e20697320646966666572656e74206f6620776861742077617320737570706f73656420746f206265a2646970667358221220e8a4f3a342f46b104b80c3498c17456211fd211a0c8467cd266978520c63202b64736f6c634300080b0033",
  "immutableReferences": {},
  "source": "// SPDX-License-Identifier: UNLICENSED\npragma solidity ^0.8.11;\n\ncontract Freight {\n    /* ------------------------- STRUCTS AND ENUMS ------------------------- */\n\n    enum FreightSituation {\n        Auction,\n        WaitingConfirmationTransporter,\n        WaitingPickUpLoad,\n        OnCarriage,\n        Stopped,\n        Delivered,\n        DeliveredLate,\n        NotDelivered,\n        Returned\n    }\n\n    struct Address {\n        string country;\n        string state;\n        string city;\n        string street;\n        string district; // neighborhood\n        string zipcode;\n        string number;\n    }\n\n    struct Offer {\n        address payable address_offer;\n        uint value;\n        uint advance_money;\n    }\n\n    struct FreightDetails {\n        Address origin;\n        Address destination;\n\n        uint256 date_limit_get_load;\n        uint256 date_limit_delivery;\n\n        uint estipulated_value;\n        uint fine_delivery_late;\n        uint guarantee_value; // guarantee value from the transporter, so it does not steal the load or something like that\n    }\n\n    /* ------------------------- INITIALIZERS ------------------------- */\n\n    // global variables\n    address payable owner;\n    FreightDetails freight_details;\n    Offer winning_offer;\n    Offer[] offers;\n    FreightSituation freight_situation;\n\n    // flags\n    bool is_advance_taken;\n    bool is_whole_money_taken;\n    bool is_delivery_late_taken;\n\n    // constants\n    string constant ONLY_OWNER = \"Only the owner of the contract can perform this action\";\n    string constant ONLY_WINNER_OFFER = \"Only the winner offer transporter can perform this action\";\n    string constant OWNER_CANT = \"The owner of the contract can't perform this action\";\n    string constant FREIGHT_SITUATION_DIFFERENT = \"The freight situation is different of what was supposed to be\";\n    string constant VALUES_DIFFER = \"The values are different\";\n    string constant WHOLE_MONEY_TAKEN = \"The account had already withdrawn the whole money!\";\n\n    // events\n    event Log(address indexed sender, string message);\n\n    constructor() {\n        owner = payable(msg.sender);\n        freight_situation = FreightSituation.Auction;\n        \n        is_advance_taken = false;\n        is_whole_money_taken = false;\n        is_delivery_late_taken = false;\n    }\n\n    // modifier for owner-only\n    modifier onlyowner {\n        require (msg.sender == owner, ONLY_OWNER);\n        _;\n    }\n\n    // modifier for winning-only\n    modifier onlywinner {\n        require (msg.sender == winning_offer.address_offer, ONLY_WINNER_OFFER);\n        _;\n    }\n\n    /* ------------------------- ONLY OWNER FUNCTIONS ------------------------- */\n\n    function setOrigin(\n        string memory country_, string memory state_, string memory city_,\n        string memory street_, string memory district_, string memory zipcode_,\n        string memory number_\n    ) public onlyowner {\n        freight_details.origin.country = country_;\n        freight_details.origin.state = state_;\n        freight_details.origin.city = city_;\n\n        freight_details.origin.street = street_;\n        freight_details.origin.district = district_;\n        freight_details.origin.zipcode = zipcode_;\n\n        freight_details.origin.number = number_;\n    }\n\n    function setDestination(\n        string memory country_, string memory state_, string memory city_,\n        string memory street_, string memory district_, string memory zipcode_,\n        string memory number_\n    ) public onlyowner {\n        freight_details.destination.country = country_;\n        freight_details.destination.state = state_;\n        freight_details.destination.city = city_;\n\n        freight_details.destination.street = street_;\n        freight_details.destination.district = district_;\n        freight_details.destination.zipcode = zipcode_;\n\n        freight_details.destination.number = number_;\n    }\n\n    function setDates(\n        uint256 date_limit_get_load_, uint256 date_limit_delivery_\n    ) public onlyowner {\n        freight_details.date_limit_get_load = date_limit_get_load_;\n        freight_details.date_limit_delivery = date_limit_delivery_;\n    }\n\n    function setValues(\n        uint estipulated_value_, uint fine_delivery_late_, uint guarantee_value_\n    ) public onlyowner {\n        freight_details.estipulated_value = estipulated_value_;\n        freight_details.fine_delivery_late = fine_delivery_late_;\n        freight_details.guarantee_value = guarantee_value_;\n    }\n\n    function setWinningOffer(uint i) public onlyowner {\n        require(freight_situation == FreightSituation.Auction, FREIGHT_SITUATION_DIFFERENT);\n        \n        // selecting the winner offer\n        winning_offer = offers[i];\n\n        // change the status of the freight\n        freight_situation = FreightSituation.WaitingConfirmationTransporter;\n\n        emit Log(owner, \"The owner had set a winning offer\");\n    }\n\n    /* ------------------------- OFFERS ------------------------- */\n\n    function addOffer(\n        uint value_, uint advance_money_\n    ) public {\n        require(freight_situation == FreightSituation.Auction, FREIGHT_SITUATION_DIFFERENT); // the situation must be as Auction\n        require(msg.sender != owner, OWNER_CANT); // owner can't put a offer\n\n        offers.push(Offer({\n            address_offer: payable(msg.sender),\n            value: value_,\n            advance_money: advance_money_\n        }));\n    }\n\n    /* ------------------------- INTERACTIONS ON THE CARRIAGE ------------------------- */\n\n    // winning offer trasnporter must accept the offer\n    function acceptOffer() public payable onlywinner {\n        require(msg.value == freight_details.guarantee_value, VALUES_DIFFER); // check if its the exact amount\n        require(freight_situation == FreightSituation.WaitingConfirmationTransporter, FREIGHT_SITUATION_DIFFERENT);\n\n        freight_situation = FreightSituation.WaitingPickUpLoad;\n\n        emit Log(msg.sender, \"Winner offer had accepted and put the guarantee value at the contract\");\n    }\n\n    // the owner confirms the transporter have arrived to pick up the load\n    function pickUpLoad() public onlyowner payable {\n        require(freight_situation == FreightSituation.WaitingPickUpLoad, FREIGHT_SITUATION_DIFFERENT);\n        require(msg.value == winning_offer.value, VALUES_DIFFER); // owner must put its money into the contract\n\n        freight_situation = FreightSituation.OnCarriage;\n\n        emit Log(msg.sender, \"Owner confirmed: transporter picked up the load! Total money had been aported to the contract\");\n    }\n\n    // the transporter can withdraw the advance money, put it into the contract by the owner\n    function withdrawAdvanceMoney() public onlywinner {\n        require(!is_advance_taken, \"The account had already withdrawn the advance money\");\n\n        // send advance money from the contract to the transporter account\n        winning_offer.address_offer.transfer(winning_offer.advance_money);\n\n        // set flag that the advance money had already been taken\n        is_advance_taken = true;\n\n        emit Log(msg.sender, \"The transporter had withdrawn the advance money\");\n    }\n\n    /* ------------------------- ACTIONS THE TRANSPORTER CAN PERFORM (ON THE CARRIAGE) ------------------------- */\n\n    // set situation to stopped\n    function stopCarriage() public onlywinner {\n        require(freight_situation >= FreightSituation.OnCarriage &&\n                freight_situation < FreightSituation.Delivered, FREIGHT_SITUATION_DIFFERENT);\n\n        freight_situation = FreightSituation.Stopped;\n\n        emit Log(msg.sender, \"The transporter had stopped the carriage\");\n    }\n\n    // set situation to on carriage\n    function onCarriage() public onlywinner {\n        require(freight_situation >= FreightSituation.OnCarriage &&\n                freight_situation < FreightSituation.Delivered, FREIGHT_SITUATION_DIFFERENT);\n        \n        freight_situation = FreightSituation.OnCarriage;\n\n        emit Log(msg.sender, \"The transporter is on the carriage again\");\n    }\n\n    // the transporter had delivered the load into the destination\n    function deliver() public onlywinner {\n        require(freight_situation == FreightSituation.OnCarriage);\n\n        if (block.timestamp <= freight_details.date_limit_delivery) {\n            freight_situation = FreightSituation.Delivered;\n            emit Log(msg.sender, \"The transporter had delivered the load in time\");\n\n        } else {\n            freight_situation = FreightSituation.DeliveredLate;\n            emit Log(msg.sender, \"The transporter had delivered the load, late\");\n        }\n    }\n\n    // the transporter, after delivering the load, can withdraw the whole money of the contract\n    function withdrawWholeMoney() public onlywinner {\n        require(freight_situation == FreightSituation.Delivered ||\n                freight_situation == FreightSituation.DeliveredLate, FREIGHT_SITUATION_DIFFERENT);\n        require(!is_whole_money_taken, WHOLE_MONEY_TAKEN);\n\n        // transfer the whole amount of money (including the guarantee fee)\n        if (freight_situation == FreightSituation.Delivered) {\n            winning_offer.address_offer.transfer(address(this).balance);\n        } else {\n            winning_offer.address_offer.transfer(address(this).balance - freight_details.fine_delivery_late);\n        }\n\n        // set the flag\n        is_whole_money_taken = true;\n    }\n\n    // the owner can say the load wasn't delivered (only after the time is higher than the delivery time)\n    // than, change the situation and gets back the whole amount of money of the contract\n    function cancelFreight() public onlyowner {\n        require(freight_situation == FreightSituation.OnCarriage ||\n                freight_situation == FreightSituation.Stopped, FREIGHT_SITUATION_DIFFERENT);\n        require(block.timestamp > freight_details.date_limit_delivery);\n        require(!is_whole_money_taken, WHOLE_MONEY_TAKEN);\n\n        // change the situation\n        freight_situation = FreightSituation.NotDelivered;\n\n        // transfer the whole money to the owner of the contract\n        owner.transfer(address(this).balance);\n\n        // set the flag\n        is_whole_money_taken = true;\n    }\n\n    // if the transporter had delivered the load in late time, the owner can get its fine of delivery late\n    function getDeliveryLateFine() public onlyowner {\n        require(freight_situation == FreightSituation.DeliveredLate, FREIGHT_SITUATION_DIFFERENT);\n        require(!is_delivery_late_taken, \"The delivery late fine had alrady been taken\");\n\n        // transfer the fine to the owner\n        owner.transfer(freight_details.fine_delivery_late);\n\n        // set the flag\n        is_delivery_late_taken = true;\n    }\n\n    /* ------------------------- GETTERS ------------------------- */\n\n    function getOrigin() public view returns (\n        string memory, string memory, string memory,\n        string memory, string memory, string memory,\n        string memory\n    ) {\n        return (\n            freight_details.origin.country,\n            freight_details.origin.state,\n            freight_details.origin.city,\n\n            freight_details.origin.street,\n            freight_details.origin.district,\n            freight_details.origin.zipcode,\n\n            freight_details.origin.number\n        );\n    }\n\n    function getDestination() public view returns (\n        string memory, string memory, string memory,\n        string memory, string memory, string memory,\n        string memory\n    ) {\n        return (\n            freight_details.destination.country,\n            freight_details.destination.state,\n            freight_details.destination.city,\n\n            freight_details.destination.street,\n            freight_details.destination.district,\n            freight_details.destination.zipcode,\n\n            freight_details.destination.number\n        );\n    }\n\n    function getFreightSituation() public view returns (FreightSituation) {\n        return (freight_situation);\n    }\n\n    function getOffers() public view returns (Offer[] memory) {\n        return (offers);\n    }\n\n    function getBalance() public view returns (uint256) {\n        return address(this).balance;\n    }\n\n    function getValues() public view returns (uint, uint, uint) {\n        return (freight_details.estipulated_value, freight_details.fine_delivery_late, freight_details.guarantee_value);\n    }\n}",
  "sourcePath": "/home/anthony_kamers/Desktop/UFSC/2021.2/blockchain/web3-react1/contracts/Freight.sol",
  "compiler": {
    "name": "solc",
    "version": "0.8.11+commit.d7f03943.Emscripten.clang"
  },
  "schemaVersion": "3.4.4",
  "updatedAt": "2022-02-13T20:18:47.694Z",
  "devdoc": {
    "kind": "dev",
    "methods": {},
    "version": 1
  },
  "userdoc": {
    "kind": "user",
    "methods": {},
    "version": 1
  }
}