{
  "contractName": "FreightFactory",
  "abi": [
    {
      "inputs": [],
      "stateMutability": "nonpayable",
      "type": "constructor"
    },
    {
      "inputs": [
        {
          "internalType": "uint256",
          "name": "",
          "type": "uint256"
        }
      ],
      "name": "freights",
      "outputs": [
        {
          "internalType": "contract Freight",
          "name": "",
          "type": "address"
        }
      ],
      "stateMutability": "view",
      "type": "function",
      "constant": true
    },
    {
      "inputs": [],
      "name": "createFreight",
      "outputs": [],
      "stateMutability": "nonpayable",
      "type": "function"
    },
    {
      "inputs": [
        {
          "internalType": "uint256",
          "name": "value_",
          "type": "uint256"
        },
        {
          "internalType": "uint256",
          "name": "advance_money_",
          "type": "uint256"
        },
        {
          "internalType": "address",
          "name": "contract_",
          "type": "address"
        }
      ],
      "name": "createOffer",
      "outputs": [],
      "stateMutability": "nonpayable",
      "type": "function"
    },
    {
      "inputs": [],
      "name": "getFreights",
      "outputs": [
        {
          "internalType": "contract Freight[]",
          "name": "",
          "type": "address[]"
        }
      ],
      "stateMutability": "view",
      "type": "function",
      "constant": true
    },
    {
      "inputs": [
        {
          "internalType": "address",
          "name": "owner_",
          "type": "address"
        }
      ],
      "name": "getFreightsByOwner",
      "outputs": [
        {
          "internalType": "contract Freight[]",
          "name": "",
          "type": "address[]"
        }
      ],
      "stateMutability": "view",
      "type": "function",
      "constant": true
    },
    {
      "inputs": [
        {
          "internalType": "address",
          "name": "offer_",
          "type": "address"
        }
      ],
      "name": "getFreightsByOffer",
      "outputs": [
        {
          "internalType": "contract Freight[]",
          "name": "",
          "type": "address[]"
        }
      ],
      "stateMutability": "view",
      "type": "function",
      "constant": true
    },
    {
      "inputs": [
        {
          "internalType": "address",
          "name": "owner_",
          "type": "address"
        }
      ],
      "name": "getLastFreightOwner",
      "outputs": [
        {
          "internalType": "contract Freight",
          "name": "",
          "type": "address"
        }
      ],
      "stateMutability": "view",
      "type": "function",
      "constant": true
    }
  ],
  "bytecode": "0x608060405234801561001057600080fd5b50600060405161001f90610085565b604051809103906000f08015801561003b573d6000803e3d6000fd5b50905080600360006101000a81548173ffffffffffffffffffffffffffffffffffffffff021916908373ffffffffffffffffffffffffffffffffffffffff16021790555050610092565b6155e480610c5c83390190565b610bbb806100a16000396000f3fe608060405234801561001057600080fd5b506004361061007d5760003560e01c8063acce53211161005b578063acce5321146100fe578063e1d4dfb114610108578063faa8cc8314610138578063fcbe7cad146101685761007d565b80630598de401461008257806340c63a1c146100b257806366b6aff6146100e2575b600080fd5b61009c60048036038101906100979190610846565b610186565b6040516100a99190610981565b60405180910390f35b6100cc60048036038101906100c791906109d9565b610253565b6040516100d99190610a15565b60405180910390f35b6100fc60048036038101906100f79190610a30565b610292565b005b6101066103ac565b005b610122600480360381019061011d9190610846565b61054c565b60405161012f9190610a15565b60405180910390f35b610152600480360381019061014d9190610846565b61061e565b60405161015f9190610981565b60405180910390f35b6101706106eb565b60405161017d9190610981565b60405180910390f35b6060600260008373ffffffffffffffffffffffffffffffffffffffff1673ffffffffffffffffffffffffffffffffffffffff16815260200190815260200160002080548060200260200160405190810160405280929190818152602001828054801561024757602002820191906000526020600020905b8160009054906101000a900473ffffffffffffffffffffffffffffffffffffffff1673ffffffffffffffffffffffffffffffffffffffff16815260200190600101908083116101fd575b50505050509050919050565b6000818154811061026357600080fd5b906000526020600020016000915054906101000a900473ffffffffffffffffffffffffffffffffffffffff1681565b60008190508073ffffffffffffffffffffffffffffffffffffffff166366b6aff68585336040518463ffffffff1660e01b81526004016102d493929190610aa1565b600060405180830381600087803b1580156102ee57600080fd5b505af1158015610302573d6000803e3d6000fd5b50505050600260003373ffffffffffffffffffffffffffffffffffffffff1673ffffffffffffffffffffffffffffffffffffffff168152602001908152602001600020819080600181540180825580915050600190039060005260206000200160009091909190916101000a81548173ffffffffffffffffffffffffffffffffffffffff021916908373ffffffffffffffffffffffffffffffffffffffff16021790555050505050565b60006103d9600360009054906101000a900473ffffffffffffffffffffffffffffffffffffffff16610779565b90508073ffffffffffffffffffffffffffffffffffffffff166313af4035336040518263ffffffff1660e01b81526004016104149190610ad8565b600060405180830381600087803b15801561042e57600080fd5b505af1158015610442573d6000803e3d6000fd5b50505050600160003373ffffffffffffffffffffffffffffffffffffffff1673ffffffffffffffffffffffffffffffffffffffff168152602001908152602001600020819080600181540180825580915050600190039060005260206000200160009091909190916101000a81548173ffffffffffffffffffffffffffffffffffffffff021916908373ffffffffffffffffffffffffffffffffffffffff1602179055506000819080600181540180825580915050600190039060005260206000200160009091909190916101000a81548173ffffffffffffffffffffffffffffffffffffffff021916908373ffffffffffffffffffffffffffffffffffffffff16021790555050565b6000600160008373ffffffffffffffffffffffffffffffffffffffff1673ffffffffffffffffffffffffffffffffffffffff16815260200190815260200160002060018060008573ffffffffffffffffffffffffffffffffffffffff1673ffffffffffffffffffffffffffffffffffffffff168152602001908152602001600020805490506105db9190610b22565b815481106105ec576105eb610b56565b5b9060005260206000200160009054906101000a900473ffffffffffffffffffffffffffffffffffffffff169050919050565b6060600160008373ffffffffffffffffffffffffffffffffffffffff1673ffffffffffffffffffffffffffffffffffffffff1681526020019081526020016000208054806020026020016040519081016040528092919081815260200182805480156106df57602002820191906000526020600020905b8160009054906101000a900473ffffffffffffffffffffffffffffffffffffffff1673ffffffffffffffffffffffffffffffffffffffff1681526020019060010190808311610695575b50505050509050919050565b6060600080548060200260200160405190810160405280929190818152602001828054801561076f57602002820191906000526020600020905b8160009054906101000a900473ffffffffffffffffffffffffffffffffffffffff1673ffffffffffffffffffffffffffffffffffffffff1681526020019060010190808311610725575b5050505050905090565b6000808260601b90506040517f3d602d80600a3d3981f3363d3d373d3d3d363d7300000000000000000000000081528160148201527f5af43d82803e903d91602b57fd5bf3000000000000000000000000000000000060288201526037816000f092505050919050565b600080fd5b600073ffffffffffffffffffffffffffffffffffffffff82169050919050565b6000610813826107e8565b9050919050565b61082381610808565b811461082e57600080fd5b50565b6000813590506108408161081a565b92915050565b60006020828403121561085c5761085b6107e3565b5b600061086a84828501610831565b91505092915050565b600081519050919050565b600082825260208201905092915050565b6000819050602082019050919050565b6000819050919050565b60006108c46108bf6108ba846107e8565b61089f565b6107e8565b9050919050565b60006108d6826108a9565b9050919050565b60006108e8826108cb565b9050919050565b6108f8816108dd565b82525050565b600061090a83836108ef565b60208301905092915050565b6000602082019050919050565b600061092e82610873565b610938818561087e565b93506109438361088f565b8060005b8381101561097457815161095b88826108fe565b975061096683610916565b925050600181019050610947565b5085935050505092915050565b6000602082019050818103600083015261099b8184610923565b905092915050565b6000819050919050565b6109b6816109a3565b81146109c157600080fd5b50565b6000813590506109d3816109ad565b92915050565b6000602082840312156109ef576109ee6107e3565b5b60006109fd848285016109c4565b91505092915050565b610a0f816108dd565b82525050565b6000602082019050610a2a6000830184610a06565b92915050565b600080600060608486031215610a4957610a486107e3565b5b6000610a57868287016109c4565b9350506020610a68868287016109c4565b9250506040610a7986828701610831565b9150509250925092565b610a8c816109a3565b82525050565b610a9b81610808565b82525050565b6000606082019050610ab66000830186610a83565b610ac36020830185610a83565b610ad06040830184610a92565b949350505050565b6000602082019050610aed6000830184610a92565b92915050565b7f4e487b7100000000000000000000000000000000000000000000000000000000600052601160045260246000fd5b6000610b2d826109a3565b9150610b38836109a3565b925082821015610b4b57610b4a610af3565b5b828203905092915050565b7f4e487b7100000000000000000000000000000000000000000000000000000000600052603260045260246000fdfea2646970667358221220ca7219cdd1ac0a6a9aa9a22897f9ac6fbc4dfe4052729d194ac34426328a7b3264736f6c634300080b003360806040523480156200001157600080fd5b506000601860006101000a81548160ff021916908360088111156200003b576200003a620000a0565b5b02179055506000601960000160006101000a81548160ff0219169083151502179055506000601960000160016101000a81548160ff0219169083151502179055506000601960000160026101000a81548160ff021916908315150217905550620000cf565b7f4e487b7100000000000000000000000000000000000000000000000000000000600052602160045260246000fd5b61550580620000df6000396000f3fe6080604052600436106101b75760003560e01c806365a7297b116100ec578063b5ed7bb11161008a578063df1f29ee11610064578063df1f29ee1461053a578063eaf0d9c61461056b578063eb62df6114610596578063fd3e50a7146105a0576101b7565b8063b5ed7bb1146104bf578063c6397bd8146104e8578063dedf141e14610511576101b7565b806375135256116100c657806375135256146104475780639171965e1461045e57806392a81d171461048c578063abdd1097146104b5576101b7565b806365a7297b146103dc57806366b6aff6146103f35780636cc7149d1461041c576101b7565b806332a2c5d0116101595780634579268a116101335780634579268a1461035a5780635730e7991461039757806357ca3b9b146103ae57806362697ad7146103c5576101b7565b806332a2c5d0146102d95780633bb24b7d146103045780633ee992ee1461032f576101b7565b806316ad95421161019557806316ad95421461023957806319eb4a901461026a5780631c1fdea51461029757806322eddc47146102ae576101b7565b8063111be316146101bc57806312065fe0146101e557806313af403514610210575b600080fd5b3480156101c857600080fd5b506101e360048036038101906101de91906141e1565b6105b7565b005b3480156101f157600080fd5b506101fa610684565b6040516102079190614243565b60405180910390f35b34801561021c57600080fd5b50610237600480360381019061023291906142bc565b61068c565b005b34801561024557600080fd5b5061024e610728565b6040516102619796959493929190614382565b60405180910390f35b34801561027657600080fd5b5061027f610b56565b60405161028e93929190614422565b60405180910390f35b3480156102a357600080fd5b506102ac610b78565b005b3480156102ba57600080fd5b506102c3610e24565b6040516102d091906144d0565b60405180910390f35b3480156102e557600080fd5b506102ee610e3b565b6040516102fb91906144fa565b60405180910390f35b34801561031057600080fd5b50610319610e43565b60405161032691906146d7565b60405180910390f35b34801561033b57600080fd5b506103446116b3565b604051610351919061480b565b60405180910390f35b34801561036657600080fd5b50610381600480360381019061037c919061482d565b61177c565b60405161038e919061489c565b60405180910390f35b3480156103a357600080fd5b506103ac611822565b005b3480156103ba57600080fd5b506103c3611a1c565b005b3480156103d157600080fd5b506103da611d54565b005b3480156103e857600080fd5b506103f1611f33565b005b3480156103ff57600080fd5b5061041a600480360381019061041591906148b7565b61214e565b005b34801561042857600080fd5b50610431612349565b60405161043e9190614967565b60405180910390f35b34801561045357600080fd5b5061045c6123b4565b005b34801561046a57600080fd5b506104736125ae565b6040516104839493929190614982565b60405180910390f35b34801561049857600080fd5b506104b360048036038101906104ae9190614b03565b612ec8565b005b6104bd613046565b005b3480156104cb57600080fd5b506104e660048036038101906104e1919061482d565b61327b565b005b3480156104f457600080fd5b5061050f600480360381019061050a9190614b03565b6134f3565b005b34801561051d57600080fd5b5061053860048036038101906105339190614c69565b613671565b005b34801561054657600080fd5b5061054f613733565b6040516105629796959493929190614382565b60405180910390f35b34801561057757600080fd5b50610580613b61565b60405161058d919061489c565b60405180910390f35b61059e613be5565b005b3480156105ac57600080fd5b506105b5613e1f565b005b60008054906101000a900473ffffffffffffffffffffffffffffffffffffffff1673ffffffffffffffffffffffffffffffffffffffff163373ffffffffffffffffffffffffffffffffffffffff161460405180606001604052806036815260200161542a6036913990610660576040517f08c379a00000000000000000000000000000000000000000000000000000000081526004016106579190614ca9565b60405180910390fd5b50826001601001819055508160016011018190555080600160120181905550505050565b600047905090565b600073ffffffffffffffffffffffffffffffffffffffff1660008054906101000a900473ffffffffffffffffffffffffffffffffffffffff1673ffffffffffffffffffffffffffffffffffffffff16146106e557600080fd5b806000806101000a81548173ffffffffffffffffffffffffffffffffffffffff021916908373ffffffffffffffffffffffffffffffffffffffff16021790555050565b6060806060806060806060600160070160000160016007016001016001600701600201600160070160030160016007016004016001600701600501600160070160060186805461077790614cfa565b80601f01602080910402602001604051908101604052809291908181526020018280546107a390614cfa565b80156107f05780601f106107c5576101008083540402835291602001916107f0565b820191906000526020600020905b8154815290600101906020018083116107d357829003601f168201915b5050505050965085805461080390614cfa565b80601f016020809104026020016040519081016040528092919081815260200182805461082f90614cfa565b801561087c5780601f106108515761010080835404028352916020019161087c565b820191906000526020600020905b81548152906001019060200180831161085f57829003601f168201915b5050505050955084805461088f90614cfa565b80601f01602080910402602001604051908101604052809291908181526020018280546108bb90614cfa565b80156109085780601f106108dd57610100808354040283529160200191610908565b820191906000526020600020905b8154815290600101906020018083116108eb57829003601f168201915b5050505050945083805461091b90614cfa565b80601f016020809104026020016040519081016040528092919081815260200182805461094790614cfa565b80156109945780601f1061096957610100808354040283529160200191610994565b820191906000526020600020905b81548152906001019060200180831161097757829003601f168201915b505050505093508280546109a790614cfa565b80601f01602080910402602001604051908101604052809291908181526020018280546109d390614cfa565b8015610a205780601f106109f557610100808354040283529160200191610a20565b820191906000526020600020905b815481529060010190602001808311610a0357829003601f168201915b50505050509250818054610a3390614cfa565b80601f0160208091040260200160405190810160405280929190818152602001828054610a5f90614cfa565b8015610aac5780601f10610a8157610100808354040283529160200191610aac565b820191906000526020600020905b815481529060010190602001808311610a8f57829003601f168201915b50505050509150808054610abf90614cfa565b80601f0160208091040260200160405190810160405280929190818152602001828054610aeb90614cfa565b8015610b385780601f10610b0d57610100808354040283529160200191610b38565b820191906000526020600020905b815481529060010190602001808311610b1b57829003601f168201915b50505050509050965096509650965096509650965090919293949596565b6000806000600160100154600160110154600160120154925092509250909192565b60008054906101000a900473ffffffffffffffffffffffffffffffffffffffff1673ffffffffffffffffffffffffffffffffffffffff163373ffffffffffffffffffffffffffffffffffffffff161460405180606001604052806036815260200161542a6036913990610c21576040517f08c379a0000000000000000000000000000000000000000000000000000000008152600401610c189190614ca9565b60405180910390fd5b5060036008811115610c3657610c35614459565b5b601860009054906101000a900460ff166008811115610c5857610c57614459565b5b1480610c97575060046008811115610c7357610c72614459565b5b601860009054906101000a900460ff166008811115610c9557610c94614459565b5b145b6040518060600160405280603d8152602001615493603d913990610cf1576040517f08c379a0000000000000000000000000000000000000000000000000000000008152600401610ce89190614ca9565b60405180910390fd5b506001600f01544211610d0357600080fd5b601960000160019054906101000a900460ff16156040518060600160405280603281526020016153bf6032913990610d71576040517f08c379a0000000000000000000000000000000000000000000000000000000008152600401610d689190614ca9565b60405180910390fd5b506007601860006101000a81548160ff02191690836008811115610d9857610d97614459565b5b021790555060008054906101000a900473ffffffffffffffffffffffffffffffffffffffff1673ffffffffffffffffffffffffffffffffffffffff166108fc479081150290604051600060405180830381858888f19350505050158015610e03573d6000803e3d6000fd5b506001601960000160016101000a81548160ff021916908315150217905550565b6000601860009054906101000a900460ff16905090565b600030905090565b610e4b614010565b60016040518060e0016040529081600082016040518060e0016040529081600082018054610e7890614cfa565b80601f0160208091040260200160405190810160405280929190818152602001828054610ea490614cfa565b8015610ef15780601f10610ec657610100808354040283529160200191610ef1565b820191906000526020600020905b815481529060010190602001808311610ed457829003601f168201915b50505050508152602001600182018054610f0a90614cfa565b80601f0160208091040260200160405190810160405280929190818152602001828054610f3690614cfa565b8015610f835780601f10610f5857610100808354040283529160200191610f83565b820191906000526020600020905b815481529060010190602001808311610f6657829003601f168201915b50505050508152602001600282018054610f9c90614cfa565b80601f0160208091040260200160405190810160405280929190818152602001828054610fc890614cfa565b80156110155780601f10610fea57610100808354040283529160200191611015565b820191906000526020600020905b815481529060010190602001808311610ff857829003601f168201915b5050505050815260200160038201805461102e90614cfa565b80601f016020809104026020016040519081016040528092919081815260200182805461105a90614cfa565b80156110a75780601f1061107c576101008083540402835291602001916110a7565b820191906000526020600020905b81548152906001019060200180831161108a57829003601f168201915b505050505081526020016004820180546110c090614cfa565b80601f01602080910402602001604051908101604052809291908181526020018280546110ec90614cfa565b80156111395780601f1061110e57610100808354040283529160200191611139565b820191906000526020600020905b81548152906001019060200180831161111c57829003601f168201915b5050505050815260200160058201805461115290614cfa565b80601f016020809104026020016040519081016040528092919081815260200182805461117e90614cfa565b80156111cb5780601f106111a0576101008083540402835291602001916111cb565b820191906000526020600020905b8154815290600101906020018083116111ae57829003601f168201915b505050505081526020016006820180546111e490614cfa565b80601f016020809104026020016040519081016040528092919081815260200182805461121090614cfa565b801561125d5780601f106112325761010080835404028352916020019161125d565b820191906000526020600020905b81548152906001019060200180831161124057829003601f168201915b5050505050815250508152602001600782016040518060e001604052908160008201805461128a90614cfa565b80601f01602080910402602001604051908101604052809291908181526020018280546112b690614cfa565b80156113035780601f106112d857610100808354040283529160200191611303565b820191906000526020600020905b8154815290600101906020018083116112e657829003601f168201915b5050505050815260200160018201805461131c90614cfa565b80601f016020809104026020016040519081016040528092919081815260200182805461134890614cfa565b80156113955780601f1061136a57610100808354040283529160200191611395565b820191906000526020600020905b81548152906001019060200180831161137857829003601f168201915b505050505081526020016002820180546113ae90614cfa565b80601f01602080910402602001604051908101604052809291908181526020018280546113da90614cfa565b80156114275780601f106113fc57610100808354040283529160200191611427565b820191906000526020600020905b81548152906001019060200180831161140a57829003601f168201915b5050505050815260200160038201805461144090614cfa565b80601f016020809104026020016040519081016040528092919081815260200182805461146c90614cfa565b80156114b95780601f1061148e576101008083540402835291602001916114b9565b820191906000526020600020905b81548152906001019060200180831161149c57829003601f168201915b505050505081526020016004820180546114d290614cfa565b80601f01602080910402602001604051908101604052809291908181526020018280546114fe90614cfa565b801561154b5780601f106115205761010080835404028352916020019161154b565b820191906000526020600020905b81548152906001019060200180831161152e57829003601f168201915b5050505050815260200160058201805461156490614cfa565b80601f016020809104026020016040519081016040528092919081815260200182805461159090614cfa565b80156115dd5780601f106115b2576101008083540402835291602001916115dd565b820191906000526020600020905b8154815290600101906020018083116115c057829003601f168201915b505050505081526020016006820180546115f690614cfa565b80601f016020809104026020016040519081016040528092919081815260200182805461162290614cfa565b801561166f5780601f106116445761010080835404028352916020019161166f565b820191906000526020600020905b81548152906001019060200180831161165257829003601f168201915b5050505050815250508152602001600e8201548152602001600f82015481526020016010820154815260200160118201548152602001601282015481525050905090565b60606017805480602002602001604051908101604052809291908181526020016000905b8282101561177357838290600052602060002090600302016040518060600160405290816000820160009054906101000a900473ffffffffffffffffffffffffffffffffffffffff1673ffffffffffffffffffffffffffffffffffffffff1673ffffffffffffffffffffffffffffffffffffffff16815260200160018201548152602001600282015481525050815260200190600101906116d7565b50505050905090565b611784614059565b6017828154811061179857611797614d2c565b5b90600052602060002090600302016040518060600160405290816000820160009054906101000a900473ffffffffffffffffffffffffffffffffffffffff1673ffffffffffffffffffffffffffffffffffffffff1673ffffffffffffffffffffffffffffffffffffffff168152602001600182015481526020016002820154815250509050919050565b601460000160009054906101000a900473ffffffffffffffffffffffffffffffffffffffff1673ffffffffffffffffffffffffffffffffffffffff163373ffffffffffffffffffffffffffffffffffffffff16146040518060600160405280603981526020016153f160399139906118d0576040517f08c379a00000000000000000000000000000000000000000000000000000000081526004016118c79190614ca9565b60405180910390fd5b50600360088111156118e5576118e4614459565b5b601860009054906101000a900460ff16600881111561190757611906614459565b5b1015801561194857506005600881111561192457611923614459565b5b601860009054906101000a900460ff16600881111561194657611945614459565b5b105b6040518060600160405280603d8152602001615493603d9139906119a2576040517f08c379a00000000000000000000000000000000000000000000000000000000081526004016119999190614ca9565b60405180910390fd5b506003601860006101000a81548160ff021916908360088111156119c9576119c8614459565b5b02179055503373ffffffffffffffffffffffffffffffffffffffff167f0738f4da267a110d810e6e89fc59e46be6de0c37b1d5cd559b267dc3688e74e0604051611a1290614dcd565b60405180910390a2565b601460000160009054906101000a900473ffffffffffffffffffffffffffffffffffffffff1673ffffffffffffffffffffffffffffffffffffffff163373ffffffffffffffffffffffffffffffffffffffff16146040518060600160405280603981526020016153f16039913990611aca576040517f08c379a0000000000000000000000000000000000000000000000000000000008152600401611ac19190614ca9565b60405180910390fd5b5060056008811115611adf57611ade614459565b5b601860009054906101000a900460ff166008811115611b0157611b00614459565b5b1480611b40575060066008811115611b1c57611b1b614459565b5b601860009054906101000a900460ff166008811115611b3e57611b3d614459565b5b145b6040518060600160405280603d8152602001615493603d913990611b9a576040517f08c379a0000000000000000000000000000000000000000000000000000000008152600401611b919190614ca9565b60405180910390fd5b50601960000160019054906101000a900460ff16156040518060600160405280603281526020016153bf6032913990611c09576040517f08c379a0000000000000000000000000000000000000000000000000000000008152600401611c009190614ca9565b60405180910390fd5b5060056008811115611c1e57611c1d614459565b5b601860009054906101000a900460ff166008811115611c4057611c3f614459565b5b1415611cb757601460000160009054906101000a900473ffffffffffffffffffffffffffffffffffffffff1673ffffffffffffffffffffffffffffffffffffffff166108fc479081150290604051600060405180830381858888f19350505050158015611cb1573d6000803e3d6000fd5b50611d34565b601460000160009054906101000a900473ffffffffffffffffffffffffffffffffffffffff1673ffffffffffffffffffffffffffffffffffffffff166108fc60016011015447611d079190614e1c565b9081150290604051600060405180830381858888f19350505050158015611d32573d6000803e3d6000fd5b505b6001601960000160016101000a81548160ff021916908315150217905550565b601460000160009054906101000a900473ffffffffffffffffffffffffffffffffffffffff1673ffffffffffffffffffffffffffffffffffffffff163373ffffffffffffffffffffffffffffffffffffffff16146040518060600160405280603981526020016153f16039913990611e02576040517f08c379a0000000000000000000000000000000000000000000000000000000008152600401611df99190614ca9565b60405180910390fd5b50601960000160009054906101000a900460ff1615611e56576040517f08c379a0000000000000000000000000000000000000000000000000000000008152600401611e4d90614ec2565b60405180910390fd5b601460000160009054906101000a900473ffffffffffffffffffffffffffffffffffffffff1673ffffffffffffffffffffffffffffffffffffffff166108fc6014600201549081150290604051600060405180830381858888f19350505050158015611ec6573d6000803e3d6000fd5b506001601960000160006101000a81548160ff0219169083151502179055503373ffffffffffffffffffffffffffffffffffffffff167f0738f4da267a110d810e6e89fc59e46be6de0c37b1d5cd559b267dc3688e74e0604051611f2990614f54565b60405180910390a2565b60008054906101000a900473ffffffffffffffffffffffffffffffffffffffff1673ffffffffffffffffffffffffffffffffffffffff163373ffffffffffffffffffffffffffffffffffffffff161460405180606001604052806036815260200161542a6036913990611fdc576040517f08c379a0000000000000000000000000000000000000000000000000000000008152600401611fd39190614ca9565b60405180910390fd5b5060066008811115611ff157611ff0614459565b5b601860009054906101000a900460ff16600881111561201357612012614459565b5b146040518060600160405280603d8152602001615493603d91399061206e576040517f08c379a00000000000000000000000000000000000000000000000000000000081526004016120659190614ca9565b60405180910390fd5b50601960000160029054906101000a900460ff16156120c2576040517f08c379a00000000000000000000000000000000000000000000000000000000081526004016120b990614fe6565b60405180910390fd5b60008054906101000a900473ffffffffffffffffffffffffffffffffffffffff1673ffffffffffffffffffffffffffffffffffffffff166108fc6001601101549081150290604051600060405180830381858888f1935050505015801561212d573d6000803e3d6000fd5b506001601960000160026101000a81548160ff021916908315150217905550565b6000600881111561216257612161614459565b5b601860009054906101000a900460ff16600881111561218457612183614459565b5b146040518060600160405280603d8152602001615493603d9139906121df576040517f08c379a00000000000000000000000000000000000000000000000000000000081526004016121d69190614ca9565b60405180910390fd5b5060008054906101000a900473ffffffffffffffffffffffffffffffffffffffff1673ffffffffffffffffffffffffffffffffffffffff168173ffffffffffffffffffffffffffffffffffffffff161415604051806060016040528060338152602001615460603391399061228a576040517f08c379a00000000000000000000000000000000000000000000000000000000081526004016122819190614ca9565b60405180910390fd5b50601760405180606001604052808373ffffffffffffffffffffffffffffffffffffffff16815260200185815260200184815250908060018154018082558091505060019003906000526020600020906003020160009091909190915060008201518160000160006101000a81548173ffffffffffffffffffffffffffffffffffffffff021916908373ffffffffffffffffffffffffffffffffffffffff16021790555060208201518160010155604082015181600201555050505050565b612351614090565b60196040518060600160405290816000820160009054906101000a900460ff161515151581526020016000820160019054906101000a900460ff161515151581526020016000820160029054906101000a900460ff161515151581525050905090565b601460000160009054906101000a900473ffffffffffffffffffffffffffffffffffffffff1673ffffffffffffffffffffffffffffffffffffffff163373ffffffffffffffffffffffffffffffffffffffff16146040518060600160405280603981526020016153f16039913990612462576040517f08c379a00000000000000000000000000000000000000000000000000000000081526004016124599190614ca9565b60405180910390fd5b506003600881111561247757612476614459565b5b601860009054906101000a900460ff16600881111561249957612498614459565b5b101580156124da5750600560088111156124b6576124b5614459565b5b601860009054906101000a900460ff1660088111156124d8576124d7614459565b5b105b6040518060600160405280603d8152602001615493603d913990612534576040517f08c379a000000000000000000000000000000000000000000000000000000000815260040161252b9190614ca9565b60405180910390fd5b506004601860006101000a81548160ff0219169083600881111561255b5761255a614459565b5b02179055503373ffffffffffffffffffffffffffffffffffffffff167f0738f4da267a110d810e6e89fc59e46be6de0c37b1d5cd559b267dc3688e74e06040516125a490615078565b60405180910390a2565b60006125b8614010565b60006125c2614090565b601860009054906101000a900460ff16600160008054906101000a900473ffffffffffffffffffffffffffffffffffffffff166019826040518060e0016040529081600082016040518060e001604052908160008201805461262390614cfa565b80601f016020809104026020016040519081016040528092919081815260200182805461264f90614cfa565b801561269c5780601f106126715761010080835404028352916020019161269c565b820191906000526020600020905b81548152906001019060200180831161267f57829003601f168201915b505050505081526020016001820180546126b590614cfa565b80601f01602080910402602001604051908101604052809291908181526020018280546126e190614cfa565b801561272e5780601f106127035761010080835404028352916020019161272e565b820191906000526020600020905b81548152906001019060200180831161271157829003601f168201915b5050505050815260200160028201805461274790614cfa565b80601f016020809104026020016040519081016040528092919081815260200182805461277390614cfa565b80156127c05780601f10612795576101008083540402835291602001916127c0565b820191906000526020600020905b8154815290600101906020018083116127a357829003601f168201915b505050505081526020016003820180546127d990614cfa565b80601f016020809104026020016040519081016040528092919081815260200182805461280590614cfa565b80156128525780601f1061282757610100808354040283529160200191612852565b820191906000526020600020905b81548152906001019060200180831161283557829003601f168201915b5050505050815260200160048201805461286b90614cfa565b80601f016020809104026020016040519081016040528092919081815260200182805461289790614cfa565b80156128e45780601f106128b9576101008083540402835291602001916128e4565b820191906000526020600020905b8154815290600101906020018083116128c757829003601f168201915b505050505081526020016005820180546128fd90614cfa565b80601f016020809104026020016040519081016040528092919081815260200182805461292990614cfa565b80156129765780601f1061294b57610100808354040283529160200191612976565b820191906000526020600020905b81548152906001019060200180831161295957829003601f168201915b5050505050815260200160068201805461298f90614cfa565b80601f01602080910402602001604051908101604052809291908181526020018280546129bb90614cfa565b8015612a085780601f106129dd57610100808354040283529160200191612a08565b820191906000526020600020905b8154815290600101906020018083116129eb57829003601f168201915b5050505050815250508152602001600782016040518060e0016040529081600082018054612a3590614cfa565b80601f0160208091040260200160405190810160405280929190818152602001828054612a6190614cfa565b8015612aae5780601f10612a8357610100808354040283529160200191612aae565b820191906000526020600020905b815481529060010190602001808311612a9157829003601f168201915b50505050508152602001600182018054612ac790614cfa565b80601f0160208091040260200160405190810160405280929190818152602001828054612af390614cfa565b8015612b405780601f10612b1557610100808354040283529160200191612b40565b820191906000526020600020905b815481529060010190602001808311612b2357829003601f168201915b50505050508152602001600282018054612b5990614cfa565b80601f0160208091040260200160405190810160405280929190818152602001828054612b8590614cfa565b8015612bd25780601f10612ba757610100808354040283529160200191612bd2565b820191906000526020600020905b815481529060010190602001808311612bb557829003601f168201915b50505050508152602001600382018054612beb90614cfa565b80601f0160208091040260200160405190810160405280929190818152602001828054612c1790614cfa565b8015612c645780601f10612c3957610100808354040283529160200191612c64565b820191906000526020600020905b815481529060010190602001808311612c4757829003601f168201915b50505050508152602001600482018054612c7d90614cfa565b80601f0160208091040260200160405190810160405280929190818152602001828054612ca990614cfa565b8015612cf65780601f10612ccb57610100808354040283529160200191612cf6565b820191906000526020600020905b815481529060010190602001808311612cd957829003601f168201915b50505050508152602001600582018054612d0f90614cfa565b80601f0160208091040260200160405190810160405280929190818152602001828054612d3b90614cfa565b8015612d885780601f10612d5d57610100808354040283529160200191612d88565b820191906000526020600020905b815481529060010190602001808311612d6b57829003601f168201915b50505050508152602001600682018054612da190614cfa565b80601f0160208091040260200160405190810160405280929190818152602001828054612dcd90614cfa565b8015612e1a5780601f10612def57610100808354040283529160200191612e1a565b820191906000526020600020905b815481529060010190602001808311612dfd57829003601f168201915b5050505050815250508152602001600e8201548152602001600f820154815260200160108201548152602001601182015481526020016012820154815250509250806040518060600160405290816000820160009054906101000a900460ff161515151581526020016000820160019054906101000a900460ff161515151581526020016000820160029054906101000a900460ff1615151515815250509050935093509350935090919293565b60008054906101000a900473ffffffffffffffffffffffffffffffffffffffff1673ffffffffffffffffffffffffffffffffffffffff163373ffffffffffffffffffffffffffffffffffffffff161460405180606001604052806036815260200161542a6036913990612f71576040517f08c379a0000000000000000000000000000000000000000000000000000000008152600401612f689190614ca9565b60405180910390fd5b508660016007016000019080519060200190612f8e9291906140b7565b508560016007016001019080519060200190612fab9291906140b7565b508460016007016002019080519060200190612fc89291906140b7565b508360016007016003019080519060200190612fe59291906140b7565b5082600160070160040190805190602001906130029291906140b7565b50816001600701600501908051906020019061301f9291906140b7565b50806001600701600601908051906020019061303c9291906140b7565b5050505050505050565b60008054906101000a900473ffffffffffffffffffffffffffffffffffffffff1673ffffffffffffffffffffffffffffffffffffffff163373ffffffffffffffffffffffffffffffffffffffff161460405180606001604052806036815260200161542a60369139906130ef576040517f08c379a00000000000000000000000000000000000000000000000000000000081526004016130e69190614ca9565b60405180910390fd5b506002600881111561310457613103614459565b5b601860009054906101000a900460ff16600881111561312657613125614459565b5b146040518060600160405280603d8152602001615493603d913990613181576040517f08c379a00000000000000000000000000000000000000000000000000000000081526004016131789190614ca9565b60405180910390fd5b5060146001015434146040518060400160405280601881526020017f5468652076616c7565732061726520646966666572656e74000000000000000081525090613201576040517f08c379a00000000000000000000000000000000000000000000000000000000081526004016131f89190614ca9565b60405180910390fd5b506003601860006101000a81548160ff0219169083600881111561322857613227614459565b5b02179055503373ffffffffffffffffffffffffffffffffffffffff167f0738f4da267a110d810e6e89fc59e46be6de0c37b1d5cd559b267dc3688e74e060405161327190615130565b60405180910390a2565b60008054906101000a900473ffffffffffffffffffffffffffffffffffffffff1673ffffffffffffffffffffffffffffffffffffffff163373ffffffffffffffffffffffffffffffffffffffff161460405180606001604052806036815260200161542a6036913990613324576040517f08c379a000000000000000000000000000000000000000000000000000000000815260040161331b9190614ca9565b60405180910390fd5b506000600881111561333957613338614459565b5b601860009054906101000a900460ff16600881111561335b5761335a614459565b5b146040518060600160405280603d8152602001615493603d9139906133b6576040517f08c379a00000000000000000000000000000000000000000000000000000000081526004016133ad9190614ca9565b60405180910390fd5b50601781815481106133cb576133ca614d2c565b5b906000526020600020906003020160146000820160009054906101000a900473ffffffffffffffffffffffffffffffffffffffff168160000160006101000a81548173ffffffffffffffffffffffffffffffffffffffff021916908373ffffffffffffffffffffffffffffffffffffffff16021790555060018201548160010155600282015481600201559050506001601860006101000a81548160ff0219169083600881111561347f5761347e614459565b5b021790555060008054906101000a900473ffffffffffffffffffffffffffffffffffffffff1673ffffffffffffffffffffffffffffffffffffffff167f0738f4da267a110d810e6e89fc59e46be6de0c37b1d5cd559b267dc3688e74e06040516134e8906151c2565b60405180910390a250565b60008054906101000a900473ffffffffffffffffffffffffffffffffffffffff1673ffffffffffffffffffffffffffffffffffffffff163373ffffffffffffffffffffffffffffffffffffffff161460405180606001604052806036815260200161542a603691399061359c576040517f08c379a00000000000000000000000000000000000000000000000000000000081526004016135939190614ca9565b60405180910390fd5b5086600160000160000190805190602001906135b99291906140b7565b5085600160000160010190805190602001906135d69291906140b7565b5084600160000160020190805190602001906135f39291906140b7565b5083600160000160030190805190602001906136109291906140b7565b50826001600001600401908051906020019061362d9291906140b7565b50816001600001600501908051906020019061364a9291906140b7565b5080600160000160060190805190602001906136679291906140b7565b5050505050505050565b60008054906101000a900473ffffffffffffffffffffffffffffffffffffffff1673ffffffffffffffffffffffffffffffffffffffff163373ffffffffffffffffffffffffffffffffffffffff161460405180606001604052806036815260200161542a603691399061371a576040517f08c379a00000000000000000000000000000000000000000000000000000000081526004016137119190614ca9565b60405180910390fd5b50816001600e0181905550806001600f01819055505050565b6060806060806060806060600160000160000160016000016001016001600001600201600160000160030160016000016004016001600001600501600160000160060186805461378290614cfa565b80601f01602080910402602001604051908101604052809291908181526020018280546137ae90614cfa565b80156137fb5780601f106137d0576101008083540402835291602001916137fb565b820191906000526020600020905b8154815290600101906020018083116137de57829003601f168201915b5050505050965085805461380e90614cfa565b80601f016020809104026020016040519081016040528092919081815260200182805461383a90614cfa565b80156138875780601f1061385c57610100808354040283529160200191613887565b820191906000526020600020905b81548152906001019060200180831161386a57829003601f168201915b5050505050955084805461389a90614cfa565b80601f01602080910402602001604051908101604052809291908181526020018280546138c690614cfa565b80156139135780601f106138e857610100808354040283529160200191613913565b820191906000526020600020905b8154815290600101906020018083116138f657829003601f168201915b5050505050945083805461392690614cfa565b80601f016020809104026020016040519081016040528092919081815260200182805461395290614cfa565b801561399f5780601f106139745761010080835404028352916020019161399f565b820191906000526020600020905b81548152906001019060200180831161398257829003601f168201915b505050505093508280546139b290614cfa565b80601f01602080910402602001604051908101604052809291908181526020018280546139de90614cfa565b8015613a2b5780601f10613a0057610100808354040283529160200191613a2b565b820191906000526020600020905b815481529060010190602001808311613a0e57829003601f168201915b50505050509250818054613a3e90614cfa565b80601f0160208091040260200160405190810160405280929190818152602001828054613a6a90614cfa565b8015613ab75780601f10613a8c57610100808354040283529160200191613ab7565b820191906000526020600020905b815481529060010190602001808311613a9a57829003601f168201915b50505050509150808054613aca90614cfa565b80601f0160208091040260200160405190810160405280929190818152602001828054613af690614cfa565b8015613b435780601f10613b1857610100808354040283529160200191613b43565b820191906000526020600020905b815481529060010190602001808311613b2657829003601f168201915b50505050509050965096509650965096509650965090919293949596565b613b69614059565b60146040518060600160405290816000820160009054906101000a900473ffffffffffffffffffffffffffffffffffffffff1673ffffffffffffffffffffffffffffffffffffffff1673ffffffffffffffffffffffffffffffffffffffff16815260200160018201548152602001600282015481525050905090565b601460000160009054906101000a900473ffffffffffffffffffffffffffffffffffffffff1673ffffffffffffffffffffffffffffffffffffffff163373ffffffffffffffffffffffffffffffffffffffff16146040518060600160405280603981526020016153f16039913990613c93576040517f08c379a0000000000000000000000000000000000000000000000000000000008152600401613c8a9190614ca9565b60405180910390fd5b5060016012015434146040518060400160405280601881526020017f5468652076616c7565732061726520646966666572656e74000000000000000081525090613d13576040517f08c379a0000000000000000000000000000000000000000000000000000000008152600401613d0a9190614ca9565b60405180910390fd5b5060016008811115613d2857613d27614459565b5b601860009054906101000a900460ff166008811115613d4a57613d49614459565b5b146040518060600160405280603d8152602001615493603d913990613da5576040517f08c379a0000000000000000000000000000000000000000000000000000000008152600401613d9c9190614ca9565b60405180910390fd5b506002601860006101000a81548160ff02191690836008811115613dcc57613dcb614459565b5b02179055503373ffffffffffffffffffffffffffffffffffffffff167f0738f4da267a110d810e6e89fc59e46be6de0c37b1d5cd559b267dc3688e74e0604051613e159061527a565b60405180910390a2565b601460000160009054906101000a900473ffffffffffffffffffffffffffffffffffffffff1673ffffffffffffffffffffffffffffffffffffffff163373ffffffffffffffffffffffffffffffffffffffff16146040518060600160405280603981526020016153f16039913990613ecd576040517f08c379a0000000000000000000000000000000000000000000000000000000008152600401613ec49190614ca9565b60405180910390fd5b5060036008811115613ee257613ee1614459565b5b601860009054906101000a900460ff166008811115613f0457613f03614459565b5b14613f0e57600080fd5b6001600f01544211613f96576005601860006101000a81548160ff02191690836008811115613f4057613f3f614459565b5b02179055503373ffffffffffffffffffffffffffffffffffffffff167f0738f4da267a110d810e6e89fc59e46be6de0c37b1d5cd559b267dc3688e74e0604051613f899061530c565b60405180910390a261400e565b6006601860006101000a81548160ff02191690836008811115613fbc57613fbb614459565b5b02179055503373ffffffffffffffffffffffffffffffffffffffff167f0738f4da267a110d810e6e89fc59e46be6de0c37b1d5cd559b267dc3688e74e06040516140059061539e565b60405180910390a25b565b6040518060e0016040528061402361413d565b815260200161403061413d565b815260200160008152602001600081526020016000815260200160008152602001600081525090565b6040518060600160405280600073ffffffffffffffffffffffffffffffffffffffff16815260200160008152602001600081525090565b60405180606001604052806000151581526020016000151581526020016000151581525090565b8280546140c390614cfa565b90600052602060002090601f0160209004810192826140e5576000855561412c565b82601f106140fe57805160ff191683800117855561412c565b8280016001018555821561412c579182015b8281111561412b578251825591602001919060010190614110565b5b509050614139919061417a565b5090565b6040518060e00160405280606081526020016060815260200160608152602001606081526020016060815260200160608152602001606081525090565b5b8082111561419357600081600090555060010161417b565b5090565b6000604051905090565b600080fd5b600080fd5b6000819050919050565b6141be816141ab565b81146141c957600080fd5b50565b6000813590506141db816141b5565b92915050565b6000806000606084860312156141fa576141f96141a1565b5b6000614208868287016141cc565b9350506020614219868287016141cc565b925050604061422a868287016141cc565b9150509250925092565b61423d816141ab565b82525050565b60006020820190506142586000830184614234565b92915050565b600073ffffffffffffffffffffffffffffffffffffffff82169050919050565b60006142898261425e565b9050919050565b6142998161427e565b81146142a457600080fd5b50565b6000813590506142b681614290565b92915050565b6000602082840312156142d2576142d16141a1565b5b60006142e0848285016142a7565b91505092915050565b600081519050919050565b600082825260208201905092915050565b60005b83811015614323578082015181840152602081019050614308565b83811115614332576000848401525b50505050565b6000601f19601f8301169050919050565b6000614354826142e9565b61435e81856142f4565b935061436e818560208601614305565b61437781614338565b840191505092915050565b600060e082019050818103600083015261439c818a614349565b905081810360208301526143b08189614349565b905081810360408301526143c48188614349565b905081810360608301526143d88187614349565b905081810360808301526143ec8186614349565b905081810360a08301526144008185614349565b905081810360c08301526144148184614349565b905098975050505050505050565b60006060820190506144376000830186614234565b6144446020830185614234565b6144516040830184614234565b949350505050565b7f4e487b7100000000000000000000000000000000000000000000000000000000600052602160045260246000fd5b6009811061449957614498614459565b5b50565b60008190506144aa82614488565b919050565b60006144ba8261449c565b9050919050565b6144ca816144af565b82525050565b60006020820190506144e560008301846144c1565b92915050565b6144f48161427e565b82525050565b600060208201905061450f60008301846144eb565b92915050565b600082825260208201905092915050565b6000614531826142e9565b61453b8185614515565b935061454b818560208601614305565b61455481614338565b840191505092915050565b600060e083016000830151848203600086015261457c8282614526565b915050602083015184820360208601526145968282614526565b915050604083015184820360408601526145b08282614526565b915050606083015184820360608601526145ca8282614526565b915050608083015184820360808601526145e48282614526565b91505060a083015184820360a08601526145fe8282614526565b91505060c083015184820360c08601526146188282614526565b9150508091505092915050565b61462e816141ab565b82525050565b600060e0830160008301518482036000860152614651828261455f565b9150506020830151848203602086015261466b828261455f565b91505060408301516146806040860182614625565b5060608301516146936060860182614625565b5060808301516146a66080860182614625565b5060a08301516146b960a0860182614625565b5060c08301516146cc60c0860182614625565b508091505092915050565b600060208201905081810360008301526146f18184614634565b905092915050565b600081519050919050565b600082825260208201905092915050565b6000819050602082019050919050565b60006147308261425e565b9050919050565b61474081614725565b82525050565b60608201600082015161475c6000850182614737565b50602082015161476f6020850182614625565b5060408201516147826040850182614625565b50505050565b60006147948383614746565b60608301905092915050565b6000602082019050919050565b60006147b8826146f9565b6147c28185614704565b93506147cd83614715565b8060005b838110156147fe5781516147e58882614788565b97506147f0836147a0565b9250506001810190506147d1565b5085935050505092915050565b6000602082019050818103600083015261482581846147ad565b905092915050565b600060208284031215614843576148426141a1565b5b6000614851848285016141cc565b91505092915050565b6060820160008201516148706000850182614737565b5060208201516148836020850182614625565b5060408201516148966040850182614625565b50505050565b60006060820190506148b1600083018461485a565b92915050565b6000806000606084860312156148d0576148cf6141a1565b5b60006148de868287016141cc565b93505060206148ef868287016141cc565b9250506040614900868287016142a7565b9150509250925092565b60008115159050919050565b61491f8161490a565b82525050565b60608201600082015161493b6000850182614916565b50602082015161494e6020850182614916565b5060408201516149616040850182614916565b50505050565b600060608201905061497c6000830184614925565b92915050565b600060c08201905061499760008301876144c1565b81810360208301526149a98186614634565b90506149b860408301856144eb565b6149c56060830184614925565b95945050505050565b600080fd5b600080fd5b7f4e487b7100000000000000000000000000000000000000000000000000000000600052604160045260246000fd5b614a1082614338565b810181811067ffffffffffffffff82111715614a2f57614a2e6149d8565b5b80604052505050565b6000614a42614197565b9050614a4e8282614a07565b919050565b600067ffffffffffffffff821115614a6e57614a6d6149d8565b5b614a7782614338565b9050602081019050919050565b82818337600083830152505050565b6000614aa6614aa184614a53565b614a38565b905082815260208101848484011115614ac257614ac16149d3565b5b614acd848285614a84565b509392505050565b600082601f830112614aea57614ae96149ce565b5b8135614afa848260208601614a93565b91505092915050565b600080600080600080600060e0888a031215614b2257614b216141a1565b5b600088013567ffffffffffffffff811115614b4057614b3f6141a6565b5b614b4c8a828b01614ad5565b975050602088013567ffffffffffffffff811115614b6d57614b6c6141a6565b5b614b798a828b01614ad5565b965050604088013567ffffffffffffffff811115614b9a57614b996141a6565b5b614ba68a828b01614ad5565b955050606088013567ffffffffffffffff811115614bc757614bc66141a6565b5b614bd38a828b01614ad5565b945050608088013567ffffffffffffffff811115614bf457614bf36141a6565b5b614c008a828b01614ad5565b93505060a088013567ffffffffffffffff811115614c2157614c206141a6565b5b614c2d8a828b01614ad5565b92505060c088013567ffffffffffffffff811115614c4e57614c4d6141a6565b5b614c5a8a828b01614ad5565b91505092959891949750929550565b60008060408385031215614c8057614c7f6141a1565b5b6000614c8e858286016141cc565b9250506020614c9f858286016141cc565b9150509250929050565b60006020820190508181036000830152614cc38184614349565b905092915050565b7f4e487b7100000000000000000000000000000000000000000000000000000000600052602260045260246000fd5b60006002820490506001821680614d1257607f821691505b60208210811415614d2657614d25614ccb565b5b50919050565b7f4e487b7100000000000000000000000000000000000000000000000000000000600052603260045260246000fd5b7f546865207472616e73706f72746572206973206f6e207468652063617272696160008201527f676520616761696e000000000000000000000000000000000000000000000000602082015250565b6000614db76028836142f4565b9150614dc282614d5b565b604082019050919050565b60006020820190508181036000830152614de681614daa565b9050919050565b7f4e487b7100000000000000000000000000000000000000000000000000000000600052601160045260246000fd5b6000614e27826141ab565b9150614e32836141ab565b925082821015614e4557614e44614ded565b5b828203905092915050565b7f546865206163636f756e742068616420616c726561647920776974686472617760008201527f6e2074686520616476616e6365206d6f6e657900000000000000000000000000602082015250565b6000614eac6033836142f4565b9150614eb782614e50565b604082019050919050565b60006020820190508181036000830152614edb81614e9f565b9050919050565b7f546865207472616e73706f72746572206861642077697468647261776e20746860008201527f6520616476616e6365206d6f6e65790000000000000000000000000000000000602082015250565b6000614f3e602f836142f4565b9150614f4982614ee2565b604082019050919050565b60006020820190508181036000830152614f6d81614f31565b9050919050565b7f5468652064656c6976657279206c6174652066696e652068616420616c72616460008201527f79206265656e2074616b656e0000000000000000000000000000000000000000602082015250565b6000614fd0602c836142f4565b9150614fdb82614f74565b604082019050919050565b60006020820190508181036000830152614fff81614fc3565b9050919050565b7f546865207472616e73706f72746572206861642073746f70706564207468652060008201527f6361727269616765000000000000000000000000000000000000000000000000602082015250565b60006150626028836142f4565b915061506d82615006565b604082019050919050565b6000602082019050818103600083015261509181615055565b9050919050565b7f4f776e657220636f6e6669726d65643a207472616e73706f727465722070696360008201527f6b656420757020746865206c6f61642120546f74616c206d6f6e65792068616460208201527f206265656e2061706f7274656420746f2074686520636f6e7472616374000000604082015250565b600061511a605d836142f4565b915061512582615098565b606082019050919050565b600060208201905081810360008301526151498161510d565b9050919050565b7f546865206f776e6572206861642073657420612077696e6e696e67206f66666560008201527f7200000000000000000000000000000000000000000000000000000000000000602082015250565b60006151ac6021836142f4565b91506151b782615150565b604082019050919050565b600060208201905081810360008301526151db8161519f565b9050919050565b7f57696e6e6572206f666665722068616420616363657074656420616e6420707560008201527f74207468652067756172616e7465652076616c75652061742074686520636f6e60208201527f7472616374000000000000000000000000000000000000000000000000000000604082015250565b60006152646045836142f4565b915061526f826151e2565b606082019050919050565b6000602082019050818103600083015261529381615257565b9050919050565b7f546865207472616e73706f72746572206861642064656c69766572656420746860008201527f65206c6f616420696e2074696d65000000000000000000000000000000000000602082015250565b60006152f6602e836142f4565b91506153018261529a565b604082019050919050565b60006020820190508181036000830152615325816152e9565b9050919050565b7f546865207472616e73706f72746572206861642064656c69766572656420746860008201527f65206c6f61642c206c6174650000000000000000000000000000000000000000602082015250565b6000615388602c836142f4565b91506153938261532c565b604082019050919050565b600060208201905081810360008301526153b78161537b565b905091905056fe546865206163636f756e742068616420616c72656164792077697468647261776e207468652077686f6c65206d6f6e6579214f6e6c79207468652077696e6e6572206f66666572207472616e73706f727465722063616e20706572666f726d207468697320616374696f6e4f6e6c7920746865206f776e6572206f662074686520636f6e74726163742063616e20706572666f726d207468697320616374696f6e546865206f776e6572206f662074686520636f6e74726163742063616e277420706572666f726d207468697320616374696f6e546865206672656967687420736974756174696f6e20697320646966666572656e74206f6620776861742077617320737570706f73656420746f206265a264697066735822122076a25f66c4a73ff23363f4ebdda99e481749a3fd3aadc62e578ec30f6f27f94c64736f6c634300080b0033",
  "immutableReferences": {},
  "source": "// SPDX-License-Identifier: UNLICENSED\npragma solidity ^0.8.11;\n\nimport \"./CloneFactory.sol\";\nimport \"./Freight.sol\";\n\n// Smart contract FreightFactory\ncontract FreightFactory is CloneFactory {\n    // global variables\n    Freight[] public freights; // all freights\n    \n    mapping(address => Freight[]) freights_owner; // mapping freights by owner\n    mapping(address => Freight[]) freights_offer; // mapping who made offer to freights\n\n    address master_contract; // master contract to use as clone factory\n\n    // constructor, initializing an empty contract (to use as CloneFactory)\n    constructor() {\n        Freight master = new Freight();\n        master_contract = address(master);\n    }\n\n    /* ------------------------- CREATE FREIGHT ------------------------- */\n\n    function createFreight() public {\n        // create new freight\n        Freight freight = Freight(createClone(master_contract));\n        freight.setOwner(msg.sender);\n\n        // put into mapping by owner\n        freights_owner[msg.sender].push(freight);\n\n        // put into freights array\n        freights.push(freight);\n    }\n\n    /* ------------------------- OFFERS ------------------------- */\n\n    function createOffer(uint value_, uint advance_money_, address contract_) public {\n        Freight freight = Freight(contract_);\n        freight.createOffer(value_, advance_money_, msg.sender);\n\n        // put into mapping by who made offers\n        freights_offer[msg.sender].push(freight);\n    }\n\n\n    /* ------------------------- GETTERS ------------------------- */\n\n    function getFreights() view public returns (Freight[] memory) {\n        return (freights);\n    }\n\n    function getFreightsByOwner(address owner_) view public returns (Freight[] memory) {\n        return (freights_owner[owner_]);\n    }\n\n    function getFreightsByOffer(address offer_) view public returns (Freight[] memory) {\n        return (freights_offer[offer_]);\n    }\n\n    function getLastFreightOwner(address owner_) view public returns (Freight) {\n        return (freights_owner[owner_][freights_owner[owner_].length - 1]);\n    }\n}",
  "sourcePath": "/home/anthony_kamers/Desktop/UFSC/2021.2/blockchain/projeto/contracts/FreightFactory.sol",
  "compiler": {
    "name": "solc",
    "version": "0.8.11+commit.d7f03943.Emscripten.clang"
  },
  "schemaVersion": "3.4.4",
  "updatedAt": "2022-03-04T01:35:30.038Z",
  "networkType": "ethereum",
  "devdoc": {
    "kind": "dev",
    "methods": {},
    "version": 1
  },
  "userdoc": {
    "kind": "user",
    "methods": {},
    "version": 1
  }
}