{
  "contractName": "Freight",
  "abi": [
    {
      "inputs": [],
      "stateMutability": "nonpayable",
      "type": "constructor"
    },
    {
      "anonymous": false,
      "inputs": [
        {
          "indexed": true,
          "internalType": "address",
          "name": "sender",
          "type": "address"
        },
        {
          "indexed": false,
          "internalType": "string",
          "name": "message",
          "type": "string"
        }
      ],
      "name": "Log",
      "type": "event"
    },
    {
      "inputs": [
        {
          "internalType": "address",
          "name": "owner_",
          "type": "address"
        }
      ],
      "name": "setOwner",
      "outputs": [],
      "stateMutability": "nonpayable",
      "type": "function"
    },
    {
      "inputs": [
        {
          "internalType": "string",
          "name": "country_",
          "type": "string"
        },
        {
          "internalType": "string",
          "name": "state_",
          "type": "string"
        },
        {
          "internalType": "string",
          "name": "city_",
          "type": "string"
        },
        {
          "internalType": "string",
          "name": "street_",
          "type": "string"
        },
        {
          "internalType": "string",
          "name": "district_",
          "type": "string"
        },
        {
          "internalType": "string",
          "name": "zipcode_",
          "type": "string"
        },
        {
          "internalType": "string",
          "name": "number_",
          "type": "string"
        }
      ],
      "name": "setOrigin",
      "outputs": [],
      "stateMutability": "nonpayable",
      "type": "function"
    },
    {
      "inputs": [
        {
          "internalType": "string",
          "name": "country_",
          "type": "string"
        },
        {
          "internalType": "string",
          "name": "state_",
          "type": "string"
        },
        {
          "internalType": "string",
          "name": "city_",
          "type": "string"
        },
        {
          "internalType": "string",
          "name": "street_",
          "type": "string"
        },
        {
          "internalType": "string",
          "name": "district_",
          "type": "string"
        },
        {
          "internalType": "string",
          "name": "zipcode_",
          "type": "string"
        },
        {
          "internalType": "string",
          "name": "number_",
          "type": "string"
        }
      ],
      "name": "setDestination",
      "outputs": [],
      "stateMutability": "nonpayable",
      "type": "function"
    },
    {
      "inputs": [
        {
          "internalType": "uint256",
          "name": "date_limit_get_load_",
          "type": "uint256"
        },
        {
          "internalType": "uint256",
          "name": "date_limit_delivery_",
          "type": "uint256"
        }
      ],
      "name": "setDates",
      "outputs": [],
      "stateMutability": "nonpayable",
      "type": "function"
    },
    {
      "inputs": [
        {
          "internalType": "uint256",
          "name": "estipulated_value_",
          "type": "uint256"
        },
        {
          "internalType": "uint256",
          "name": "fine_delivery_late_",
          "type": "uint256"
        },
        {
          "internalType": "uint256",
          "name": "guarantee_value_",
          "type": "uint256"
        }
      ],
      "name": "setValues",
      "outputs": [],
      "stateMutability": "nonpayable",
      "type": "function"
    },
    {
      "inputs": [
        {
          "internalType": "uint256",
          "name": "i",
          "type": "uint256"
        }
      ],
      "name": "setWinningOffer",
      "outputs": [],
      "stateMutability": "nonpayable",
      "type": "function"
    },
    {
      "inputs": [
        {
          "internalType": "uint256",
          "name": "value_",
          "type": "uint256"
        },
        {
          "internalType": "uint256",
          "name": "advance_money_",
          "type": "uint256"
        },
        {
          "internalType": "address",
          "name": "sender",
          "type": "address"
        }
      ],
      "name": "createOffer",
      "outputs": [],
      "stateMutability": "nonpayable",
      "type": "function"
    },
    {
      "inputs": [],
      "name": "acceptOffer",
      "outputs": [],
      "stateMutability": "payable",
      "type": "function"
    },
    {
      "inputs": [],
      "name": "pickUpLoad",
      "outputs": [],
      "stateMutability": "payable",
      "type": "function"
    },
    {
      "inputs": [],
      "name": "withdrawAdvanceMoney",
      "outputs": [],
      "stateMutability": "nonpayable",
      "type": "function"
    },
    {
      "inputs": [],
      "name": "stopCarriage",
      "outputs": [],
      "stateMutability": "nonpayable",
      "type": "function"
    },
    {
      "inputs": [],
      "name": "onCarriage",
      "outputs": [],
      "stateMutability": "nonpayable",
      "type": "function"
    },
    {
      "inputs": [],
      "name": "deliver",
      "outputs": [],
      "stateMutability": "nonpayable",
      "type": "function"
    },
    {
      "inputs": [],
      "name": "withdrawWholeMoney",
      "outputs": [],
      "stateMutability": "nonpayable",
      "type": "function"
    },
    {
      "inputs": [],
      "name": "cancelFreight",
      "outputs": [],
      "stateMutability": "nonpayable",
      "type": "function"
    },
    {
      "inputs": [],
      "name": "getDeliveryLateFine",
      "outputs": [],
      "stateMutability": "nonpayable",
      "type": "function"
    },
    {
      "inputs": [],
      "name": "getOrigin",
      "outputs": [
        {
          "internalType": "string",
          "name": "",
          "type": "string"
        },
        {
          "internalType": "string",
          "name": "",
          "type": "string"
        },
        {
          "internalType": "string",
          "name": "",
          "type": "string"
        },
        {
          "internalType": "string",
          "name": "",
          "type": "string"
        },
        {
          "internalType": "string",
          "name": "",
          "type": "string"
        },
        {
          "internalType": "string",
          "name": "",
          "type": "string"
        },
        {
          "internalType": "string",
          "name": "",
          "type": "string"
        }
      ],
      "stateMutability": "view",
      "type": "function"
    },
    {
      "inputs": [],
      "name": "getDestination",
      "outputs": [
        {
          "internalType": "string",
          "name": "",
          "type": "string"
        },
        {
          "internalType": "string",
          "name": "",
          "type": "string"
        },
        {
          "internalType": "string",
          "name": "",
          "type": "string"
        },
        {
          "internalType": "string",
          "name": "",
          "type": "string"
        },
        {
          "internalType": "string",
          "name": "",
          "type": "string"
        },
        {
          "internalType": "string",
          "name": "",
          "type": "string"
        },
        {
          "internalType": "string",
          "name": "",
          "type": "string"
        }
      ],
      "stateMutability": "view",
      "type": "function"
    },
    {
      "inputs": [],
      "name": "getFreightSituation",
      "outputs": [
        {
          "internalType": "enum FreightSituation",
          "name": "",
          "type": "uint8"
        }
      ],
      "stateMutability": "view",
      "type": "function"
    },
    {
      "inputs": [],
      "name": "getOffers",
      "outputs": [
        {
          "components": [
            {
              "internalType": "address payable",
              "name": "address_offer",
              "type": "address"
            },
            {
              "internalType": "uint256",
              "name": "value",
              "type": "uint256"
            },
            {
              "internalType": "uint256",
              "name": "advance_money",
              "type": "uint256"
            }
          ],
          "internalType": "struct Offer[]",
          "name": "",
          "type": "tuple[]"
        }
      ],
      "stateMutability": "view",
      "type": "function"
    },
    {
      "inputs": [
        {
          "internalType": "uint256",
          "name": "index",
          "type": "uint256"
        }
      ],
      "name": "getOffer",
      "outputs": [
        {
          "components": [
            {
              "internalType": "address payable",
              "name": "address_offer",
              "type": "address"
            },
            {
              "internalType": "uint256",
              "name": "value",
              "type": "uint256"
            },
            {
              "internalType": "uint256",
              "name": "advance_money",
              "type": "uint256"
            }
          ],
          "internalType": "struct Offer",
          "name": "",
          "type": "tuple"
        }
      ],
      "stateMutability": "view",
      "type": "function"
    },
    {
      "inputs": [],
      "name": "getBalance",
      "outputs": [
        {
          "internalType": "uint256",
          "name": "",
          "type": "uint256"
        }
      ],
      "stateMutability": "view",
      "type": "function"
    },
    {
      "inputs": [],
      "name": "getValues",
      "outputs": [
        {
          "internalType": "uint256",
          "name": "",
          "type": "uint256"
        },
        {
          "internalType": "uint256",
          "name": "",
          "type": "uint256"
        },
        {
          "internalType": "uint256",
          "name": "",
          "type": "uint256"
        }
      ],
      "stateMutability": "view",
      "type": "function"
    },
    {
      "inputs": [],
      "name": "getContractAddress",
      "outputs": [
        {
          "internalType": "address",
          "name": "",
          "type": "address"
        }
      ],
      "stateMutability": "view",
      "type": "function"
    },
    {
      "inputs": [],
      "name": "getFreightDetails",
      "outputs": [
        {
          "components": [
            {
              "components": [
                {
                  "internalType": "string",
                  "name": "country",
                  "type": "string"
                },
                {
                  "internalType": "string",
                  "name": "state",
                  "type": "string"
                },
                {
                  "internalType": "string",
                  "name": "city",
                  "type": "string"
                },
                {
                  "internalType": "string",
                  "name": "street",
                  "type": "string"
                },
                {
                  "internalType": "string",
                  "name": "district",
                  "type": "string"
                },
                {
                  "internalType": "string",
                  "name": "zipcode",
                  "type": "string"
                },
                {
                  "internalType": "string",
                  "name": "number",
                  "type": "string"
                }
              ],
              "internalType": "struct Address",
              "name": "origin",
              "type": "tuple"
            },
            {
              "components": [
                {
                  "internalType": "string",
                  "name": "country",
                  "type": "string"
                },
                {
                  "internalType": "string",
                  "name": "state",
                  "type": "string"
                },
                {
                  "internalType": "string",
                  "name": "city",
                  "type": "string"
                },
                {
                  "internalType": "string",
                  "name": "street",
                  "type": "string"
                },
                {
                  "internalType": "string",
                  "name": "district",
                  "type": "string"
                },
                {
                  "internalType": "string",
                  "name": "zipcode",
                  "type": "string"
                },
                {
                  "internalType": "string",
                  "name": "number",
                  "type": "string"
                }
              ],
              "internalType": "struct Address",
              "name": "destination",
              "type": "tuple"
            },
            {
              "internalType": "uint256",
              "name": "date_limit_get_load",
              "type": "uint256"
            },
            {
              "internalType": "uint256",
              "name": "date_limit_delivery",
              "type": "uint256"
            },
            {
              "internalType": "uint256",
              "name": "estipulated_value",
              "type": "uint256"
            },
            {
              "internalType": "uint256",
              "name": "fine_delivery_late",
              "type": "uint256"
            },
            {
              "internalType": "uint256",
              "name": "guarantee_value",
              "type": "uint256"
            }
          ],
          "internalType": "struct FreightDetails",
          "name": "",
          "type": "tuple"
        }
      ],
      "stateMutability": "view",
      "type": "function"
    },
    {
      "inputs": [],
      "name": "getWinningOffer",
      "outputs": [
        {
          "components": [
            {
              "internalType": "address payable",
              "name": "address_offer",
              "type": "address"
            },
            {
              "internalType": "uint256",
              "name": "value",
              "type": "uint256"
            },
            {
              "internalType": "uint256",
              "name": "advance_money",
              "type": "uint256"
            }
          ],
          "internalType": "struct Offer",
          "name": "",
          "type": "tuple"
        }
      ],
      "stateMutability": "view",
      "type": "function"
    },
    {
      "inputs": [],
      "name": "getFreight",
      "outputs": [
        {
          "internalType": "enum FreightSituation",
          "name": "",
          "type": "uint8"
        },
        {
          "components": [
            {
              "components": [
                {
                  "internalType": "string",
                  "name": "country",
                  "type": "string"
                },
                {
                  "internalType": "string",
                  "name": "state",
                  "type": "string"
                },
                {
                  "internalType": "string",
                  "name": "city",
                  "type": "string"
                },
                {
                  "internalType": "string",
                  "name": "street",
                  "type": "string"
                },
                {
                  "internalType": "string",
                  "name": "district",
                  "type": "string"
                },
                {
                  "internalType": "string",
                  "name": "zipcode",
                  "type": "string"
                },
                {
                  "internalType": "string",
                  "name": "number",
                  "type": "string"
                }
              ],
              "internalType": "struct Address",
              "name": "origin",
              "type": "tuple"
            },
            {
              "components": [
                {
                  "internalType": "string",
                  "name": "country",
                  "type": "string"
                },
                {
                  "internalType": "string",
                  "name": "state",
                  "type": "string"
                },
                {
                  "internalType": "string",
                  "name": "city",
                  "type": "string"
                },
                {
                  "internalType": "string",
                  "name": "street",
                  "type": "string"
                },
                {
                  "internalType": "string",
                  "name": "district",
                  "type": "string"
                },
                {
                  "internalType": "string",
                  "name": "zipcode",
                  "type": "string"
                },
                {
                  "internalType": "string",
                  "name": "number",
                  "type": "string"
                }
              ],
              "internalType": "struct Address",
              "name": "destination",
              "type": "tuple"
            },
            {
              "internalType": "uint256",
              "name": "date_limit_get_load",
              "type": "uint256"
            },
            {
              "internalType": "uint256",
              "name": "date_limit_delivery",
              "type": "uint256"
            },
            {
              "internalType": "uint256",
              "name": "estipulated_value",
              "type": "uint256"
            },
            {
              "internalType": "uint256",
              "name": "fine_delivery_late",
              "type": "uint256"
            },
            {
              "internalType": "uint256",
              "name": "guarantee_value",
              "type": "uint256"
            }
          ],
          "internalType": "struct FreightDetails",
          "name": "",
          "type": "tuple"
        }
      ],
      "stateMutability": "view",
      "type": "function"
    }
  ],
  "bytecode": "0x60806040523480156200001157600080fd5b506000601860006101000a81548160ff021916908360088111156200003b576200003a62000097565b5b02179055506000601860016101000a81548160ff0219169083151502179055506000601860026101000a81548160ff0219169083151502179055506000601860036101000a81548160ff021916908315150217905550620000c6565b7f4e487b7100000000000000000000000000000000000000000000000000000000600052602160045260246000fd5b6152ed80620000d66000396000f3fe60806040526004361061019c5760003560e01c806357ca3b9b116100ec578063b5ed7bb11161008a578063df1f29ee11610064578063df1f29ee146104f2578063eaf0d9c614610523578063eb62df611461054e578063fd3e50a7146105585761019c565b8063b5ed7bb114610477578063c6397bd8146104a0578063dedf141e146104c95761019c565b806375135256116100c657806375135256146104015780639171965e1461041857806392a81d1714610444578063abdd10971461046d5761019c565b806357ca3b9b146103aa57806362697ad7146103c157806366b6aff6146103d85761019c565b806322eddc47116101595780633bb24b7d116101335780633bb24b7d146103005780633ee992ee1461032b5780634579268a146103565780635730e799146103935761019c565b806322eddc4714610293578063281c492c146102be57806332a2c5d0146102d55761019c565b8063111be316146101a157806312065fe0146101ca57806313af4035146101f557806316ad95421461021e57806319eb4a901461024f5780631c1fdea51461027c575b600080fd5b3480156101ad57600080fd5b506101c860048036038101906101c3919061405d565b61056f565b005b3480156101d657600080fd5b506101df61063c565b6040516101ec91906140bf565b60405180910390f35b34801561020157600080fd5b5061021c60048036038101906102179190614138565b610644565b005b34801561022a57600080fd5b506102336106e0565b60405161024697969594939291906141fe565b60405180910390f35b34801561025b57600080fd5b50610264610b0e565b6040516102739392919061429e565b60405180910390f35b34801561028857600080fd5b50610291610b30565b005b34801561029f57600080fd5b506102a8610dd6565b6040516102b5919061434c565b60405180910390f35b3480156102ca57600080fd5b506102d3610ded565b005b3480156102e157600080fd5b506102ea611002565b6040516102f79190614376565b60405180910390f35b34801561030c57600080fd5b5061031561100a565b6040516103229190614553565b60405180910390f35b34801561033757600080fd5b5061034061187a565b60405161034d9190614687565b60405180910390f35b34801561036257600080fd5b5061037d600480360381019061037891906146a9565b611943565b60405161038a9190614718565b60405180910390f35b34801561039f57600080fd5b506103a86119e9565b005b3480156103b657600080fd5b506103bf611be3565b005b3480156103cd57600080fd5b506103d6611f15565b005b3480156103e457600080fd5b506103ff60048036038101906103fa9190614733565b6120ee565b005b34801561040d57600080fd5b506104166122e9565b005b34801561042457600080fd5b5061042d6124e3565b60405161043b929190614786565b60405180910390f35b34801561045057600080fd5b5061046b600480360381019061046691906148eb565b612d6b565b005b610475612ee9565b005b34801561048357600080fd5b5061049e600480360381019061049991906146a9565b61311e565b005b3480156104ac57600080fd5b506104c760048036038101906104c291906148eb565b613396565b005b3480156104d557600080fd5b506104f060048036038101906104eb9190614a51565b613514565b005b3480156104fe57600080fd5b506105076135d6565b60405161051a97969594939291906141fe565b60405180910390f35b34801561052f57600080fd5b50610538613a04565b6040516105459190614718565b60405180910390f35b610556613a88565b005b34801561056457600080fd5b5061056d613cc2565b005b60008054906101000a900473ffffffffffffffffffffffffffffffffffffffff1673ffffffffffffffffffffffffffffffffffffffff163373ffffffffffffffffffffffffffffffffffffffff16146040518060600160405280603681526020016152126036913990610618576040517f08c379a000000000000000000000000000000000000000000000000000000000815260040161060f9190614a91565b60405180910390fd5b50826001601001819055508160016011018190555080600160120181905550505050565b600047905090565b600073ffffffffffffffffffffffffffffffffffffffff1660008054906101000a900473ffffffffffffffffffffffffffffffffffffffff1673ffffffffffffffffffffffffffffffffffffffff161461069d57600080fd5b806000806101000a81548173ffffffffffffffffffffffffffffffffffffffff021916908373ffffffffffffffffffffffffffffffffffffffff16021790555050565b6060806060806060806060600160070160000160016007016001016001600701600201600160070160030160016007016004016001600701600501600160070160060186805461072f90614ae2565b80601f016020809104026020016040519081016040528092919081815260200182805461075b90614ae2565b80156107a85780601f1061077d576101008083540402835291602001916107a8565b820191906000526020600020905b81548152906001019060200180831161078b57829003601f168201915b505050505096508580546107bb90614ae2565b80601f01602080910402602001604051908101604052809291908181526020018280546107e790614ae2565b80156108345780601f1061080957610100808354040283529160200191610834565b820191906000526020600020905b81548152906001019060200180831161081757829003601f168201915b5050505050955084805461084790614ae2565b80601f016020809104026020016040519081016040528092919081815260200182805461087390614ae2565b80156108c05780601f10610895576101008083540402835291602001916108c0565b820191906000526020600020905b8154815290600101906020018083116108a357829003601f168201915b505050505094508380546108d390614ae2565b80601f01602080910402602001604051908101604052809291908181526020018280546108ff90614ae2565b801561094c5780601f106109215761010080835404028352916020019161094c565b820191906000526020600020905b81548152906001019060200180831161092f57829003601f168201915b5050505050935082805461095f90614ae2565b80601f016020809104026020016040519081016040528092919081815260200182805461098b90614ae2565b80156109d85780601f106109ad576101008083540402835291602001916109d8565b820191906000526020600020905b8154815290600101906020018083116109bb57829003601f168201915b505050505092508180546109eb90614ae2565b80601f0160208091040260200160405190810160405280929190818152602001828054610a1790614ae2565b8015610a645780601f10610a3957610100808354040283529160200191610a64565b820191906000526020600020905b815481529060010190602001808311610a4757829003601f168201915b50505050509150808054610a7790614ae2565b80601f0160208091040260200160405190810160405280929190818152602001828054610aa390614ae2565b8015610af05780601f10610ac557610100808354040283529160200191610af0565b820191906000526020600020905b815481529060010190602001808311610ad357829003601f168201915b50505050509050965096509650965096509650965090919293949596565b6000806000600160100154600160110154600160120154925092509250909192565b60008054906101000a900473ffffffffffffffffffffffffffffffffffffffff1673ffffffffffffffffffffffffffffffffffffffff163373ffffffffffffffffffffffffffffffffffffffff16146040518060600160405280603681526020016152126036913990610bd9576040517f08c379a0000000000000000000000000000000000000000000000000000000008152600401610bd09190614a91565b60405180910390fd5b5060036008811115610bee57610bed6142d5565b5b601860009054906101000a900460ff166008811115610c1057610c0f6142d5565b5b1480610c4f575060046008811115610c2b57610c2a6142d5565b5b601860009054906101000a900460ff166008811115610c4d57610c4c6142d5565b5b145b6040518060600160405280603d815260200161527b603d913990610ca9576040517f08c379a0000000000000000000000000000000000000000000000000000000008152600401610ca09190614a91565b60405180910390fd5b506001600f01544211610cbb57600080fd5b601860029054906101000a900460ff16156040518060600160405280603281526020016151a76032913990610d26576040517f08c379a0000000000000000000000000000000000000000000000000000000008152600401610d1d9190614a91565b60405180910390fd5b506007601860006101000a81548160ff02191690836008811115610d4d57610d4c6142d5565b5b021790555060008054906101000a900473ffffffffffffffffffffffffffffffffffffffff1673ffffffffffffffffffffffffffffffffffffffff166108fc479081150290604051600060405180830381858888f19350505050158015610db8573d6000803e3d6000fd5b506001601860026101000a81548160ff021916908315150217905550565b6000601860009054906101000a900460ff16905090565b60008054906101000a900473ffffffffffffffffffffffffffffffffffffffff1673ffffffffffffffffffffffffffffffffffffffff163373ffffffffffffffffffffffffffffffffffffffff16146040518060600160405280603681526020016152126036913990610e96576040517f08c379a0000000000000000000000000000000000000000000000000000000008152600401610e8d9190614a91565b60405180910390fd5b5060066008811115610eab57610eaa6142d5565b5b601860009054906101000a900460ff166008811115610ecd57610ecc6142d5565b5b146040518060600160405280603d815260200161527b603d913990610f28576040517f08c379a0000000000000000000000000000000000000000000000000000000008152600401610f1f9190614a91565b60405180910390fd5b50601860039054906101000a900460ff1615610f79576040517f08c379a0000000000000000000000000000000000000000000000000000000008152600401610f7090614b86565b60405180910390fd5b60008054906101000a900473ffffffffffffffffffffffffffffffffffffffff1673ffffffffffffffffffffffffffffffffffffffff166108fc6001601101549081150290604051600060405180830381858888f19350505050158015610fe4573d6000803e3d6000fd5b506001601860036101000a81548160ff021916908315150217905550565b600030905090565b611012613eb3565b60016040518060e0016040529081600082016040518060e001604052908160008201805461103f90614ae2565b80601f016020809104026020016040519081016040528092919081815260200182805461106b90614ae2565b80156110b85780601f1061108d576101008083540402835291602001916110b8565b820191906000526020600020905b81548152906001019060200180831161109b57829003601f168201915b505050505081526020016001820180546110d190614ae2565b80601f01602080910402602001604051908101604052809291908181526020018280546110fd90614ae2565b801561114a5780601f1061111f5761010080835404028352916020019161114a565b820191906000526020600020905b81548152906001019060200180831161112d57829003601f168201915b5050505050815260200160028201805461116390614ae2565b80601f016020809104026020016040519081016040528092919081815260200182805461118f90614ae2565b80156111dc5780601f106111b1576101008083540402835291602001916111dc565b820191906000526020600020905b8154815290600101906020018083116111bf57829003601f168201915b505050505081526020016003820180546111f590614ae2565b80601f016020809104026020016040519081016040528092919081815260200182805461122190614ae2565b801561126e5780601f106112435761010080835404028352916020019161126e565b820191906000526020600020905b81548152906001019060200180831161125157829003601f168201915b5050505050815260200160048201805461128790614ae2565b80601f01602080910402602001604051908101604052809291908181526020018280546112b390614ae2565b80156113005780601f106112d557610100808354040283529160200191611300565b820191906000526020600020905b8154815290600101906020018083116112e357829003601f168201915b5050505050815260200160058201805461131990614ae2565b80601f016020809104026020016040519081016040528092919081815260200182805461134590614ae2565b80156113925780601f1061136757610100808354040283529160200191611392565b820191906000526020600020905b81548152906001019060200180831161137557829003601f168201915b505050505081526020016006820180546113ab90614ae2565b80601f01602080910402602001604051908101604052809291908181526020018280546113d790614ae2565b80156114245780601f106113f957610100808354040283529160200191611424565b820191906000526020600020905b81548152906001019060200180831161140757829003601f168201915b5050505050815250508152602001600782016040518060e001604052908160008201805461145190614ae2565b80601f016020809104026020016040519081016040528092919081815260200182805461147d90614ae2565b80156114ca5780601f1061149f576101008083540402835291602001916114ca565b820191906000526020600020905b8154815290600101906020018083116114ad57829003601f168201915b505050505081526020016001820180546114e390614ae2565b80601f016020809104026020016040519081016040528092919081815260200182805461150f90614ae2565b801561155c5780601f106115315761010080835404028352916020019161155c565b820191906000526020600020905b81548152906001019060200180831161153f57829003601f168201915b5050505050815260200160028201805461157590614ae2565b80601f01602080910402602001604051908101604052809291908181526020018280546115a190614ae2565b80156115ee5780601f106115c3576101008083540402835291602001916115ee565b820191906000526020600020905b8154815290600101906020018083116115d157829003601f168201915b5050505050815260200160038201805461160790614ae2565b80601f016020809104026020016040519081016040528092919081815260200182805461163390614ae2565b80156116805780601f1061165557610100808354040283529160200191611680565b820191906000526020600020905b81548152906001019060200180831161166357829003601f168201915b5050505050815260200160048201805461169990614ae2565b80601f01602080910402602001604051908101604052809291908181526020018280546116c590614ae2565b80156117125780601f106116e757610100808354040283529160200191611712565b820191906000526020600020905b8154815290600101906020018083116116f557829003601f168201915b5050505050815260200160058201805461172b90614ae2565b80601f016020809104026020016040519081016040528092919081815260200182805461175790614ae2565b80156117a45780601f10611779576101008083540402835291602001916117a4565b820191906000526020600020905b81548152906001019060200180831161178757829003601f168201915b505050505081526020016006820180546117bd90614ae2565b80601f01602080910402602001604051908101604052809291908181526020018280546117e990614ae2565b80156118365780601f1061180b57610100808354040283529160200191611836565b820191906000526020600020905b81548152906001019060200180831161181957829003601f168201915b5050505050815250508152602001600e8201548152602001600f82015481526020016010820154815260200160118201548152602001601282015481525050905090565b60606017805480602002602001604051908101604052809291908181526020016000905b8282101561193a57838290600052602060002090600302016040518060600160405290816000820160009054906101000a900473ffffffffffffffffffffffffffffffffffffffff1673ffffffffffffffffffffffffffffffffffffffff1673ffffffffffffffffffffffffffffffffffffffff168152602001600182015481526020016002820154815250508152602001906001019061189e565b50505050905090565b61194b613efc565b6017828154811061195f5761195e614ba6565b5b90600052602060002090600302016040518060600160405290816000820160009054906101000a900473ffffffffffffffffffffffffffffffffffffffff1673ffffffffffffffffffffffffffffffffffffffff1673ffffffffffffffffffffffffffffffffffffffff168152602001600182015481526020016002820154815250509050919050565b601460000160009054906101000a900473ffffffffffffffffffffffffffffffffffffffff1673ffffffffffffffffffffffffffffffffffffffff163373ffffffffffffffffffffffffffffffffffffffff16146040518060600160405280603981526020016151d96039913990611a97576040517f08c379a0000000000000000000000000000000000000000000000000000000008152600401611a8e9190614a91565b60405180910390fd5b5060036008811115611aac57611aab6142d5565b5b601860009054906101000a900460ff166008811115611ace57611acd6142d5565b5b10158015611b0f575060056008811115611aeb57611aea6142d5565b5b601860009054906101000a900460ff166008811115611b0d57611b0c6142d5565b5b105b6040518060600160405280603d815260200161527b603d913990611b69576040517f08c379a0000000000000000000000000000000000000000000000000000000008152600401611b609190614a91565b60405180910390fd5b506003601860006101000a81548160ff02191690836008811115611b9057611b8f6142d5565b5b02179055503373ffffffffffffffffffffffffffffffffffffffff167f0738f4da267a110d810e6e89fc59e46be6de0c37b1d5cd559b267dc3688e74e0604051611bd990614c47565b60405180910390a2565b601460000160009054906101000a900473ffffffffffffffffffffffffffffffffffffffff1673ffffffffffffffffffffffffffffffffffffffff163373ffffffffffffffffffffffffffffffffffffffff16146040518060600160405280603981526020016151d96039913990611c91576040517f08c379a0000000000000000000000000000000000000000000000000000000008152600401611c889190614a91565b60405180910390fd5b5060056008811115611ca657611ca56142d5565b5b601860009054906101000a900460ff166008811115611cc857611cc76142d5565b5b1480611d07575060066008811115611ce357611ce26142d5565b5b601860009054906101000a900460ff166008811115611d0557611d046142d5565b5b145b6040518060600160405280603d815260200161527b603d913990611d61576040517f08c379a0000000000000000000000000000000000000000000000000000000008152600401611d589190614a91565b60405180910390fd5b50601860029054906101000a900460ff16156040518060600160405280603281526020016151a76032913990611dcd576040517f08c379a0000000000000000000000000000000000000000000000000000000008152600401611dc49190614a91565b60405180910390fd5b5060056008811115611de257611de16142d5565b5b601860009054906101000a900460ff166008811115611e0457611e036142d5565b5b1415611e7b57601460000160009054906101000a900473ffffffffffffffffffffffffffffffffffffffff1673ffffffffffffffffffffffffffffffffffffffff166108fc479081150290604051600060405180830381858888f19350505050158015611e75573d6000803e3d6000fd5b50611ef8565b601460000160009054906101000a900473ffffffffffffffffffffffffffffffffffffffff1673ffffffffffffffffffffffffffffffffffffffff166108fc60016011015447611ecb9190614c96565b9081150290604051600060405180830381858888f19350505050158015611ef6573d6000803e3d6000fd5b505b6001601860026101000a81548160ff021916908315150217905550565b601460000160009054906101000a900473ffffffffffffffffffffffffffffffffffffffff1673ffffffffffffffffffffffffffffffffffffffff163373ffffffffffffffffffffffffffffffffffffffff16146040518060600160405280603981526020016151d96039913990611fc3576040517f08c379a0000000000000000000000000000000000000000000000000000000008152600401611fba9190614a91565b60405180910390fd5b50601860019054906101000a900460ff1615612014576040517f08c379a000000000000000000000000000000000000000000000000000000000815260040161200b90614d3c565b60405180910390fd5b601460000160009054906101000a900473ffffffffffffffffffffffffffffffffffffffff1673ffffffffffffffffffffffffffffffffffffffff166108fc6014600201549081150290604051600060405180830381858888f19350505050158015612084573d6000803e3d6000fd5b506001601860016101000a81548160ff0219169083151502179055503373ffffffffffffffffffffffffffffffffffffffff167f0738f4da267a110d810e6e89fc59e46be6de0c37b1d5cd559b267dc3688e74e06040516120e490614dce565b60405180910390a2565b60006008811115612102576121016142d5565b5b601860009054906101000a900460ff166008811115612124576121236142d5565b5b146040518060600160405280603d815260200161527b603d91399061217f576040517f08c379a00000000000000000000000000000000000000000000000000000000081526004016121769190614a91565b60405180910390fd5b5060008054906101000a900473ffffffffffffffffffffffffffffffffffffffff1673ffffffffffffffffffffffffffffffffffffffff168173ffffffffffffffffffffffffffffffffffffffff161415604051806060016040528060338152602001615248603391399061222a576040517f08c379a00000000000000000000000000000000000000000000000000000000081526004016122219190614a91565b60405180910390fd5b50601760405180606001604052808373ffffffffffffffffffffffffffffffffffffffff16815260200185815260200184815250908060018154018082558091505060019003906000526020600020906003020160009091909190915060008201518160000160006101000a81548173ffffffffffffffffffffffffffffffffffffffff021916908373ffffffffffffffffffffffffffffffffffffffff16021790555060208201518160010155604082015181600201555050505050565b601460000160009054906101000a900473ffffffffffffffffffffffffffffffffffffffff1673ffffffffffffffffffffffffffffffffffffffff163373ffffffffffffffffffffffffffffffffffffffff16146040518060600160405280603981526020016151d96039913990612397576040517f08c379a000000000000000000000000000000000000000000000000000000000815260040161238e9190614a91565b60405180910390fd5b50600360088111156123ac576123ab6142d5565b5b601860009054906101000a900460ff1660088111156123ce576123cd6142d5565b5b1015801561240f5750600560088111156123eb576123ea6142d5565b5b601860009054906101000a900460ff16600881111561240d5761240c6142d5565b5b105b6040518060600160405280603d815260200161527b603d913990612469576040517f08c379a00000000000000000000000000000000000000000000000000000000081526004016124609190614a91565b60405180910390fd5b506004601860006101000a81548160ff021916908360088111156124905761248f6142d5565b5b02179055503373ffffffffffffffffffffffffffffffffffffffff167f0738f4da267a110d810e6e89fc59e46be6de0c37b1d5cd559b267dc3688e74e06040516124d990614e60565b60405180910390a2565b60006124ed613eb3565b601860009054906101000a900460ff166001806040518060e0016040529081600082016040518060e001604052908160008201805461252b90614ae2565b80601f016020809104026020016040519081016040528092919081815260200182805461255790614ae2565b80156125a45780601f10612579576101008083540402835291602001916125a4565b820191906000526020600020905b81548152906001019060200180831161258757829003601f168201915b505050505081526020016001820180546125bd90614ae2565b80601f01602080910402602001604051908101604052809291908181526020018280546125e990614ae2565b80156126365780601f1061260b57610100808354040283529160200191612636565b820191906000526020600020905b81548152906001019060200180831161261957829003601f168201915b5050505050815260200160028201805461264f90614ae2565b80601f016020809104026020016040519081016040528092919081815260200182805461267b90614ae2565b80156126c85780601f1061269d576101008083540402835291602001916126c8565b820191906000526020600020905b8154815290600101906020018083116126ab57829003601f168201915b505050505081526020016003820180546126e190614ae2565b80601f016020809104026020016040519081016040528092919081815260200182805461270d90614ae2565b801561275a5780601f1061272f5761010080835404028352916020019161275a565b820191906000526020600020905b81548152906001019060200180831161273d57829003601f168201915b5050505050815260200160048201805461277390614ae2565b80601f016020809104026020016040519081016040528092919081815260200182805461279f90614ae2565b80156127ec5780601f106127c1576101008083540402835291602001916127ec565b820191906000526020600020905b8154815290600101906020018083116127cf57829003601f168201915b5050505050815260200160058201805461280590614ae2565b80601f016020809104026020016040519081016040528092919081815260200182805461283190614ae2565b801561287e5780601f106128535761010080835404028352916020019161287e565b820191906000526020600020905b81548152906001019060200180831161286157829003601f168201915b5050505050815260200160068201805461289790614ae2565b80601f01602080910402602001604051908101604052809291908181526020018280546128c390614ae2565b80156129105780601f106128e557610100808354040283529160200191612910565b820191906000526020600020905b8154815290600101906020018083116128f357829003601f168201915b5050505050815250508152602001600782016040518060e001604052908160008201805461293d90614ae2565b80601f016020809104026020016040519081016040528092919081815260200182805461296990614ae2565b80156129b65780601f1061298b576101008083540402835291602001916129b6565b820191906000526020600020905b81548152906001019060200180831161299957829003601f168201915b505050505081526020016001820180546129cf90614ae2565b80601f01602080910402602001604051908101604052809291908181526020018280546129fb90614ae2565b8015612a485780601f10612a1d57610100808354040283529160200191612a48565b820191906000526020600020905b815481529060010190602001808311612a2b57829003601f168201915b50505050508152602001600282018054612a6190614ae2565b80601f0160208091040260200160405190810160405280929190818152602001828054612a8d90614ae2565b8015612ada5780601f10612aaf57610100808354040283529160200191612ada565b820191906000526020600020905b815481529060010190602001808311612abd57829003601f168201915b50505050508152602001600382018054612af390614ae2565b80601f0160208091040260200160405190810160405280929190818152602001828054612b1f90614ae2565b8015612b6c5780601f10612b4157610100808354040283529160200191612b6c565b820191906000526020600020905b815481529060010190602001808311612b4f57829003601f168201915b50505050508152602001600482018054612b8590614ae2565b80601f0160208091040260200160405190810160405280929190818152602001828054612bb190614ae2565b8015612bfe5780601f10612bd357610100808354040283529160200191612bfe565b820191906000526020600020905b815481529060010190602001808311612be157829003601f168201915b50505050508152602001600582018054612c1790614ae2565b80601f0160208091040260200160405190810160405280929190818152602001828054612c4390614ae2565b8015612c905780601f10612c6557610100808354040283529160200191612c90565b820191906000526020600020905b815481529060010190602001808311612c7357829003601f168201915b50505050508152602001600682018054612ca990614ae2565b80601f0160208091040260200160405190810160405280929190818152602001828054612cd590614ae2565b8015612d225780601f10612cf757610100808354040283529160200191612d22565b820191906000526020600020905b815481529060010190602001808311612d0557829003601f168201915b5050505050815250508152602001600e8201548152602001600f820154815260200160108201548152602001601182015481526020016012820154815250509050915091509091565b60008054906101000a900473ffffffffffffffffffffffffffffffffffffffff1673ffffffffffffffffffffffffffffffffffffffff163373ffffffffffffffffffffffffffffffffffffffff16146040518060600160405280603681526020016152126036913990612e14576040517f08c379a0000000000000000000000000000000000000000000000000000000008152600401612e0b9190614a91565b60405180910390fd5b508660016007016000019080519060200190612e31929190613f33565b508560016007016001019080519060200190612e4e929190613f33565b508460016007016002019080519060200190612e6b929190613f33565b508360016007016003019080519060200190612e88929190613f33565b508260016007016004019080519060200190612ea5929190613f33565b508160016007016005019080519060200190612ec2929190613f33565b508060016007016006019080519060200190612edf929190613f33565b5050505050505050565b60008054906101000a900473ffffffffffffffffffffffffffffffffffffffff1673ffffffffffffffffffffffffffffffffffffffff163373ffffffffffffffffffffffffffffffffffffffff16146040518060600160405280603681526020016152126036913990612f92576040517f08c379a0000000000000000000000000000000000000000000000000000000008152600401612f899190614a91565b60405180910390fd5b5060026008811115612fa757612fa66142d5565b5b601860009054906101000a900460ff166008811115612fc957612fc86142d5565b5b146040518060600160405280603d815260200161527b603d913990613024576040517f08c379a000000000000000000000000000000000000000000000000000000000815260040161301b9190614a91565b60405180910390fd5b5060146001015434146040518060400160405280601881526020017f5468652076616c7565732061726520646966666572656e740000000000000000815250906130a4576040517f08c379a000000000000000000000000000000000000000000000000000000000815260040161309b9190614a91565b60405180910390fd5b506003601860006101000a81548160ff021916908360088111156130cb576130ca6142d5565b5b02179055503373ffffffffffffffffffffffffffffffffffffffff167f0738f4da267a110d810e6e89fc59e46be6de0c37b1d5cd559b267dc3688e74e060405161311490614f18565b60405180910390a2565b60008054906101000a900473ffffffffffffffffffffffffffffffffffffffff1673ffffffffffffffffffffffffffffffffffffffff163373ffffffffffffffffffffffffffffffffffffffff161460405180606001604052806036815260200161521260369139906131c7576040517f08c379a00000000000000000000000000000000000000000000000000000000081526004016131be9190614a91565b60405180910390fd5b50600060088111156131dc576131db6142d5565b5b601860009054906101000a900460ff1660088111156131fe576131fd6142d5565b5b146040518060600160405280603d815260200161527b603d913990613259576040517f08c379a00000000000000000000000000000000000000000000000000000000081526004016132509190614a91565b60405180910390fd5b506017818154811061326e5761326d614ba6565b5b906000526020600020906003020160146000820160009054906101000a900473ffffffffffffffffffffffffffffffffffffffff168160000160006101000a81548173ffffffffffffffffffffffffffffffffffffffff021916908373ffffffffffffffffffffffffffffffffffffffff16021790555060018201548160010155600282015481600201559050506001601860006101000a81548160ff02191690836008811115613322576133216142d5565b5b021790555060008054906101000a900473ffffffffffffffffffffffffffffffffffffffff1673ffffffffffffffffffffffffffffffffffffffff167f0738f4da267a110d810e6e89fc59e46be6de0c37b1d5cd559b267dc3688e74e060405161338b90614faa565b60405180910390a250565b60008054906101000a900473ffffffffffffffffffffffffffffffffffffffff1673ffffffffffffffffffffffffffffffffffffffff163373ffffffffffffffffffffffffffffffffffffffff1614604051806060016040528060368152602001615212603691399061343f576040517f08c379a00000000000000000000000000000000000000000000000000000000081526004016134369190614a91565b60405180910390fd5b50866001600001600001908051906020019061345c929190613f33565b508560016000016001019080519060200190613479929190613f33565b508460016000016002019080519060200190613496929190613f33565b5083600160000160030190805190602001906134b3929190613f33565b5082600160000160040190805190602001906134d0929190613f33565b5081600160000160050190805190602001906134ed929190613f33565b50806001600001600601908051906020019061350a929190613f33565b5050505050505050565b60008054906101000a900473ffffffffffffffffffffffffffffffffffffffff1673ffffffffffffffffffffffffffffffffffffffff163373ffffffffffffffffffffffffffffffffffffffff161460405180606001604052806036815260200161521260369139906135bd576040517f08c379a00000000000000000000000000000000000000000000000000000000081526004016135b49190614a91565b60405180910390fd5b50816001600e0181905550806001600f01819055505050565b6060806060806060806060600160000160000160016000016001016001600001600201600160000160030160016000016004016001600001600501600160000160060186805461362590614ae2565b80601f016020809104026020016040519081016040528092919081815260200182805461365190614ae2565b801561369e5780601f106136735761010080835404028352916020019161369e565b820191906000526020600020905b81548152906001019060200180831161368157829003601f168201915b505050505096508580546136b190614ae2565b80601f01602080910402602001604051908101604052809291908181526020018280546136dd90614ae2565b801561372a5780601f106136ff5761010080835404028352916020019161372a565b820191906000526020600020905b81548152906001019060200180831161370d57829003601f168201915b5050505050955084805461373d90614ae2565b80601f016020809104026020016040519081016040528092919081815260200182805461376990614ae2565b80156137b65780601f1061378b576101008083540402835291602001916137b6565b820191906000526020600020905b81548152906001019060200180831161379957829003601f168201915b505050505094508380546137c990614ae2565b80601f01602080910402602001604051908101604052809291908181526020018280546137f590614ae2565b80156138425780601f1061381757610100808354040283529160200191613842565b820191906000526020600020905b81548152906001019060200180831161382557829003601f168201915b5050505050935082805461385590614ae2565b80601f016020809104026020016040519081016040528092919081815260200182805461388190614ae2565b80156138ce5780601f106138a3576101008083540402835291602001916138ce565b820191906000526020600020905b8154815290600101906020018083116138b157829003601f168201915b505050505092508180546138e190614ae2565b80601f016020809104026020016040519081016040528092919081815260200182805461390d90614ae2565b801561395a5780601f1061392f5761010080835404028352916020019161395a565b820191906000526020600020905b81548152906001019060200180831161393d57829003601f168201915b5050505050915080805461396d90614ae2565b80601f016020809104026020016040519081016040528092919081815260200182805461399990614ae2565b80156139e65780601f106139bb576101008083540402835291602001916139e6565b820191906000526020600020905b8154815290600101906020018083116139c957829003601f168201915b50505050509050965096509650965096509650965090919293949596565b613a0c613efc565b60146040518060600160405290816000820160009054906101000a900473ffffffffffffffffffffffffffffffffffffffff1673ffffffffffffffffffffffffffffffffffffffff1673ffffffffffffffffffffffffffffffffffffffff16815260200160018201548152602001600282015481525050905090565b601460000160009054906101000a900473ffffffffffffffffffffffffffffffffffffffff1673ffffffffffffffffffffffffffffffffffffffff163373ffffffffffffffffffffffffffffffffffffffff16146040518060600160405280603981526020016151d96039913990613b36576040517f08c379a0000000000000000000000000000000000000000000000000000000008152600401613b2d9190614a91565b60405180910390fd5b5060016012015434146040518060400160405280601881526020017f5468652076616c7565732061726520646966666572656e74000000000000000081525090613bb6576040517f08c379a0000000000000000000000000000000000000000000000000000000008152600401613bad9190614a91565b60405180910390fd5b5060016008811115613bcb57613bca6142d5565b5b601860009054906101000a900460ff166008811115613bed57613bec6142d5565b5b146040518060600160405280603d815260200161527b603d913990613c48576040517f08c379a0000000000000000000000000000000000000000000000000000000008152600401613c3f9190614a91565b60405180910390fd5b506002601860006101000a81548160ff02191690836008811115613c6f57613c6e6142d5565b5b02179055503373ffffffffffffffffffffffffffffffffffffffff167f0738f4da267a110d810e6e89fc59e46be6de0c37b1d5cd559b267dc3688e74e0604051613cb890615062565b60405180910390a2565b601460000160009054906101000a900473ffffffffffffffffffffffffffffffffffffffff1673ffffffffffffffffffffffffffffffffffffffff163373ffffffffffffffffffffffffffffffffffffffff16146040518060600160405280603981526020016151d96039913990613d70576040517f08c379a0000000000000000000000000000000000000000000000000000000008152600401613d679190614a91565b60405180910390fd5b5060036008811115613d8557613d846142d5565b5b601860009054906101000a900460ff166008811115613da757613da66142d5565b5b14613db157600080fd5b6001600f01544211613e39576005601860006101000a81548160ff02191690836008811115613de357613de26142d5565b5b02179055503373ffffffffffffffffffffffffffffffffffffffff167f0738f4da267a110d810e6e89fc59e46be6de0c37b1d5cd559b267dc3688e74e0604051613e2c906150f4565b60405180910390a2613eb1565b6006601860006101000a81548160ff02191690836008811115613e5f57613e5e6142d5565b5b02179055503373ffffffffffffffffffffffffffffffffffffffff167f0738f4da267a110d810e6e89fc59e46be6de0c37b1d5cd559b267dc3688e74e0604051613ea890615186565b60405180910390a25b565b6040518060e00160405280613ec6613fb9565b8152602001613ed3613fb9565b815260200160008152602001600081526020016000815260200160008152602001600081525090565b6040518060600160405280600073ffffffffffffffffffffffffffffffffffffffff16815260200160008152602001600081525090565b828054613f3f90614ae2565b90600052602060002090601f016020900481019282613f615760008555613fa8565b82601f10613f7a57805160ff1916838001178555613fa8565b82800160010185558215613fa8579182015b82811115613fa7578251825591602001919060010190613f8c565b5b509050613fb59190613ff6565b5090565b6040518060e00160405280606081526020016060815260200160608152602001606081526020016060815260200160608152602001606081525090565b5b8082111561400f576000816000905550600101613ff7565b5090565b6000604051905090565b600080fd5b600080fd5b6000819050919050565b61403a81614027565b811461404557600080fd5b50565b60008135905061405781614031565b92915050565b6000806000606084860312156140765761407561401d565b5b600061408486828701614048565b935050602061409586828701614048565b92505060406140a686828701614048565b9150509250925092565b6140b981614027565b82525050565b60006020820190506140d460008301846140b0565b92915050565b600073ffffffffffffffffffffffffffffffffffffffff82169050919050565b6000614105826140da565b9050919050565b614115816140fa565b811461412057600080fd5b50565b6000813590506141328161410c565b92915050565b60006020828403121561414e5761414d61401d565b5b600061415c84828501614123565b91505092915050565b600081519050919050565b600082825260208201905092915050565b60005b8381101561419f578082015181840152602081019050614184565b838111156141ae576000848401525b50505050565b6000601f19601f8301169050919050565b60006141d082614165565b6141da8185614170565b93506141ea818560208601614181565b6141f3816141b4565b840191505092915050565b600060e0820190508181036000830152614218818a6141c5565b9050818103602083015261422c81896141c5565b9050818103604083015261424081886141c5565b9050818103606083015261425481876141c5565b9050818103608083015261426881866141c5565b905081810360a083015261427c81856141c5565b905081810360c083015261429081846141c5565b905098975050505050505050565b60006060820190506142b360008301866140b0565b6142c060208301856140b0565b6142cd60408301846140b0565b949350505050565b7f4e487b7100000000000000000000000000000000000000000000000000000000600052602160045260246000fd5b60098110614315576143146142d5565b5b50565b600081905061432682614304565b919050565b600061433682614318565b9050919050565b6143468161432b565b82525050565b6000602082019050614361600083018461433d565b92915050565b614370816140fa565b82525050565b600060208201905061438b6000830184614367565b92915050565b600082825260208201905092915050565b60006143ad82614165565b6143b78185614391565b93506143c7818560208601614181565b6143d0816141b4565b840191505092915050565b600060e08301600083015184820360008601526143f882826143a2565b9150506020830151848203602086015261441282826143a2565b9150506040830151848203604086015261442c82826143a2565b9150506060830151848203606086015261444682826143a2565b9150506080830151848203608086015261446082826143a2565b91505060a083015184820360a086015261447a82826143a2565b91505060c083015184820360c086015261449482826143a2565b9150508091505092915050565b6144aa81614027565b82525050565b600060e08301600083015184820360008601526144cd82826143db565b915050602083015184820360208601526144e782826143db565b91505060408301516144fc60408601826144a1565b50606083015161450f60608601826144a1565b50608083015161452260808601826144a1565b5060a083015161453560a08601826144a1565b5060c083015161454860c08601826144a1565b508091505092915050565b6000602082019050818103600083015261456d81846144b0565b905092915050565b600081519050919050565b600082825260208201905092915050565b6000819050602082019050919050565b60006145ac826140da565b9050919050565b6145bc816145a1565b82525050565b6060820160008201516145d860008501826145b3565b5060208201516145eb60208501826144a1565b5060408201516145fe60408501826144a1565b50505050565b600061461083836145c2565b60608301905092915050565b6000602082019050919050565b600061463482614575565b61463e8185614580565b935061464983614591565b8060005b8381101561467a5781516146618882614604565b975061466c8361461c565b92505060018101905061464d565b5085935050505092915050565b600060208201905081810360008301526146a18184614629565b905092915050565b6000602082840312156146bf576146be61401d565b5b60006146cd84828501614048565b91505092915050565b6060820160008201516146ec60008501826145b3565b5060208201516146ff60208501826144a1565b50604082015161471260408501826144a1565b50505050565b600060608201905061472d60008301846146d6565b92915050565b60008060006060848603121561474c5761474b61401d565b5b600061475a86828701614048565b935050602061476b86828701614048565b925050604061477c86828701614123565b9150509250925092565b600060408201905061479b600083018561433d565b81810360208301526147ad81846144b0565b90509392505050565b600080fd5b600080fd5b7f4e487b7100000000000000000000000000000000000000000000000000000000600052604160045260246000fd5b6147f8826141b4565b810181811067ffffffffffffffff82111715614817576148166147c0565b5b80604052505050565b600061482a614013565b905061483682826147ef565b919050565b600067ffffffffffffffff821115614856576148556147c0565b5b61485f826141b4565b9050602081019050919050565b82818337600083830152505050565b600061488e6148898461483b565b614820565b9050828152602081018484840111156148aa576148a96147bb565b5b6148b584828561486c565b509392505050565b600082601f8301126148d2576148d16147b6565b5b81356148e284826020860161487b565b91505092915050565b600080600080600080600060e0888a03121561490a5761490961401d565b5b600088013567ffffffffffffffff81111561492857614927614022565b5b6149348a828b016148bd565b975050602088013567ffffffffffffffff81111561495557614954614022565b5b6149618a828b016148bd565b965050604088013567ffffffffffffffff81111561498257614981614022565b5b61498e8a828b016148bd565b955050606088013567ffffffffffffffff8111156149af576149ae614022565b5b6149bb8a828b016148bd565b945050608088013567ffffffffffffffff8111156149dc576149db614022565b5b6149e88a828b016148bd565b93505060a088013567ffffffffffffffff811115614a0957614a08614022565b5b614a158a828b016148bd565b92505060c088013567ffffffffffffffff811115614a3657614a35614022565b5b614a428a828b016148bd565b91505092959891949750929550565b60008060408385031215614a6857614a6761401d565b5b6000614a7685828601614048565b9250506020614a8785828601614048565b9150509250929050565b60006020820190508181036000830152614aab81846141c5565b905092915050565b7f4e487b7100000000000000000000000000000000000000000000000000000000600052602260045260246000fd5b60006002820490506001821680614afa57607f821691505b60208210811415614b0e57614b0d614ab3565b5b50919050565b7f5468652064656c6976657279206c6174652066696e652068616420616c72616460008201527f79206265656e2074616b656e0000000000000000000000000000000000000000602082015250565b6000614b70602c83614170565b9150614b7b82614b14565b604082019050919050565b60006020820190508181036000830152614b9f81614b63565b9050919050565b7f4e487b7100000000000000000000000000000000000000000000000000000000600052603260045260246000fd5b7f546865207472616e73706f72746572206973206f6e207468652063617272696160008201527f676520616761696e000000000000000000000000000000000000000000000000602082015250565b6000614c31602883614170565b9150614c3c82614bd5565b604082019050919050565b60006020820190508181036000830152614c6081614c24565b9050919050565b7f4e487b7100000000000000000000000000000000000000000000000000000000600052601160045260246000fd5b6000614ca182614027565b9150614cac83614027565b925082821015614cbf57614cbe614c67565b5b828203905092915050565b7f546865206163636f756e742068616420616c726561647920776974686472617760008201527f6e2074686520616476616e6365206d6f6e657900000000000000000000000000602082015250565b6000614d26603383614170565b9150614d3182614cca565b604082019050919050565b60006020820190508181036000830152614d5581614d19565b9050919050565b7f546865207472616e73706f72746572206861642077697468647261776e20746860008201527f6520616476616e6365206d6f6e65790000000000000000000000000000000000602082015250565b6000614db8602f83614170565b9150614dc382614d5c565b604082019050919050565b60006020820190508181036000830152614de781614dab565b9050919050565b7f546865207472616e73706f72746572206861642073746f70706564207468652060008201527f6361727269616765000000000000000000000000000000000000000000000000602082015250565b6000614e4a602883614170565b9150614e5582614dee565b604082019050919050565b60006020820190508181036000830152614e7981614e3d565b9050919050565b7f4f776e657220636f6e6669726d65643a207472616e73706f727465722070696360008201527f6b656420757020746865206c6f61642120546f74616c206d6f6e65792068616460208201527f206265656e2061706f7274656420746f2074686520636f6e7472616374000000604082015250565b6000614f02605d83614170565b9150614f0d82614e80565b606082019050919050565b60006020820190508181036000830152614f3181614ef5565b9050919050565b7f546865206f776e6572206861642073657420612077696e6e696e67206f66666560008201527f7200000000000000000000000000000000000000000000000000000000000000602082015250565b6000614f94602183614170565b9150614f9f82614f38565b604082019050919050565b60006020820190508181036000830152614fc381614f87565b9050919050565b7f57696e6e6572206f666665722068616420616363657074656420616e6420707560008201527f74207468652067756172616e7465652076616c75652061742074686520636f6e60208201527f7472616374000000000000000000000000000000000000000000000000000000604082015250565b600061504c604583614170565b915061505782614fca565b606082019050919050565b6000602082019050818103600083015261507b8161503f565b9050919050565b7f546865207472616e73706f72746572206861642064656c69766572656420746860008201527f65206c6f616420696e2074696d65000000000000000000000000000000000000602082015250565b60006150de602e83614170565b91506150e982615082565b604082019050919050565b6000602082019050818103600083015261510d816150d1565b9050919050565b7f546865207472616e73706f72746572206861642064656c69766572656420746860008201527f65206c6f61642c206c6174650000000000000000000000000000000000000000602082015250565b6000615170602c83614170565b915061517b82615114565b604082019050919050565b6000602082019050818103600083015261519f81615163565b905091905056fe546865206163636f756e742068616420616c72656164792077697468647261776e207468652077686f6c65206d6f6e6579214f6e6c79207468652077696e6e6572206f66666572207472616e73706f727465722063616e20706572666f726d207468697320616374696f6e4f6e6c7920746865206f776e6572206f662074686520636f6e74726163742063616e20706572666f726d207468697320616374696f6e546865206f776e6572206f662074686520636f6e74726163742063616e277420706572666f726d207468697320616374696f6e546865206672656967687420736974756174696f6e20697320646966666572656e74206f6620776861742077617320737570706f73656420746f206265a2646970667358221220ae71d5c324ed85a34c1034ec0eb72332b2a042df55d92d8defd943c8c06028c264736f6c634300080b0033",
  "immutableReferences": {},
  "source": "// SPDX-License-Identifier: UNLICENSED\npragma solidity ^0.8.11;\n\n/* ------------------------- STRUCTS AND ENUMS ------------------------- */\n\nenum FreightSituation {\n    Auction,\n    WaitingConfirmationTransporter,\n    WaitingPickUpLoad,\n    OnCarriage,\n    Stopped,\n    Delivered,\n    DeliveredLate,\n    NotDelivered,\n    Returned\n}\n\nstruct Address {\n    string country;\n    string state;\n    string city;\n    string street;\n    string district; // neighborhood\n    string zipcode;\n    string number;\n}\n\nstruct Offer {\n    address payable address_offer;\n    uint value;\n    uint advance_money;\n}\n\nstruct FreightDetails {\n    Address origin;\n    Address destination;\n\n    uint256 date_limit_get_load;\n    uint256 date_limit_delivery;\n\n    uint estipulated_value;\n    uint fine_delivery_late;\n    uint guarantee_value; // guarantee value from the transporter, so it does not steal the load or something like that\n}\n\nstruct WholeFreight {\n    FreightDetails freight_details;\n    Offer[] offers;\n    FreightSituation situation;\n}\n\ncontract Freight {\n    /* ------------------------- INITIALIZERS ------------------------- */\n\n    // global variables\n    address payable owner;\n    FreightDetails freight_details;\n    Offer winning_offer;\n    Offer[] offers;\n    FreightSituation freight_situation;\n\n    // flags\n    bool is_advance_taken;\n    bool is_whole_money_taken;\n    bool is_delivery_late_taken;\n\n    // constants\n    string constant ONLY_OWNER = \"Only the owner of the contract can perform this action\";\n    string constant ONLY_WINNER_OFFER = \"Only the winner offer transporter can perform this action\";\n    string constant OWNER_CANT = \"The owner of the contract can't perform this action\";\n    string constant FREIGHT_SITUATION_DIFFERENT = \"The freight situation is different of what was supposed to be\";\n    string constant VALUES_DIFFER = \"The values are different\";\n    string constant WHOLE_MONEY_TAKEN = \"The account had already withdrawn the whole money!\";\n\n    // events\n    event Log(address indexed sender, string message);\n\n    constructor() {\n        freight_situation = FreightSituation.Auction;\n        \n        is_advance_taken = false;\n        is_whole_money_taken = false;\n        is_delivery_late_taken = false;\n    }\n\n    // modifier for owner-only\n    modifier onlyowner() {\n        require (msg.sender == owner, ONLY_OWNER);\n        _;\n    }\n\n    // modifier for winning-only\n    modifier onlywinner() {\n        require (msg.sender == winning_offer.address_offer, ONLY_WINNER_OFFER);\n        _;\n    }\n\n    // setting the owner of the contract\n    function setOwner(address owner_) public {\n        require(owner == address(0));\n        owner = payable(owner_);\n    }\n\n    /* ------------------------- ONLY OWNER FUNCTIONS ------------------------- */\n\n    function setOrigin(\n        string memory country_, string memory state_, string memory city_,\n        string memory street_, string memory district_, string memory zipcode_,\n        string memory number_\n    ) public onlyowner() {\n        freight_details.origin.country = country_;\n        freight_details.origin.state = state_;\n        freight_details.origin.city = city_;\n\n        freight_details.origin.street = street_;\n        freight_details.origin.district = district_;\n        freight_details.origin.zipcode = zipcode_;\n\n        freight_details.origin.number = number_;\n    }\n\n    function setDestination(\n        string memory country_, string memory state_, string memory city_,\n        string memory street_, string memory district_, string memory zipcode_,\n        string memory number_\n    ) public onlyowner() {\n        freight_details.destination.country = country_;\n        freight_details.destination.state = state_;\n        freight_details.destination.city = city_;\n\n        freight_details.destination.street = street_;\n        freight_details.destination.district = district_;\n        freight_details.destination.zipcode = zipcode_;\n\n        freight_details.destination.number = number_;\n    }\n\n    function setDates(\n        uint256 date_limit_get_load_, uint256 date_limit_delivery_\n    ) public onlyowner() {\n        freight_details.date_limit_get_load = date_limit_get_load_;\n        freight_details.date_limit_delivery = date_limit_delivery_;\n    }\n\n    function setValues(\n        uint estipulated_value_, uint fine_delivery_late_, uint guarantee_value_\n    ) public onlyowner() {\n        freight_details.estipulated_value = estipulated_value_;\n        freight_details.fine_delivery_late = fine_delivery_late_;\n        freight_details.guarantee_value = guarantee_value_;\n    }\n\n    function setWinningOffer(uint i) public onlyowner() {\n        require(freight_situation == FreightSituation.Auction, FREIGHT_SITUATION_DIFFERENT);\n        \n        // selecting the winner offer\n        winning_offer = offers[i];\n\n        // change the status of the freight\n        freight_situation = FreightSituation.WaitingConfirmationTransporter;\n\n        emit Log(owner, \"The owner had set a winning offer\");\n    }\n\n    /* ------------------------- OFFERS ------------------------- */\n\n    function createOffer(\n        uint value_, uint advance_money_, address sender\n    ) public {\n        require(freight_situation == FreightSituation.Auction, FREIGHT_SITUATION_DIFFERENT); // the situation must be as Auction\n        require(sender != owner, OWNER_CANT); // owner can't put a offer\n\n        offers.push(Offer({\n            address_offer: payable(sender),\n            value: value_,\n            advance_money: advance_money_\n        }));\n    }\n\n    /* ------------------------- INTERACTIONS ON THE CARRIAGE ------------------------- */\n\n    // winning offer transporter must accept the offer\n    function acceptOffer() public payable onlywinner() {\n        require(msg.value == freight_details.guarantee_value, VALUES_DIFFER); // check if its the exact amount\n        require(freight_situation == FreightSituation.WaitingConfirmationTransporter, FREIGHT_SITUATION_DIFFERENT);\n\n        freight_situation = FreightSituation.WaitingPickUpLoad;\n\n        emit Log(msg.sender, \"Winner offer had accepted and put the guarantee value at the contract\");\n    }\n\n    // the owner confirms the transporter have arrived to pick up the load\n    function pickUpLoad() public onlyowner() payable {\n        require(freight_situation == FreightSituation.WaitingPickUpLoad, FREIGHT_SITUATION_DIFFERENT);\n        require(msg.value == winning_offer.value, VALUES_DIFFER); // owner must put its money into the contract\n\n        freight_situation = FreightSituation.OnCarriage;\n\n        emit Log(msg.sender, \"Owner confirmed: transporter picked up the load! Total money had been aported to the contract\");\n    }\n\n    // the transporter can withdraw the advance money, put it into the contract by the owner\n    function withdrawAdvanceMoney() public onlywinner() {\n        require(!is_advance_taken, \"The account had already withdrawn the advance money\");\n\n        // send advance money from the contract to the transporter account\n        winning_offer.address_offer.transfer(winning_offer.advance_money);\n\n        // set flag that the advance money had already been taken\n        is_advance_taken = true;\n\n        emit Log(msg.sender, \"The transporter had withdrawn the advance money\");\n    }\n\n    /* ------------------------- ACTIONS THE TRANSPORTER CAN PERFORM (ON THE CARRIAGE) ------------------------- */\n\n    // set situation to stopped\n    function stopCarriage() public onlywinner() {\n        require(freight_situation >= FreightSituation.OnCarriage &&\n                freight_situation < FreightSituation.Delivered, FREIGHT_SITUATION_DIFFERENT);\n\n        freight_situation = FreightSituation.Stopped;\n\n        emit Log(msg.sender, \"The transporter had stopped the carriage\");\n    }\n\n    // set situation to on carriage\n    function onCarriage() public onlywinner() {\n        require(freight_situation >= FreightSituation.OnCarriage &&\n                freight_situation < FreightSituation.Delivered, FREIGHT_SITUATION_DIFFERENT);\n        \n        freight_situation = FreightSituation.OnCarriage;\n\n        emit Log(msg.sender, \"The transporter is on the carriage again\");\n    }\n\n    // the transporter had delivered the load into the destination\n    function deliver() public onlywinner() {\n        require(freight_situation == FreightSituation.OnCarriage);\n\n        if (block.timestamp <= freight_details.date_limit_delivery) {\n            freight_situation = FreightSituation.Delivered;\n            emit Log(msg.sender, \"The transporter had delivered the load in time\");\n\n        } else {\n            freight_situation = FreightSituation.DeliveredLate;\n            emit Log(msg.sender, \"The transporter had delivered the load, late\");\n        }\n    }\n\n    // the transporter, after delivering the load, can withdraw the whole money of the contract\n    function withdrawWholeMoney() public onlywinner() {\n        require(freight_situation == FreightSituation.Delivered ||\n                freight_situation == FreightSituation.DeliveredLate, FREIGHT_SITUATION_DIFFERENT);\n        require(!is_whole_money_taken, WHOLE_MONEY_TAKEN);\n\n        // transfer the whole amount of money (including the guarantee fee)\n        if (freight_situation == FreightSituation.Delivered) {\n            winning_offer.address_offer.transfer(address(this).balance);\n        } else {\n            winning_offer.address_offer.transfer(address(this).balance - freight_details.fine_delivery_late);\n        }\n\n        // set the flag\n        is_whole_money_taken = true;\n    }\n\n    // the owner can say the load wasn't delivered (only after the time is higher than the delivery time)\n    // than, change the situation and gets back the whole amount of money of the contract\n    function cancelFreight() public onlyowner() {\n        require(freight_situation == FreightSituation.OnCarriage ||\n                freight_situation == FreightSituation.Stopped, FREIGHT_SITUATION_DIFFERENT);\n        require(block.timestamp > freight_details.date_limit_delivery);\n        require(!is_whole_money_taken, WHOLE_MONEY_TAKEN);\n\n        // change the situation\n        freight_situation = FreightSituation.NotDelivered;\n\n        // transfer the whole money to the owner of the contract\n        owner.transfer(address(this).balance);\n\n        // set the flag\n        is_whole_money_taken = true;\n    }\n\n    // if the transporter had delivered the load in late time, the owner can get its fine of delivery late\n    function getDeliveryLateFine() public onlyowner() {\n        require(freight_situation == FreightSituation.DeliveredLate, FREIGHT_SITUATION_DIFFERENT);\n        require(!is_delivery_late_taken, \"The delivery late fine had alrady been taken\");\n\n        // transfer the fine to the owner\n        owner.transfer(freight_details.fine_delivery_late);\n\n        // set the flag\n        is_delivery_late_taken = true;\n    }\n\n    /* ------------------------- GETTERS ------------------------- */\n\n    function getOrigin() public view returns (\n        string memory, string memory, string memory,\n        string memory, string memory, string memory,\n        string memory\n    ) {\n        return (\n            freight_details.origin.country,\n            freight_details.origin.state,\n            freight_details.origin.city,\n\n            freight_details.origin.street,\n            freight_details.origin.district,\n            freight_details.origin.zipcode,\n\n            freight_details.origin.number\n        );\n    }\n\n    function getDestination() public view returns (\n        string memory, string memory, string memory,\n        string memory, string memory, string memory,\n        string memory\n    ) {\n        return (\n            freight_details.destination.country,\n            freight_details.destination.state,\n            freight_details.destination.city,\n\n            freight_details.destination.street,\n            freight_details.destination.district,\n            freight_details.destination.zipcode,\n\n            freight_details.destination.number\n        );\n    }\n\n    function getFreightSituation() public view returns (FreightSituation) {\n        return (freight_situation);\n    }\n\n    function getOffers() public view returns (Offer[] memory) {\n        return (offers);\n    }\n\n    function getOffer(uint index) public view returns (Offer memory) {\n        return (offers[index]);\n    }\n\n    function getBalance() public view returns (uint256) {\n        return address(this).balance;\n    }\n\n    function getValues() public view returns (uint, uint, uint) {\n        return (freight_details.estipulated_value, freight_details.fine_delivery_late, freight_details.guarantee_value);\n    }\n\n    function getContractAddress() public view returns (address) {\n        return address(this);\n    }\n\n    function getFreightDetails() public view returns (FreightDetails memory) {\n        return (freight_details);\n    }\n    \n    function getWinningOffer() public view returns (Offer memory) {\n        return (winning_offer);\n    }\n\n    function getFreight() public view returns (FreightSituation, FreightDetails memory) {\n        return (freight_situation, freight_details);\n    }\n}",
  "sourcePath": "/home/anthony_kamers/Desktop/UFSC/2021.2/blockchain/web3-react1/contracts/Freight.sol",
  "compiler": {
    "name": "solc",
    "version": "0.8.11+commit.d7f03943.Emscripten.clang"
  },
  "schemaVersion": "3.4.4",
  "updatedAt": "2022-02-19T03:25:18.927Z",
  "devdoc": {
    "kind": "dev",
    "methods": {},
    "version": 1
  },
  "userdoc": {
    "kind": "user",
    "methods": {},
    "version": 1
  }
}